:020000040800F2
:100000005043002071020008CD3900087339000800
:10001000C9390008D1030008794000080000000039
:10002000000000000000000000000000C101000806
:100030001504000800000000050200080D49000832
:100040008B0200088B0200088B0200088B0200085C
:100050008B0200088B0200088B0200088B0200084C
:100060008B0200088B0200088B0200088B0200083C
:100070008B0200088B0200088B0200088B0200082C
:100080008B0200088B0200088B0200088B0200081C
:100090008B0200088B0200088B0200088B0200080C
:1000A0008B0200088B0200088B0200088B020008FC
:1000B0008B0200088B0200088B0200088B020008EC
:1000C0008B0200088B0200088B0200088B020008DC
:1000D0008B0200088B0200088B0200088B020008CC
:1000E0008B0200088B0200088B0200088B020008BC
:1000F0008B0200088B0200088B0200088B020008AC
:100100008B0200088B0200088B0200088B0200089B
:100110008B0200088B0200088B0200088B0200088B
:100120008B0200088B020008D50300088B02000830
:100130008B0200088B0200088B0200088B0200086B
:100140008B0200088B0200088B0200088B0200085B
:100150008B0200088B020008E50300088B020008F0
:100160008B0200088B0200088B0200088B0200083B
:100170008B0200088B0200088B0200088B0200082B
:100180008B0200088B0200088B0200088B0200081B
:100190008B0200088B0200088B0200088B0200080B
:1001A0008B0200088B0200088B020008DFF80CD0DD
:1001B00000F0A2F800480047BD400008504300206E
:1001C000234B19680868B0E8F04F80F309884FF0B6
:1001D000000080F3118870470000000003480068A9
:1001E000006880F3088862B600DF00BF08ED00E019
:1001F000DFF80C00016841F470010160704700BF36
:1002000088ED00E0EFF30980114B1A681EF0100F23
:1002100008BF20ED108A20E9F04F106008B44FF0BD
:10022000500080F3118804F0CFFA4FF0000080F303
:10023000118808BC19680868B0E8F04F1EF0100F6C
:1002400008BFB0EC108A80F30988704700BF00BF78
:100250008C000020EFF311804FF0500181F31188E2
:10026000704780F311887047EFF3058070470000F6
:100270000648804706480047FEE7FEE7FEE7FEE740
:10028000FEE7FEE7FEE7FEE7FEE7FEE7B93A000815
:10029000AD01000840EA01039B0703D009E008C94B
:1002A000121F08C0042AFAD203E011F8013B00F83B
:1002B000013B521EF9D27047D2B201E000F8012B87
:1002C000491EFBD270470022F6E710B513460A46D6
:1002D00004461946FFF7F0FF204610BD30B504462E
:1002E0000020034600E05B1C934203D2E05CCD5C3F
:1002F000401BF8D030BD0000064C074D06E0E0681A
:1003000040F0010394E8070098471034AC42F6D35C
:10031000FFF750FF384D0008584D000810B586B063
:10032000044634B91748006840F0040015490860D5
:1003300017E0012C06D11348006840F00400114971
:1003400008600EE0022C06D10E48006840F0010063
:100350000C49086005E00B48006840F0200009499E
:100360000860094830F814000190012002900390C1
:1003700002200490054951F8240001A902F0F0FB85
:1003800006B010BD30380240AC4C00080000002020
:1003900010B50446044A32F81410044A52F82400F6
:1003A000002202F0E1FC10BDAC4C0008000000206F
:1003B00010B50446044A32F81410044A52F82400D6
:1003C000012202F0D1FC10BDAC4C0008000000205E
:1003D00000BFFEE710B50249486B00F01FF810BDE2
:1003E000E400002010B50249086B00F017F810BDBA
:1003F000E400002010B5046863608468402C04D1D8
:100400000468A2600468E16003E00468A160046815
:10041000E26010BD704700BFFEE7000010B5044663
:10042000F949206888425DD9F74854380068F74A8E
:100430002168914201D1082152E0F34A483A2168EB
:10044000914201D108214BE0F04A6032216891428B
:1004500001D1082144E0EC4A18322168914201D1CF
:1004600008213DE0E94A18322168914201D149153D
:1004700036E0E54A303A2168914201D149152FE032
:10048000E24A78322168914201D1491528E0DE4ADA
:1004900030322168914201D1491521E0DB4A3032E6
:1004A0002168914202D14FF4002119E0D64A183A4E
:1004B0002168914202D14FF4002111E0D34A9032D9
:1004C0002168914202D14FF4002109E0CE4A48321E
:1004D0002168914202D14FF4002101E04FF00071F8
:1004E000084022E1C949A831206888425DD9C64840
:1004F00058380068C54A2168914201D1082152E06C
:10050000C14A483A2168914201D108214BE0BF4AD3
:1005100060322168914201D1082144E0BA4A183280
:100520002168914201D108213DE0B84A1832216882
:10053000914201D1491536E0B34A303A21689142DF
:1005400001D149152FE0B14A78322168914201D199
:10055000491528E0AC4A30322168914201D1491551
:1005600021E0AA4A30322168914202D14FF40021A1
:1005700019E0A54A183A2168914202D14FF40021AE
:1005800011E0A24A90322168914202D14FF4002139
:1005900009E09D4A48322168914202D14FF400217E
:1005A00001E04FF000710840BFE0984948312068F1
:1005B00088425DD9954810384068944A2168914234
:1005C00001D1082152E0904A483A2168914201D174
:1005D00008214BE08D4A60322168914201D1082107
:1005E00044E0894A18322168914201D108213DE056
:1005F000864A18322168914201D1491536E0824A73
:10060000303A2168914201D149152FE07F4A783272
:100610002168914201D1491528E07B4A3032216896
:10062000914201D1491521E0784A30322168914246
:1006300002D14FF4002119E0734A183A216891421F
:1006400002D14FF4002111E0704A903221689142AA
:1006500002D14FF4002109E06B4A483221689142EF
:1006600002D14FF4002101E04FF0007108405CE03E
:10067000664810380068654A2168914201D1082116
:1006800052E0614A483A2168914201D108214BE089
:100690005E4A60322168914201D1082144E05A4A01
:1006A00018322168914201D108213DE0574A1832A1
:1006B0002168914201D1491536E0534A303A216808
:1006C000914201D149152FE0504A78322168914278
:1006D00001D1491528E04C4A30322168914201D1BC
:1006E000491521E0494A30322168914202D14FF444
:1006F000002119E0444A183A2168914202D14FF48E
:10070000002111E0414A90322168914202D14FF418
:10071000002109E03C4A48322168914202D14FF45D
:10072000002101E04FF000710840002870D02068DF
:10073000006800F004000028F8D02068006820F06D
:1007400004002168086030492068884261D92F4937
:100750002068884201D1082052E02B49483920689E
:10076000884201D108204BE0284960312068884246
:1007700001D1082044E0244918312068884201D181
:1007800008203DE0214918312068884201D14015F8
:1007900036E01D4930392068884201D140152FE0EC
:1007A0001A4978312068884201D1401528E016495D
:1007B00030312068884201D1401521E013493031A1
:1007C0002068884202D14FF4002019E00E49183900
:1007D0002068884202D14FF4002011E00B4990318B
:1007E0002068884202D14FF4002009E006494831D0
:1007F0002068884202D14FF4002001E04FF00070E1
:1008000001494C39086023E15864024010600240FD
:100810002FE1F849206888425CD9F649A839206858
:10082000884201D1082051E0F3492068884201D173
:1008300008204BE0EF4948392068884201D1082060
:1008400044E0ED4960312068884201D108203DE054
:10085000E84990392068884201D1401536E0E649E0
:1008600018312068884201D140152FE0E149303924
:100870002068884201D1401528E0DF49783120689E
:10088000884201D1401521E0DA4978392068884250
:1008900002D14FF4002019E0D74930312068884256
:1008A00002D14FF4002011E0D24918392068884263
:1008B00002D14FF4002009E0CF49903120688842EE
:1008C00002D14FF4002001E04FF00070CA4908390E
:1008D0000860BDE0C7496039206888425CD9C549D5
:1008E000A8392068884201D1082051E0C249206817
:1008F000884201D108204BE0BE494839206888422F
:1009000001D1082044E0BC4960312068884201D10F
:1009100008203DE0B74990392068884201D1401550
:1009200036E0B54918312068884201D140152FE0E2
:10093000B04930392068884201D1401528E0AE49DD
:1009400078312068884201D1401521E0A9497839E1
:100950002068884202D14FF4002019E0A6493031C6
:100960002068884202D14FF4002011E0A1491839D3
:100970002068884202D14FF4002009E09E4990315E
:100980002068884202D14FF4002001E04FF000704F
:100990009849B839C8605BE09649A8392068884210
:1009A00001D1082051E094492068884201D10820F3
:1009B0004BE0904948392068884201D1082044E042
:1009C0008D4960312068884201D108203DE0894985
:1009D00090392068884201D1401536E086491831A7
:1009E0002068884201D140152FE0824930392068C3
:1009F000884201D1401528E07F497831206888423B
:100A000001D1401521E07B4978392068884202D124
:100A10004FF4002019E0784930312068884202D133
:100A20004FF4002011E0734918392068884202D140
:100A30004FF4002009E0704990312068884202D1CB
:100A40004FF4002001E04FF000706A49B839886027
:100A5000E06C40F00100E064042084F8350000BF41
:100A6000002084F8340000BFA06C10B12046A16CB7
:100A7000884761494831206888425DD95E480C3812
:100A800000685C4AA83A2168914201D15B4951E073
:100A9000594A2168914201D158494BE0554A483A98
:100AA0002168914201D1554944E0534A603221689E
:100AB000914201D151493DE04E4A903A216891421C
:100AC00001D1402136E04C4A18322168914201D1CF
:100AD00040212FE0474A303A2168914201D140211C
:100AE00028E0454A78322168914201D1402121E035
:100AF000404A783A2168914202D14FF4803119E09E
:100B00003D4A30322168914202D14FF4803111E0E8
:100B1000384A183A2168914202D14FF4803109E0F5
:100B2000354A90322168914202D14FF4803101E080
:100B30004FF48001084026E12E492068884263D99D
:100B40002D48103800682B4AA83A2168914201D1FB
:100B50002A4957E0284A2168914201D1274951E0AA
:100B6000244A483A2168914201D124494AE0224A64
:100B700060322168914201D1204943E01D4A903AF8
:100B80002168914201D140213CE01B4A1832216882
:100B9000914201D1402135E0164A303A2168914214
:100BA00001D140212EE0144A78322168914201D1CE
:100BB000402127E00F4A783A2168914202D14FF450
:100BC00080311FE00C4A30322168914202D14FF44B
:100BD000803117E0074A183A2168914202D14FF458
:100BE00080310FE0044A90322168914208D14FF4DD
:100BF000803107E0B86002401064024001008000CC
:100C00004FF480010840BEE0F949206888425DD970
:100C1000F74858384068F64A483A2168914201D16D
:100C2000F44951E0F44A2168914201D1F1494BE085
:100C3000EF4A18322168914201D1EE4944E0EE4A70
:100C400060322168914201D1EA493DE0E84A303AF8
:100C50002168914201D1402136E0E74A18322168EB
:100C6000914201D140212FE0E14A30322168914286
:100C700001D1402128E0E04A78322168914201D137
:100C8000402121E0DA4A183A2168914202D14FF41A
:100C9000803119E0D84A30322168914202D14FF4B4
:100CA000803111E0D24A48322168914202D14FF49A
:100CB000803109E0D04A90322168914202D14FF44C
:100CC000803101E04FF4800108405CE0C8485838AA
:100CD0000068C74A483A2168914201D1C54951E0AC
:100CE000C54A2168914201D1C2494BE0C04A18323D
:100CF0002168914201D1BF4944E0BF4A6032216876
:100D0000914201D1BB493DE0B94A303A2168914254
:100D100001D1402136E0B84A18322168914201D110
:100D200040212FE0B24A30322168914201D1402166
:100D300028E0B14A78322168914201D1402121E076
:100D4000AB4A183A2168914202D14FF4803119E040
:100D5000A94A30322168914202D14FF4803111E02A
:100D6000A34A48322168914202D14FF4803109E010
:100D7000A14A90322168914202D14FF4803101E0C2
:100D80004FF480010840002879D02068406900F0C5
:100D90008000002873D02068406920F0800021681E
:100DA000486195494831206888425CD99049483962
:100DB0002068884201D18F4851E08F4920688842DD
:100DC00001D18C484BE08A4918312068884201D112
:100DD000884844E0884960312068884201D18548CC
:100DE0003DE0834930392068884201D1402036E017
:100DF000814918312068884201D140202FE07C4988
:100E000030312068884201D1402028E07A49783189
:100E10002068884201D1402021E0754918392068B6
:100E2000884202D14FF4803019E073493031206894
:100E3000884202D14FF4803011E06D49483120687A
:100E4000884202D14FF4803009E06B49903120682C
:100E5000884202D14FF4803001E04FF480006649AF
:100E6000091F086025E162496031206888425DD928
:100E70005F4948392068884202D15E4852E029E142
:100E80005D492068884201D15A484BE058491831E1
:100E90002068884201D1574844E0574960312068B2
:100EA000884201D153483DE0514930392068884299
:100EB00001D1402036E0504918312068884201D1E4
:100EC00040202FE04A4930312068884201D140203B
:100ED00028E0494978312068884201D1402021E04A
:100EE000434918392068884202D14FF4803019E014
:100EF000414930312068884202D14FF4803011E0FE
:100F00003B4948312068884202D14FF4803009E0E3
:100F1000394990312068884202D14FF4803001E095
:100F20004FF48000344908390860C2E03049206835
:100F3000884263D92E4948392068884201D12D481A
:100F400051E02D492068884201D12A484BE02849C8
:100F500018312068884201D1264844E02649603192
:100F60002068884201D123483DE02149303920687A
:100F7000884201D1402036E01F491831206888425C
:100F800001D140202FE01A4930312068884201D138
:100F9000402028E0184978312068884201D140205B
:100FA00021E0134918392068884202D14FF480307B
:100FB00019E0114930312068884202D14FF4803065
:100FC00011E00B4948312068884202D14FF480304B
:100FD00009E0094990312068884202D14FF48030FD
:100FE00001E04FF4800002495839C86061E005E033
:100FF000586002400100800010640240F9492068F6
:10100000884201D1F84851E0F8492068884201D16E
:10101000F5484BE0F34960312068884201D1F2483D
:1010200044E0F24960312068884201D1EE483DE059
:10103000EC4918312068884201D1402036E0EB4964
:1010400018312068884201D140202FE0E5497831ED
:101050002068884201D1402028E0E44978312068A6
:10106000884201D1402021E0DE49303120688842A9
:1010700002D14FF4803019E0DC49303120688842D9
:1010800002D14FF4803011E0D64990312068884277
:1010900002D14FF4803009E0D44990312068884271
:1010A00002D14FF4803001E04FF48000CD49103977
:1010B0008860E06C40F00200E064042084F83500B1
:1010C00000BF002084F8340000BFA06C10B120469F
:1010D000A16C8847C54948312068884260D9C34817
:1010E0000C380068BF4A2168914202D1BE49C91C30
:1010F00054E0BE4A2168914202D1BB49C91C4DE06F
:10110000B84A60322168914202D1B749C91C45E012
:10111000B64A60322168914202D1B349C91C3DE010
:10112000B04A18322168914201D1891536E0AF4AA0
:1011300018322168914201D189152FE0A94A7832ED
:101140002168914201D1891528E0A84A78322168A6
:10115000914201D1891521E0A24A303221689142A1
:1011600002D14FF4802119E0A04A30322168914227
:1011700002D14FF4802111E09A4A903221689142C5
:1011800002D14FF4802109E0984A903221689142BF
:1011900002D14FF4802101E04FF08071084031E12D
:1011A0009049A8312068884260D99048103800687A
:1011B0008C4A2168914202D18B49C91C54E08B4A68
:1011C0002168914202D18849C91C4DE0854A6032AC
:1011D0002168914202D18449C91C45E0834A6032AA
:1011E0002168914202D18049C91C3DE07D4A1832F4
:1011F0002168914201D1891536E07C4A1832216874
:10120000914201D189152FE0764A783221689142C6
:1012100001D1891528E0754A78322168914201D1BF
:10122000891521E06F4A30322168914202D14FF492
:10123000802119E06D4A30322168914202D14FF489
:10124000802111E0674A90322168914202D14FF427
:10125000802109E0654A90322168914202D14FF421
:10126000802101E04FF080710840CBE05D494831BA
:101270002068884260D95B4810384068594A216824
:10128000914202D15849C91C54E0584A2168914200
:1012900002D15549C91C4DE0524A60322168914241
:1012A00002D15149C91C45E0504A6032216891423F
:1012B00002D14D49C91C3DE04A4A18322168914289
:1012C00001D1891536E0494A18322168914201D18D
:1012D00089152FE0434A78322168914201D189155E
:1012E00028E0424A78322168914201D1891521E0F3
:1012F0003C4A30322168914202D14FF4802119E0FA
:101300003A4A30322168914202D14FF4802111E0F3
:10131000344A90322168914202D14FF4802109E091
:10132000324A90322168914202D14FF4802101E08B
:101330004FF08071084065E02A4810380068294A5B
:101340002168914202D12849C91C5AE0274A2168E4
:10135000914202D12449C91C53E0224A60322168DB
:10136000914202D12049C91C4BE0204A60322168D9
:10137000914202D11C49C91C43E01A4A1832216823
:10138000914201D189153CE0184A183221689142F6
:1013900001D1891535E0134A78322168914201D193
:1013A00089152EE0114A78322168914201D18915C0
:1013B00027E00C4A30322168914202D14FF480215B
:1013C0001FE00A4A30322168914202D14FF4802155
:1013D00017E0044A90322168914209D14FF48021EC
:1013E0000FE0000010600240010080001064024025
:1013F000FA4A2168914202D14FF4802101E04FF076
:101400008071084088B32068006800F0020060B373
:101410002068006820F0020021680860EF49483920
:10142000206888425CD9EE492068884201D1ED48A5
:1014300052E0EA4990392068884201D1E9484BE0FE
:10144000E74960312068884201D1E64844E0E34939
:1014500030392068884201D1E2483DE0E049183146
:101460002068884202D1801536E067E1DB4978398F
:101470002068884201D180152EE0D9497831206852
:10148000884201D1801527E0D44918392068884264
:1014900001D1801520E0D24930312068884202D144
:1014A0004FF4802018E0CD4960392068884202D18D
:1014B0004FF4802010E0CA4990312068884202D160
:1014C0004FF4802008E0C5492068884202D14FF4DB
:1014D000802001E04FF08070C049943908601CE121
:1014E000BF49A831206888425BD9BD49206888423D
:1014F00001D1BC4851E0B94990392068884201D1F6
:10150000B8484AE0B64960312068884201D1B54800
:1015100043E0B24930392068884201D1B1483CE00B
:10152000AF4918312068884201D1801535E0AB49B8
:1015300078392068884201D180152EE0A849783199
:101540002068884201D1801527E0A4491839206815
:10155000884201D1801520E0A149303120688842BD
:1015600002D14FF4802018E09C49603920688842FD
:1015700002D14FF4802010E09949903120688842D0
:1015800002D14FF4802008E094492068884202D1BB
:101590004FF4802001E04FF0807090499839086046
:1015A000BBE08F494831206888425BD98C4920686C
:1015B000884201D18B4851E088499039206888429F
:1015C00001D188484AE0864960312068884201D1CB
:1015D000844843E0814930392068884201D18148FC
:1015E0003CE07F4918312068884201D1801535E000
:1015F0007A4978392068884201D180152EE07849EF
:1016000078312068884201D1801527E07349183964
:101610002068884201D1801520E07149303120686E
:10162000884202D14FF4802018E06C49603920686C
:10163000884202D14FF4802010E06949903120683F
:10164000884202D14FF4802008E064492068884233
:1016500002D14FF4802001E04FF0807060491039D2
:10166000C8605AE05E492068884201D15D4851E077
:101670005A4990392068884201D15A484AE058496D
:1016800060312068884201D1564843E053493039DF
:101690002068884201D153483CE051491831206804
:1016A000884201D1801535E04C497839206888425C
:1016B00001D180152EE04A4978312068884201D155
:1016C000801527E0454918392068884201D18015E6
:1016D00020E0434930312068884202D14FF4802015
:1016E00018E03E4960392068884202D14FF48020DA
:1016F00010E03B4990312068884202D14FF48020AD
:1017000008E036492068884202D14FF4802001E089
:101710004FF08070324910398860E06C40F004006E
:10172000E064042084F8350000BF002084F8340011
:1017300000BFA06C10B12046A16C884727494839EA
:101740002068884262D925489C380068244A21686C
:10175000914201D1102157E0204A903A21689142EC
:1017600001D1102150E01E4A60322168914201D11E
:10177000102149E0194A303A2168914201D11021E3
:1017800042E0174A18322168914201D109153BE025
:10179000124A783A2168914201D1091534E0104A81
:1017A00078322168914201D109152DE00B4A183A8F
:1017B0002168914201D1091526E0094A3032216899
:1017C000914202D14FF480111EE0044A603A216830
:1017D000914209D14FF4801116E00000A06402404C
:1017E0001060024004008000F74A2168914202D153
:1017F0004FF4801108E0F54A2168914202D14FF47C
:10180000801101E04FF0806108401FE1EE4918317E
:10181000206888425CD9ED48A0380068EA4A903ACE
:101820002168914201D1102150E0E84A903A2168A4
:10183000914201D1102149E0E34A303A21689142B6
:1018400001D1102142E0E14A303A2168914201D1B0
:1018500010213BE0DC4A783A2168914201D1091518
:1018600034E0DA4A783A2168914201D109152DE035
:10187000D54A183A2168914201D1091526E0D34A88
:10188000183A2168914201D109151FE0CE4A603A09
:101890002168914202D14FF4801117E0CB4A603A9F
:1018A0002168914202D14FF480110FE0C64A2168AD
:1018B000914202D14FF4801108E0C44A216891425C
:1018C00002D14FF4801101E04FF080610840BDE08B
:1018D000BD494839206888425CD9BB48A038406877
:1018E000B94A903A2168914201D1102150E0B74A9B
:1018F000903A2168914201D1102149E0B24A303A30
:101900002168914201D1102142E0B04A303A216869
:10191000914201D110213BE0AB4A783A21689142D3
:1019200001D1091534E0A94A783A2168914201D1E0
:1019300009152DE0A44A183A2168914201D10915F0
:1019400026E0A24A183A2168914201D109151FE008
:101950009D4A603A2168914202D14FF4801117E00C
:101960009A4A603A2168914202D14FF480110FE007
:10197000954A2168914202D14FF4801108E0934AC0
:101980002168914202D14FF4801101E04FF0806153
:1019900008405BE08C48A03800688B4A903A216888
:1019A000914201D1102150E0884A903A2168914239
:1019B00001D1102149E0844A303A2168914201D195
:1019C000102142E0814A303A2168914201D1102130
:1019D0003BE07D4A783A2168914201D1091534E013
:1019E0007A4A783A2168914201D109152DE0764A68
:1019F000183A2168914201D1091526E0734A183A34
:101A00002168914201D109151FE06F4A603A2168AF
:101A1000914202D14FF4801117E06C4A603A21687C
:101A2000914202D14FF480110FE0674A2168914240
:101A300002D14FF4801108E0644A2168914202D13A
:101A40004FF4801101E04FF080610840002878D009
:101A50002068006800F00800002872D02068006844
:101A600000F48020A8B359494839206888425CD9DD
:101A7000554990392068884201D1102051E05349DE
:101A800090392068884201D110204AE04E4930390F
:101A90002068884201D1102043E04C493039206849
:101AA000884201D110203CE04749783920688842BB
:101AB00001D1001535E0454978392068884201D1C7
:101AC00000152EE0404918392068884202D10015DF
:101AD00027E05FE13D4918392068884201D10015AF
:101AE0001FE0394960392068884202D14FF48010E4
:101AF00017E0364960392068884202D14FF48010DF
:101B00000FE031492068884202D14FF4801008E08C
:101B10002E492068884202D14FF4801001E04FF036
:101B200080602A499439086022E1274918312068E9
:101B3000884261D9244990392068884202D1102016
:101B400056E0BEE2214990392068884201D1102038
:101B50004EE01D4930392068884201D1102047E00D
:101B60001A4930392068884201D1102040E01649D6
:101B700078392068884201D1001539E01349783955
:101B80002068884201D1001532E00F4918392068D9
:101B9000884201D100152BE00C4918392068884291
:101BA00001D1001524E0084960392068884202D13B
:101BB0004FF480101CE0054960392068884207D145
:101BC0004FF4801014E00000A0600240A0640240C6
:101BD000FA492068884202D14FF4801008E0F849A1
:101BE0002068884202D14FF4801001E04FF08060FD
:101BF000F34998390860BBE0F049483920688842C9
:101C00005BD9EE4990392068884201D1102050E01C
:101C1000EB4990392068884201D1102049E0E7491A
:101C200030392068884201D1102042E0E44930393F
:101C30002068884201D110203BE0E04978392068D3
:101C4000884201D1001534E0DD49783920688842A6
:101C500001D100152DE0D94918392068884201D1F9
:101C6000001526E0D64918392068884201D10015B0
:101C70001FE0D24960392068884202D14FF48010B9
:101C800017E0CF4960392068884202D14FF48010B4
:101C90000FE0CA492068884202D14FF4801008E062
:101CA000C7492068884202D14FF4801001E04FF00C
:101CB0008060C249A039C8605AE0C04990392068A4
:101CC000884201D1102050E0BD49903920688842F7
:101CD00001D1102049E0B94930392068884201D14A
:101CE000102042E0B64930392068884201D11020E6
:101CF0003BE0B24978392068884201D1001534E0D0
:101D0000AF4978392068884201D100152DE0AB49F0
:101D100018392068884201D1001526E0A8491839F1
:101D20002068884201D100151FE0A449603920686D
:101D3000884202D14FF4801017E0A1496039206831
:101D4000884202D14FF480100FE09C4920688842FD
:101D500002D14FF4801008E099492068884202D1EE
:101D60004FF4801001E04FF080609449A039886002
:101D70002068006800F4002018B9312084F835008C
:101D80009AE12068006800F4002078B3412084F8CC
:101D9000350091E12068006800F4807028B920685F
:101DA000006820F0080021680860854948392068EB
:101DB00088425CD9814990392068884201D110203D
:101DC00051E07F4990392068884201D110204AE0D3
:101DD0007A4930392068884201D1102043E078499F
:101DE00030392068884202D110203CE064E1734918
:101DF00078392068884201D1001534E0704978397B
:101E00002068884201D100152DE06C4918392068FE
:101E1000884201D1001526E06949183920688842B6
:101E200001D100151FE0654960392068884202D160
:101E30004FF4801017E0624960392068884202D16F
:101E40004FF480100FE05D492068884202D14FF4C2
:101E5000801008E05A492068884202D14FF480106F
:101E600001E04FF0806056499439086021E1534900
:101E70001831206888425BD95049903920688842DF
:101E800001D1102050E04E4990392068884201D19C
:101E9000102049E0494930392068884201D110209A
:101EA00042E0474930392068884201D110203BE0A8
:101EB000424978392068884201D1001534E0404910
:101EC00078392068884201D100152DE03B49183946
:101ED0002068884201D1001526E039491839206868
:101EE000884201D100151FE03449603920688842DA
:101EF00002D14FF4801017E03149603920688842E0
:101F000002D14FF480100FE02C492068884202D1A2
:101F10004FF4801008E02A492068884202D14FF42B
:101F2000801001E04FF08060254998390860C0E0DA
:101F3000224948392068884260D920499039206870
:101F4000884201D1102055E01D499039206888420F
:101F500001D110204EE0194930392068884201D162
:101F6000102047E0164930392068884201D11020FE
:101F700040E0124978392068884201D1001539E0E3
:101F80000F4978392068884201D1001532E00B49A9
:101F900018392068884201D100152BE0084918390A
:101FA0002068884201D1001524E004496039206886
:101FB000884207D14FF480101CE00000A06002406E
:101FC000A0640240F7492068884202D14FF4801093
:101FD00010E0F5492068884202D14FF4801009E0F2
:101FE000F04960312068884202D14FF4801001E04E
:101FF0004FF08060EC49A039C8605AE0EA49903956
:102000002068884201D1102050E0E649303920682C
:10201000884201D1102049E0E349303920688842E4
:1020200001D1102042E0DF4930312068884201D1DF
:1020300010203BE0DC4978392068884201D1001546
:1020400034E0D84918392068884201D100152DE0C4
:10205000D54918392068884201D1001526E0D149B8
:1020600048312068884201D100151FE0CE4960390F
:102070002068884202D14FF4801017E0C9492068D7
:10208000884202D14FF4801010E0C749206888428E
:1020900002D14FF4801009E0C249603120688842C3
:1020A00002D14FF4801001E04FF08060BE49A039AA
:1020B0008860312084F83500206C10B12046216CF6
:1020C0008847B8491831206888425CD9B5483C38FF
:1020D0000068B54A903A2168914201D1202150E030
:1020E000B04A303A2168914201D1202149E0AE4AFC
:1020F000303A2168914201D1202142E0A94A303290
:102100002168914201D120213BE0A74A783A216819
:10211000914201D1C91434E0A24A183A216891428F
:1021200001D1C9142DE0A04A183A2168914201D189
:10213000C91426E09B4A48322168914201D1C91452
:102140001FE0994A603A2168914202D14FF4001190
:1021500017E0944A2168914202D14FF4001110E037
:10216000914A2168914202D14FF4001109E08D4A51
:1021700060322168914202D14FF4001101E04FF02A
:102180000061084023E188491831206888425CD901
:10219000844840380068844A903A2168914201D1CD
:1021A000202150E07F4A303A2168914201D120211C
:1021B00049E07D4A303A2168914201D1202142E034
:1021C000784A30322168914201D120213BE0764AA1
:1021D000783A2168914201D1C91434E0714A183A21
:1021E0002168914201D1C9142DE06F4A183A216843
:1021F000914201D1C91426E06A4A483221689142CD
:1022000001D1C9141FE0684A603A2168914202D1A5
:102210004FF4001117E0634A2168914202D14FF454
:10222000001110E0604A2168914202D14FF4001180
:1022300009E05C4A60322168914202D14FF40011FA
:1022400001E04FF000610840C1E05749483920687B
:1022500088425CD95448A0384068534A903A216873
:10226000914201D1202150E04E4A303A21689142FA
:1022700001D1202149E04C4A303A2168914201D1F4
:10228000202142E0474A30322168914201D1202189
:102290003BE0454A783A2168914201D1C91434E0C3
:1022A000404A183A2168914201D1C9142DE03E4AB2
:1022B000183A2168914201D1C91426E0394A4832BE
:1022C0002168914201D1C9141FE0374A603A216860
:1022D000914202D14FF4001117E0324A2168914235
:1022E00002D14FF4001110E02F4A2168914202D12F
:1022F0004FF4001109E02B4A60322168914202D16B
:102300004FF4001101E04FF0006108405FE0264803
:10231000A0380068244A903A2168914201D12021D6
:1023200054E0204A303A2168914201D120214DE009
:102330001D4A303A2168914201D1202146E0194AD4
:1023400030322168914201D120213FE0164A783A8B
:102350002168914201D1C91438E0124A183A216823
:10236000914201D1C91431E00F4A183A21689142D3
:1023700001D1C9142AE00B4A48322168914201D1A7
:10238000C91423E0084A603A2168914202D14FF40F
:1023900000111BE0034A2168914207D14FF400115C
:1023A00014E0000040640240A0600240F94A216845
:1023B000914202D14FF4001108E0F74A216891429E
:1023C00002D14FF4001101E04FF00061084088B3E2
:1023D0002068006800F0100060B32068006800F416
:1023E000802040B3EC494839206888425DD9E949EA
:1023F00090392068884201D1202052E0E649903986
:102400002068884201D120204BE0E2493039206821
:10241000884201D1202044E0DF49303920688842D9
:1024200001D120203DE0DB4978392068884203D182
:10243000C01436E091E16BE1D749783920688842D1
:1024400001D1C0142DE0D34918392068884201D148
:10245000C01426E0D04918392068884201D1C01440
:102460001FE0CC4960392068884202D14FF4001047
:1024700017E0C94960392068884202D14FF4001042
:102480000FE0C4492068884202D14FF4001008E0F0
:10249000C1492068884202D14FF4001001E04FF09A
:1024A0000060BD49943908601CE1BA4918312068C0
:1024B00088425BD9B74990392068884201D12020F1
:1024C00050E0B54990392068884201D1202049E088
:1024D000B04930392068884201D1202042E0AE491D
:1024E00030392068884201D120203BE0A949783961
:1024F0002068884201D1C01434E0A74978392068A7
:10250000884201D1C0142DE0A249183920688842C0
:1025100001D1C01426E0A04918392068884201D1B1
:10252000C0141FE09B4960392068884202D14FF4F3
:10253000001017E0984960392068884202D14FF4B2
:1025400000100FE093492068884202D14FF4001038
:1025500008E091492068884202D14FF4001001E060
:102560004FF000608C4998390860BBE089494839D0
:10257000206888425BD9874990392068884201D118
:10258000202050E0844990392068884201D12020E1
:1025900049E0804930392068884201D1202042E05A
:1025A0007D4930392068884201D120203BE07949BB
:1025B00078392068884201D1C01434E076497839EE
:1025C0002068884201D1C0142DE072491839206872
:1025D000884201D1C01426E06F491839206888422A
:1025E00001D1C0141FE06B4960392068884202D1D4
:1025F0004FF4001017E0684960392068884202D122
:102600004FF400100FE063492068884202D14FF474
:10261000001008E060492068884202D14FF40010A1
:1026200001E04FF000605B49A039C8605AE05949A9
:1026300090392068884201D1202050E056499039D5
:102640002068884201D1202049E052493039206871
:10265000884201D1202042E04F4930392068884229
:1026600001D120203BE04B4978392068884201D1D4
:10267000C01434E0484978392068884201D1C01438
:102680002DE0444918392068884201D1C01426E061
:10269000414918392068884201D1C0141FE03D49E2
:1026A00060392068884202D14FF4001017E03A499F
:1026B00060392068884202D14FF400100FE035499C
:1026C0002068884202D14FF4001008E032492068A7
:1026D000884202D14FF4001001E04FF000602D4914
:1026E000A03988602068006800F4002028B9606C78
:1026F00098B32046616C8847A7E12068006800F421
:10270000002050B3E06B40B32046E16B88479CE16A
:102710002068006800F4807028B92068006820F004
:102720001000216808601C4948392068884260D937
:10273000184990392068884201D1202055E0164977
:1027400090392068884201D120204EE0114930396B
:102750002068884202D1202047E076E10E493039D6
:102760002068884201D120203FE00A49783920685A
:10277000884201D1C01438E007497839206888427E
:1027800001D1C01431E0034918392068884205D1CD
:10279000C0142AE0A0600240A0640240AB49206857
:1027A000884201D1C01420E0A9492068884202D1A2
:1027B0004FF4001019E0A54948392068884202D139
:1027C0004FF4001011E0A24960312068884202D124
:1027D0004FF4001009E09D4918312068884202D169
:1027E0004FF4001001E04FF0006098497C39086018
:1027F0001CE197497831206888425BD99449303987
:102800002068884201D1202050E090497839206822
:10281000884201D1202049E08D493031206888422A
:1028200001D1202042E0894918392068884201D12D
:1028300020203BE0864918392068884201D1C01425
:1028400034E0824960392068884201D1C0142DE00B
:102850007F4948312068884201D1C01426E07B4975
:102860002068884201D1C01420E07949206888425C
:1028700002D14FF4001019E07449483920688842A9
:1028800002D14FF4001011E0714960312068884294
:1028900002D14FF4001009E06C49183120688842D9
:1028A00002D14FF4001001E04FF000606749803919
:1028B0000860BBE066491831206888425BD96449EA
:1028C00030392068884201D1202050E05F497839B2
:1028D0002068884201D1202049E05D4930312068DC
:1028E000884201D1202042E05849183920688842A6
:1028F00001D120203BE0564918392068884201D197
:10290000C01434E0514960392068884201D1C014B4
:102910002DE04F4948312068884201D1C01426E09B
:102920004A492068884201D1C01420E04849206803
:10293000884202D14FF4001019E044494839206818
:10294000884202D14FF4001011E041496031206803
:10295000884202D14FF4001009E03C491831206848
:10296000884202D14FF4001001E04FF00060384976
:102970004039C8605AE0364930392068884201D170
:10298000202050E0314978392068884201D1202048
:1029900049E02F4930312068884201D1202042E0AF
:1029A0002A4918392068884201D120203BE0284973
:1029B00018392068884201D1C01434E023496039B5
:1029C0002068884201D1C0142DE021494831206897
:1029D000884201D1C01426E01C492068884201D1F8
:1029E000C01420E01A492068884202D14FF4001038
:1029F00019E0164948392068884202D14FF4001086
:102A000011E0134960312068884202D14FF4001070
:102A100009E00E4918312068884202D14FF40010B5
:102A200001E04FF000600A4940398860E06CE064E2
:102A3000112084F8350000BF002084F8340000BF66
:102A4000E06B10B12046E16B884710BD88640240FE
:102A5000406002400146002209B901207047486ADF
:102A600000B100BF022081F83500086802681748ED
:102A70000240D1E901031843CB6818430B6918439E
:102A80004B6918438B691843CB6918430B6A184389
:102A90000243486A042803D1D1E90B0318430243D7
:102AA000086802600868426922F00702486A024327
:102AB000486A042801D1886A0243086842610020FC
:102AC000C864012081F835000020C7E73F8014F07A
:102AD0002DE9F04104460D4616461F4600BF94F806
:102AE0003400012802D10220BDE8F081012084F8E1
:102AF000340000BF022084F835002068006820F010
:102B00000100216808603B46324629462046FDF711
:102B100071FC2068006840F010002168086020689F
:102B2000006840F00800216808602068006840F0F4
:102B30000400216808602068406940F08000216836
:102B400048612068006840F0020021680860206841
:102B5000006840F00100216808600020C4E7000020
:102B6000F0B502460B460025002400200021DCE0E1
:102B7000012606FA01F51E6806EA0504AC426ED18C
:102B80005E68022E02D05E68122E13D1CF0802F1C9
:102B9000200656F827004E07F70E0F26BE40B0431A
:102BA0004F07FF0E1E69BE403043CF0802F12006DA
:102BB00046F8270010684F000326BE40B0431E7938
:102BC00006F003064F00BE40304310605E68012EE1
:102BD00008D05E68022E05D05E68112E02D05E68B5
:102BE000122E13D190684F000326BE40B0434F0011
:102BF000DE68BE4030439060506801268E40B0438E
:102C00001E79C6F300168E4030435060D0684F00E6
:102C10000326BE40B0434F009E68BE403043D060A4
:102C20005E6806F08056B6F1805F7DD1414E366811
:102C300046F480463F4F3E603F4E8F0856F82700CF
:102C40008E07370F0F26BE40B0433C4EB24201D133
:102C500000262EE03A4EB24202D1012629E063E07E
:102C6000384EB24201D1022623E0374EB24201D1A2
:102C700003261EE0354EB24201D1042619E0344E3F
:102C8000B24201D1052614E0324EB24201D10626ED
:102C90000FE0314EB24201D107260AE02F4EB24278
:102CA00001D1082605E02E4EB24201D1092600E0EE
:102CB0000A268F073F0FBE4030431F4E8F0846F84D
:102CC0002700284E3068A0435E6806F48036B6F5CB
:102CD000803F00D12043234E3060361D3068A04332
:102CE0005E6806F40036B6F5003F00D120431D4E65
:102CF000361D3060361D3068A0435E6806F48016CD
:102D0000B6F5801F00D12043164E08363060361DC0
:102D10003068A0435E6806F40016B6F5001F00D1C7
:102D20002043104E0C363060491C1029FFF420AFB0
:102D3000F0BD000044380240083801400000024065
:102D40000004024000080240000C02400010024053
:102D50000014024000180240001C02400020024003
:102D600000240240003C01400AB1018300E041839D
:102D700070470000014800687047000030000020E4
:102D800010B50D48006840F400700B490860084613
:102D9000006840F4806008600846006840F4807075
:102DA0000860032000F068F80F2000F007F800F03A
:102DB00017F8002010BD0000003C024070B504462A
:102DC00000F098F94FF47A71B0FBF1F5284600F065
:102DD00039FC00222146501E00F010F8002070BD82
:102DE000704700BF00F01F0201219140420992008C
:102DF00002F1E022C2F8001100BF70472DE9F05F38
:102E000080460D461646002700F0E2FD074639468B
:102E10002A46334601F00700C0F1070ABAF1040F51
:102E200002D94FF0040A01E0C0F1070AD14600F1CF
:102E3000040ABAF1070F02D24FF0000A01E0A0F134
:102E4000030AD4464FF0010A0AFA09FAAAF1010A64
:102E50000AEA020A0AFA0CFA4FF0010B0BFA0CFB11
:102E6000ABF1010B0BEA030B4AEA0B042146404687
:102E700000F0C0FDBDE8F09F00BF00F00702064B68
:102E800019684FF6FF031940044B0B4343EA022134
:102E9000014B196000BF70470CED00E00000FA051F
:102EA00070B504460D4600269048006800F00F00FB
:102EB000A8427ED28D490D700846006800F00F00D0
:102EC000A84201D0012070BD207800F00200022845
:102ED00007D18748006820F0F000A16808438449C2
:102EE0000860207800F0010000283BD060680128CD
:102EF00007D17F4808380068C0F34040A0B90120DE
:102F0000E1E76068022807D1794808380068C0F313
:102F1000406048B90120D6E7754808380068C0F31A
:102F2000400008B90120CEE77148006820F0030096
:102F3000616808436E490860FFF71CFF0646606839
:102F4000012810D108E0FFF715FF801B41F28831FE
:102F5000884201D90320B6E76548006800F00C00FC
:102F60000428F0D1A2E06068022810D108E0FFF741
:102F700001FF801B41F28831884201D90320A2E77A
:102F80005B48006800F00C000828F0D18EE009E0F2
:102F9000FFF7F0FE801B41F28831884202D90320FE
:102FA00091E706E05248006800F00C000028EFD1DD
:102FB0007CE0207800F00200022807D14C4800682D
:102FC00020F0F000A168084349490860207800F02B
:102FD0000100002860D06068012807D14448083803
:102FE0000068C0F34040A0B901206CE76068022887
:102FF00007D13F4808380068C0F3406048B9012055
:1030000061E73B4808380068C0F3400008B9012078
:1030100059E73748006820F00300616808433449E5
:103020000860FFF7A7FE06466068012810D108E097
:10303000FFF7A0FE801B41F28831884201D90320AE
:1030400041E72B48006800F00C000428F0D123E091
:103050006068022810D108E0FFF78CFE801B41F267
:103060008831884201D903202DE72148006800F00B
:103070000C000828F0D10FE008E0FFF77BFE801B72
:1030800041F28831884201D903201CE718480068C2
:1030900000F00C000028F0D114490D7008460068BB
:1030A00000F00F00A84201D001200CE7207800F0CA
:1030B0000400042807D10E48006820F4E050E168BD
:1030C00008430B490860207800F00800082808D160
:1030D0000748006820F46040216940EAC1000449C3
:1030E00008600F20FFF76AFE0020ECE6003C02407B
:1030F0000838024000B500F045F80949096801F0B8
:10310000F001F02292FAA2F2B2FA82F2D140054A1C
:10311000515CC840044908600846006800BD0000D2
:1031200008380240B74C00081C00002000B5FFF72B
:10313000E1FF0749096801F4E0514FF4E05292FAC7
:10314000A2F2B2FA82F2D140024A515CC84000BDFC
:1031500008380240B74C000800B5FFF7CBFF07491D
:10316000096801F460414FF4604292FAA2F2B2FAA7
:1031700082F2D140024A515CC84000BD083802408A
:10318000B74C000870B500210022002300202B4C12
:10319000246804F00C0424B1042C04D0082C48D179
:1031A00003E0274847E0274845E0244C241F2468D3
:1031B00004F03F01214C241F246804F480044FF4E0
:1031C000800595FAA5F5B5FA85F5EC4084B11D4C5E
:1031D000B4FBF1F5194C241F246847F6C07634403F
:1031E00096FAA6F6B6FA86F6F44005FB04F20FE06E
:1031F000134CB4FBF1F5114C241F246847F6C0763C
:10320000344096FAA6F6B6FA86F6F44005FB04F2C8
:103210000A4C241F246804F440344FF4403595FAD6
:10322000A5F5B5FA85F5EC40641C6300B2FBF3F03C
:1032300001E0034800BF00BF70BD00000838024035
:103240000024F40000127A0070B5044600252078AE
:1032500000F00100002867D0F648006800F00C007C
:1032600004280DD0F348006800F00C00082813D1A2
:10327000F048001F006800F48000B0F5800F0BD10B
:10328000EC4808380068C0F3404000284CD0606823
:10329000012849D0012070BD0020E649891F08702F
:1032A000FFF768FD054608E0FFF764FD401B41F2AB
:1032B0008831884201D90320EDE7DE4808380068EC
:1032C000C0F340400028EFD12079DA49891F087007
:1032D0006068012814D1FFF74DFD054608E0FFF7AF
:1032E00049FD401B41F28831884201D90320D2E7D1
:1032F000D04808380068C0F340400028EFD013E001
:10330000FFF738FD054608E0FFF734FD401B41F2AA
:103310008831884201D90320BDE7C64808380068D3
:10332000C0F340400028EFD1207800F002000228CE
:1033300069D1C048006800F00C0058B1BD48006871
:1033400000F00C00082821D1BA48001F006800F4E2
:103350008000D8B9B74808380068C0F3400020B1F1
:10336000E068012801D0012095E7B24808380068DC
:1033700020F0F800F82292FAA2F2B2FA82F2216961
:1033800091400843AB49083908603CE0E06828B345
:103390000120A9490860FFF7EDFC054606E0FFF7AC
:1033A000E9FC401B642801D9032074E7A1480838D0
:1033B0000068C0F340000028F1D09E48083800683B
:1033C00020F0F800F82292FAA2F2B2FA82F2216911
:1033D0009140084397490839086014E00020964955
:1033E0000860FFF7C7FC054606E0FFF7C3FC401B7B
:1033F000642801D903204EE78E4808380068C0F3DE
:1034000040000028F1D1207800F0080008282CD1D5
:103410006069A8B1012089490860FFF7ABFC054647
:1034200006E0FFF7A7FC401B642801D9032032E720
:1034300080486C300068C0F340000028F1D014E0F0
:1034400000207E490860FFF795FC054606E0FFF77F
:1034500091FC401B642801D903201CE775486C309F
:103460000068C0F340000028F1D1207800F004008B
:10347000042866D16F483830006840F080506D49AC
:10348000383108606E48006840F480706C4908600C
:10349000FFF770FC054606E0FFF76CFC401B642854
:1034A00001D90320F7E66648006800F48070002820
:1034B000F2D000205F4968310870FFF75BFC0546D9
:1034C00008E0FFF757FC401B41F28831884201D9E0
:1034D0000320E0E6574868300068C0F34000002849
:1034E000EFD1207A534968310870A068012814D1BF
:1034F000FFF740FC054608E0FFF73CFC401B41F2AB
:103500008831884201D90320C5E64A4868300068FE
:10351000C0F340000028EFD013E0FFF72BFC054676
:1035200008E0FFF727FC401B41F28831884201D9AF
:103530000320B0E63F4868300068C0F34000002830
:10354000EFD1A069F0B33B48006800F00C000828F8
:103550006BD0A069022852D1002037490866FFF7D6
:1035600009FC054606E0FFF705FC401B642801D96D
:10357000032090E62F4808380068C0F34060002818
:10358000F1D1206A40F0005047F6C07292FAA2F2E0
:10359000B2FA82F2616A914008430122A16AC2EB49
:1035A00051014FF4403292FAA2F2B2FA82F2914003
:1035B0000843E16908434FF0706292FAA2F2B2FA4E
:1035C00082F200E033E0E16A914008431949091FA3
:1035D0000860012018490866FFF7CCFB054606E0A5
:1035E000FFF7C8FB401B642801D9032053E61148AC
:1035F00008380068C0F340600028F1D017E00020D0
:103600000D490866FFF7B6FB054606E0FFF7B2FB7B
:10361000401B642801D903203DE6064808380068AD
:10362000C0F340600028F1D101E0012033E6002022
:1036300031E600000838024000004742800E474251
:103640000070004070B504462546681EB0F1807FCA
:1036500001D301200FE0681E4FF0E02148610F21E7
:103660004FF0FF3000F0C6F900204FF0E0218861F4
:1036700007200861002070BD704710B504460CB9E2
:10368000012010BDA06900B100E000BF94F839002E
:1036900010B9204600F026F8022084F8390020688E
:1036A000C06820F400502168C860204600F0A8FAE5
:1036B0002068006920F49040216808612068406912
:1036C00020F02A00216848612068C06840F400505A
:1036D0002168C860002084F83A00012084F839008D
:1036E0000020CEE710B586B004464448006840F09C
:1036F0000100424908600846006840F00100086087
:103700003E481430006840F010003C491431086015
:103710003A48006840F48000384908604815019034
:1037200002200290012003900220049007200590BF
:1037300001A93348FFF714FA4FF480600190072085
:10374000059001A92E48FFF70BFA2E482E49086074
:103750004FF00060486040212B4881600021C1602B
:103760004FF480610161002141618161C1610162A9
:103770004162032181624FF40001C162891001633B
:10378000FFF768F900BF20482063846300BF1D482D
:1037900078381E4908604FF00060486000211B48DF
:1037A0008160C1604FF480610161002141618161EC
:1037B000C1614FF400310162002141620321816245
:1037C0004FF40001C16289100163FFF743F900BFA4
:1037D0000E486063846300BF012200214620FFF78A
:1037E0000DFB4620FFF7FDFA002211463A20FFF7B5
:1037F00005FB3A20FFF7F5FA06B010BD303802405D
:1038000000000240B8640240200100207001002046
:10381000F7B504461546002794F83970012F01D0FA
:10382000122F3DD1019800B10DB90120FEBD00BF9E
:1038300094F83800012801D10220F7E7012084F82C
:10384000380000BF0198A062A585002084F83A00E6
:1038500094F83900122803D1322084F8390002E0AC
:10386000222084F839000F48616BC8630E48616BF1
:1038700008640E48616B886401AE32682368191DC4
:103880002B46606BFFF724F92068406940F0400048
:103890002168486100BF002084F8380000BFC5E7F8
:1038A0000220C3E7413B00087F3B00081D3B0008A6
:1038B0000121014A11707047350000207047000057
:1038C000F7B504461546002794F83970012F01D04A
:1038D000222F3ED1019800B10DB90120FEBD00BFDD
:1038E00094F83800012801D10220F7E7012084F87C
:1038F000380000BF01982062A584E584002084F888
:103900003A0094F83900222803D1322084F8390093
:1039100002E0122084F839000F48216BC8630F4879
:10392000216B08640E48216B886401AE23681A1D60
:1039300031682B46206BFFF7CBF82068406940F0D8
:1039400080002168486100BF002084F8380000BF73
:10395000C4E70220C2E700008D3B0008F13B0008ED
:103960001D3B00080121014A1170704734000020FE
:10397000704700BFFEE700000348006840F0010008
:1039800001490860704700003038024010B500203F
:103990000B4981F839000B4808604FF41650486015
:1039A000002107488160C16001610C214161002153
:1039B0008161C161FFF761FE08B1FCF72CFD10BD0C
:1039C000E40000200010014000BFFEE77047000047
:1039D00002480068C0F30220704700000CED00E0D0
:1039E00002490143024A1160704700000000FA05D5
:1039F0000CED00E010B5002807DA0A07140E054A9E
:103A000000F00F031B1FD45403E00A07130E024AF1
:103A1000135410BD18ED00E000E400E000BF0220E8
:103A2000FCF7C6FC4FF4FA7000F0A1FB0220FCF793
:103A3000AFFC4FF4FA7000F09AFBF0E700B591B0DC
:103A40001B48006840F08050194908601948006818
:103A500040F4404017490860012000900190022086
:103A6000069041050791082108914FF4A87109912A
:103A700002210A9107210B916846FFF7E5FB08B187
:103A8000FCF7C9FC0F200C9002200D9000200E9036
:103A90004FF4A0500F904FF48050109005210CA8C7
:103AA000FFF7FEF908B1FCF7B6FC11B000BD00004D
:103AB00040380240007000401448006840F4700034
:103AC000124908601248006840F00100104908607F
:103AD00000200F49083108600D4800680D49084072
:103AE0000B4908600C48091D0860081F006820F495
:103AF0008020091F0860002005490C3108604FF044
:103B000000600249803908607047000088ED00E0DD
:103B100000380240FFFFF6FE1030002470B5054665
:103B2000AC6B00202634208120800120E074207DB1
:103B300040F010002075263C2046FFF79DFD70BD2B
:103B400070B50546AC6B2868006800F4807090B9C9
:103B50000020E0852068406920F04000216848612D
:103B600094F83900322803D1122084F8390002E099
:103B7000012084F839002046FFF79AFE70BD70B529
:103B80000446A56B2846FFF799FE70BD70B5054643
:103B9000AC6B2868006800F4807028BB0020E084CB
:103BA0002068406920F080002168486145F2F053A8
:103BB00000224021204600F037F930B1032084F87C
:103BC00039002046FFF758FD11E094F839003228FB
:103BD00003D1222084F8390002E0012084F8390062
:103BE0002046FFF7BFFE02E02046FFF7BBFE70BD98
:103BF00070B50446A56B2846FFF7BAFE70BD0000FD
:103C00002DE9F04104460025A06900B100BF2068FD
:103C1000056925F44055E068054320680561206882
:103C2000C56849F20C6085432169A0680843616951
:103C30000843E169084305432068C5602068456979
:103C400025F44075A069054320684561E069B0F539
:103C5000004F72D172492068884203D071492068B0
:103C6000884234D1FFF778FA00EBC00101EB001075
:103C700061684900B0FBF1F06421B0FBF1F6FFF799
:103C80006BFA00EBC00101EB001061684900B0FB6A
:103C9000F1F7FFF761FA00EBC00101EB001061687A
:103CA0004900B0FBF1F06421B0FBF1F000EBC00182
:103CB00001EB0010A7EB8000322101EB0010642122
:103CC000B0FBF1F066F31F1021688860A6E0FFF7F3
:103CD0002DFA00EBC00101EB001061684900B0FB58
:103CE000F1F06421B0FBF1F6FFF720FA00EBC00120
:103CF00001EB001061684900B0FBF1F7FFF716FA1D
:103D000000EBC00101EB001061684900B0FBF1F06D
:103D10006421B0FBF1F000EBC00101EB0010A7EB58
:103D20008000322101EB00106421B0FBF1F066F35A
:103D30001F102168886071E0FFE7394920688842D8
:103D400003D038492068884234D1FFF705FA00EBE8
:103D5000C00101EB001061688900B0FBF1F0642143
:103D6000B0FBF1F6FFF7F8F900EBC00101EB001032
:103D700061688900B0FBF1F7FFF7EEF900EBC001D5
:103D800001EB001061688900B0FBF1F06421B0FB29
:103D9000F1F000EBC00101EB0010A7EB8000322135
:103DA00001EB00106421B0FBF1F066F31F102168F5
:103DB000886033E0FFF7BAF900EBC00101EB0010B7
:103DC00061688900B0FBF1F06421B0FBF1F6FFF708
:103DD000ADF900EBC00101EB001061688900B0FB98
:103DE000F1F7FFF7A3F900EBC00101EB00106168E8
:103DF0008900B0FBF1F06421B0FBF1F000EBC001F1
:103E000001EB0010A7EB8000322101EB00106421D0
:103E1000B0FBF1F066F31F1021688860BDE8F08107
:103E200000100140001401402DE9F04104460E4607
:103E300017461D464FF00008FEF79CFF80469FBBCB
:103E40002BE0681C48B32DB1FEF794FFA0EB0800EF
:103E5000A84222D92068C06820F080002168C8608C
:103E60002068C06820F020002168C8602068C06811
:103E700020F480702168C8602068406920F001004B
:103E800021684861012084F8390000BF002084F8CF
:103E9000380000BF0320BDE8F08120680068304092
:103EA000B04202D1012001E003E000200028C8D088
:103EB00035E02AE0681C40B32DB1FEF75BFFA0EBB4
:103EC0000800A84221D92068C06820F0800021683D
:103ED000C8602068C06820F020002168C8602068A1
:103EE000C06820F480702168C8602068406920F0B4
:103EF000010021684861012084F8390000BF0020DA
:103F000084F8380000BF0320C5E72068006830400F
:103F1000B04201D1012000E000200028CAD10020D9
:103F2000B9E702460020B1F5007F00D100BF136859
:103F30000B400BB1012000E000207047C1F30802E4
:103F40004260704788B024A103C9CDE9060124A1CD
:103F500003C9CDE9040124A0D0E900128068CDE9AD
:103F60000112039000BF082222492348FFF750FCAA
:103F700008B1FCF750FA02E0642000F0F8F81F489E
:103F800000780128F8D1072206A91A48FCF7A6F9FB
:103F900028B900201A49087001201A490870072220
:103FA00004A91448FCF79AF928B9012014490870AB
:103FB000002014490870082201A90E48FCF78EF968
:103FC00028B902200E49087001200E49087000200F
:103FD0000A490870C7E7000053656E64696E6700A0
:103FE0004E6F7453656E640053656E644F6E636507
:103FF0000000000081000020E400002035000020C7
:10400000360000203400002000BF1648007820B1A0
:1040100001280BD0022816D109E048221249134882
:10402000FFF74EFC08B1FCF7F6F90DE00CE00822B2
:104030000F490E48FFF744FC08B1FCF7ECF90120EA
:104040000849087000E000BF00BF02E0642000F0F3
:104050008EF8084800780128F8D10020054908703A
:10406000D3E700003600002038000020E4000020E4
:10407000810000203400002000BFFEE702E008C8F5
:10408000121F08C1002AFAD170477047002001E0D2
:1040900001C1121F002AFBD17047000010B5044671
:1040A00021460548FFF74AFF00BF40210248FFF7BD
:1040B00038FF0028F9D010BD0010014090B000F08A
:1040C000E9F9FEF75DFEFFF7B9FC0320FCF726F9DE
:1040D0000020FCF723F90120FCF720F90220FCF76F
:1040E0001DF9FFF749FCFFF751FC2120FFF7D6FF30
:1040F0002220FFF7D3FF2320FFF7D0FF2420FFF774
:10410000CDFF2520FFF7CAFF2620FFF7C7FF272096
:10411000FFF7C4FF142211490BA8FCF7BBF81422C7
:104120000E49143106A8FCF7B5F814220B492831C2
:1041300001A8FCF7AFF800210BA800F030F800212F
:1041400006A800F02CF8002101A800F028F80021B2
:10415000084600F018F800BFFEE70000C84C000851
:1041600001460020842901D0CA1C1044704770B554
:10417000044625460DB1294600E00121084600F01D
:10418000D5FA002070BD70B504460D461CB1294615
:10419000204600F004F800F0E5FA002070BD70B58C
:1041A00086B004460D46B4F90800FFF7D9FF06466D
:1041B000002005AACDE9012000960390238A9AB237
:1041C0002B46D4E9001000F0B1FB059806B070BD95
:1041D00010B504460E48006844600E4800688442EA
:1041E00007D20B480168091D0B48006800F000FA6F
:1041F0000CE007480168091D0848006800F0F8F95C
:1042000007480068844201D20548046010BD0000E0
:104210008C000020A00000209400002090000020CE
:10422000C000002070B505460E46502000F04CF945
:10423000044694B11EB9A80000F046F900E03046EB
:104240002063206B20B9204600F018FA002404E017
:10425000A900A522206BFCF72FF8204670BD0000B6
:1042600070B523E000F0A8FA1348006808B90120EF
:1042700000E00020054600F0A5FCBDB900F0DEF925
:104280000D48C068C468201D00F08EF90B48006816
:10429000401E0A4908600A480068401E0849086034
:1042A00000F0DCF9204600F00DF800BF044800687B
:1042B0000028D7D170BD0000280300209C000020FA
:1042C0009800002010B50446206B00F0D7F9204676
:1042D00000F0D4F910BD000070B5194820F00704B3
:1042E0001848046000201749486043F6F830261843
:1042F000083E15480660007800F0070008B9012064
:1043000000E0002018B9FBF7A5FF00BFFEE7002082
:104310000D49096848600C4909680860254643F65C
:10432000F03068600848006828600848006808386D
:10433000064908604FF000400549086070BD000064
:1043400058030020D0000020D8000020DC0000200E
:10435000E000002000BFFFF783FF0348006801284A
:10436000F9D900F0D7F9F6E7600200202DE9F0470F
:1043700004460F4615469946DDF82080002607E0E2
:10438000B95D04F134008155B85D00B902E0761CD6
:10439000102EF5D300BF002143200155072D00D377
:1043A0000625E562E564201D00F01FF904F1180000
:1043B00000F01BF92461C5F10700A0616462BDE84B
:1043C000F087000010B5002407E004EB84010F4AD9
:1043D00002EB810000F0FCF8641C072CF5D30C48BC
:1043E00000F0F6F80B4800F0F3F80B4800F0F0F896
:1043F0000A4800F0EDF80A4800F0EAF804480949D4
:10440000086004480849086010BD000060020020F0
:10441000EC020020000300201403002028030020E9
:104420003C030020900000209400002010B50146BD
:10443000164800E0006803688B42FBD302464368DD
:1044400013448B4204D143684C68234443600146C3
:104450000A464B6813440468A34211D10C4C03680C
:104460002468A34208D04B680468646823444B6006
:1044700003681B680B6005E0054B1B680B6001E0DF
:1044800003680B60884200D0016010BDD00000209E
:10449000D800002010B5FFF70FFB4FF44070FFF776
:1044A0009FFA10BD07480068401C08B9012000E0D1
:1044B000002018B9FBF7CEFE00BFFEE7FBF7CAFEEF
:1044C00000BFFEE7C40000202DE9F04105464FF093
:1044D000000800F071F92648006808B9FFF7FCFEF3
:1044E00024480068284000283CD145B1083505F033
:1044F000070020B105F00700C0F1080005448DB3A6
:104500001D48006885422DD81C4E3046046801E0E5
:10451000264624686068A84202D220680028F7D1A5
:104520001348006884421DD0306800F108082068F4
:1045300030606068401B102807D967196068401B0D
:10454000786065603846FFF771FF0B49606809685D
:10455000081A0949086007496068096808436060EB
:104560000020206000F02EFB4046BDE8F0810000F6
:10457000D8000020E0000020DC000020D000002057
:10458000001F4FF080730360001F0160001F054B88
:10459000036014380260001F6FF0020303602038CC
:1045A00070470000A54400080146D1E90130986039
:1045B000D1E9010358600A695068884201D18868CE
:1045C0005060002008611068401E1060106870473D
:1045D00000F1080141604FF0FF31816000F10801F6
:1045E000C1600161002101607047002101617047D5
:1045F00010B502460B685C1C0CB9106907E002F1AB
:10460000080000E04068446824689C42FAD9446885
:104610004C604C68A160886041600A611468641C49
:10462000146010BD42684A6093688B60936859605B
:104630009160086103685B1C0360704710B5FBF76D
:1046400009FE05480068401C03490860BFF34F8F0E
:10465000BFF36F8F10BD0000C400002010B50648E6
:104660000068401E044908600846006810B9002030
:10467000FBF7F7FD10BD0000C400002070B5064632
:104680003546002E31D0083D2C461849606809682F
:10469000084008B1012000E0002018B9FBF7DAFD5E
:1046A00000BFFEE7206808B9012000E0002018B92B
:1046B000FBF7D0FD00BFFEE70C49606809680840C1
:1046C00098B1206888B909496068096888436060C2
:1046D00000F072F8064960680968084404490860F7
:1046E0002046FFF7A3FE00F06DFA70BDE000002049
:1046F000DC000020064800684FF47A71B0FBF1F04E
:10470000401E4FF0E021486107200861704700001B
:104710001C0000204FF0805003490860BFF34F8F0A
:10472000BFF36F8F7047000004ED00E070B50446E2
:1047300000267CB100F040F80848006805190848D8
:104740000068001DFFF730FF2846FFF741FD00F02D
:1047500039FA06460EB9FFF7DDFF70BDA000002054
:104760008C0000201FB500200090019002900346AD
:1047700080220CA103900D4800F0D8F80446012CCB
:104780000AD1FBF767FD01200949086000200949AB
:10479000086000F061F804E01CB9FBF75BFD00BFA6
:1047A000FEE71FBD49444C4500000000554300088A
:1047B000A8000020A000002002480068401C014919
:1047C00008607047AC00002010B51E48006818B1A2
:1047D00001201D49086033E000201B4908600BE000
:1047E0001A48006818B9FBF735FD00BFFEE7174807
:1047F0000068401E154908601448006800EB8000FE
:10480000134951F8200008B9012000E000200028D9
:10481000E6D10E49096801EB81010D4A02EB8100E6
:1048200041684968416000F1080142688A4202D14A
:104830004168496841604168C968064A116000BF23
:1048400010BD0000AC000020B4000020A400002037
:10485000600200208C0000201CB526480146097823
:104860000191FF21024611700146097800919DF8DF
:10487000001001F05001204A117007211F4A1160F9
:1048800009E01E490968491E1C4A11609DF8001084
:104890004906090E00919DF8001001F08001802961
:1048A000EFD0164909680902144A116011460988B7
:1048B00001F4E06111600F4A01991170104800681D
:1048C00040F470000E4908600846006840F07040EF
:1048D0000860FFF70FFF00200A490860FBF788FC1B
:1048E0000948006840F0404007490860FBF776FC43
:1048F00000201CBD00E400E0C8000020CC00002027
:1049000020ED00E0C400002034EF00E010B5FBF71C
:10491000A1FC00F0A7F818B14FF0805002490860E0
:104920000020FBF79EFC10BD04ED00E02DE9FF4FD9
:1049300081B0804616469A46DDE90E5BB8F1000F5D
:1049400003D1FBF787FC00BFFEE7072D01D2012052
:1049500000E0002018B9FBF77DFC00BFFEE7304601
:104960001099FFF75FFC0446002C5CD0701E216B91
:1049700001EB800929F0070909F0070008B90120B7
:1049800000E0002018B9FBF765FC00BFFEE70096C9
:104990002A462046119B0299FFF7E8FC5246414601
:1049A0004846FFF7EDFD2060BBF1000F01D0CBF8CA
:1049B0000040FFF743FE25480068401C234908607B
:1049C0002348006840B9224804600846006801286E
:1049D0000CD1FFF7F7FC09E01E48006830B91C480D
:1049E0000068C06AA84201D8194804601A480068E3
:1049F000401C194908600846006860641749E06A6D
:104A00000968884202D91549E06A0860E16A01EB49
:104A10008101134A02EB8100211DFFF703FE0127EC
:104A2000FFF71CFE01E04FF0FF37012F09D10948C5
:104A3000006830B106480068C06AA84201D2FFF79A
:104A400069FE384605B0BDE8F08F00009C000020EC
:104A50008C000020A8000020BC000020A400002042
:104A6000600200202DE9F0414FF000084A4800683C
:104A7000002874D149480068401C4849086008462D
:104A800006686EBB46480068006808B9012000E06F
:104A9000002018B9FBF7DEFB00BFFEE740480768BF
:104AA000404800683E4908603E4807603E4800684C
:104AB000401C3D4908603A480068006808B9012078
:104AC00000E0002020B14FF0FF303849086006E0D8
:104AD00033480068C068C46834496068086000BF33
:104AE0003248006886423CD300BF2D480068006809
:104AF00008B9012000E0002020B14FF0FF302B4921
:104B000008602DE026480068C068C4686568AE4249
:104B100002D22648056023E0201DFFF745FDA06A6C
:104B200018B104F11800FFF73FFD2149E06A096858
:104B3000884202D91E49E06A0860E16A01EB8101FE
:104B40001C4A02EB8100211DFFF76CFD1A49E06A47
:104B50000968C96A8842C8D34FF00108C5E70DE06B
:104B600000BF15480068C06A00EB8000114951F889
:104B70002000012807D94FF0010804E00F48006821
:104B8000401C0E4908600E48006808B14FF001084B
:104B90004046BDE8F0810000AC000020A0000020ED
:104BA0009000002094000020B8000020C0000020E9
:104BB000A4000020600200208C000020B000002033
:104BC000B400002070B500253048006818B9FBF724
:104BD00041FB00BFFEE7FFF731FD2C480068401E97
:104BE0002A4908600846006800284AD12848006819
:104BF000002846D023E02748C068C46804F11800A4
:104C0000FFF7D2FC201DFFF7CFFC2349E06A0968BB
:104C1000884202D92049E06A0860E16A01EB81011B
:104C20001E4A02EB8100211DFFF7FCFC1C49E06AD3
:104C30000968C96A884202D301201A4908601548E8
:104C4000006808B9012000E000200028D3D01648F1
:104C5000006878B10AE0FFF705FF10B101201149A3
:104C6000086011480068401E0F4908600E4800683F
:104C70000028F0D10B480068012802D10125FFF778
:104C800049FDFFF7EBFC284670BD0000AC0000209A
:104C90009C00002014030020A400002060020020DB
:104CA0008C000020B4000020B000002001000200B1
:104CB00002000800010006000000000102030401D8
:104CC0000203040607080900044D00081D3A000805
:104CD000000000000000000080000000244D0008DB
:104CE00009400008000000000000000080000000F3
:104CF000104D0008453F00080100000000000000C2
:104D000080000000555345525F546872656164002D
:104D1000556172745F52785468726561645F4E6168
:104D20006D650000556172745F54785468726561F6
:104D3000645F4E616D650000584D00080000002062
:104D4000E40000007C4000083C4E0008E400002025
:104D50006C4200008C40000800080240000802403D
:104D60000000024000140240000002400010000059
:104D7000001000000024F40000000000000000000B
:104D800001020304060708090000000000000000FB
:104D9000202A2A2A2A554152545F54776F426F6164
:104DA00072647320636F6D6D756E69636174696F92
:104DB0006E206261736564206F6E20444D412A2A23
:104DC0002A2A200A20486F772061726520796F7542
:104DD00020746F6461793F0A000000000000000049
:104DE00000000000000000000000000000000000C3
:104DF00000000000000000000000000000000000B3
:104E000000000000000000000000000000000000A2
:104E10000000000000000000FFFFFFFFAAAAAAAAEE
:104E20000000000000000000000000000000000082
:0C4E300000000000F83B00000000000043
:04000005080001AD41
:00000001FF
