:020000040800F2
:1000000060BB00207102000835400008DB3F00089B
:1000100031400008E50900089B4500080000000089
:10002000000000000000000000000000C101000806
:10003000290A000800000000050200083D560008DB
:100040008B0200088B0200088B0200088B0200085C
:100050008B0200088B0200088B0200088B0200084C
:100060008B0200088B020008550A00088B0200086A
:100070008B0200088B0200088B0200088B0200082C
:100080008B0200088B0200088B0200088B0200081C
:100090008B0200088B0200088B0200088B0200080C
:1000A0008B0200088B0200088B0200088B020008FC
:1000B0008B0200088B0200088B0200088B020008EC
:1000C0008B0200088B0200088B0200088B020008DC
:1000D0008B0200088B0200088B0200088B020008CC
:1000E0008B0200088B0200088B0200088B020008BC
:1000F0008B0200088B0200088B0200088B020008AC
:100100008B0200088B0200088B0200088B0200089B
:100110008B0200088B0200088B0200088B0200088B
:100120008B0200088B020008E90900088B02000816
:100130008B0200088B0200088B0200088B0200086B
:100140008B0200088B0200088B0200088B0200085B
:100150008B0200088B020008F90900088B020008D6
:100160008B0200088B0200088B0200088B0200083B
:100170008B0200088B0200088B0200088B0200082B
:100180008B0200088B0200088B0200088B0200081B
:100190008B0200088B0200088B0200088B0200080B
:1001A0008B0200088B0200088B020008DFF80CD0DD
:1001B00000F094F8004800471147000860BB002099
:1001C000234B19680868B0E8F04F80F309884FF0B6
:1001D000000080F3118870470000000003480068A9
:1001E000006880F3088862B600DF00BF08ED00E019
:1001F000DFF80C00016841F470010160704700BF36
:1002000088ED00E0EFF30980114B1A681EF0100F23
:1002100008BF20ED108A20E9F04F106008B44FF0BD
:10022000500080F3118805F067F94FF0000080F36B
:10023000118808BC19680868B0E8F04F1EF0100F6C
:1002400008BFB0EC108A80F30988704700BF00BF78
:10025000F0030020EFF311804FF0500181F311887B
:10026000704780F311887047EFF3058070470000F6
:100270000648804706480047FEE7FEE7FEE7FEE740
:10028000FEE7FEE7FEE7FEE7FEE7FEE77D4100084A
:10029000AD01000840EA01039B0703D009E008C94B
:1002A000121F08C0042AFAD203E011F8013B00F83B
:1002B000013B521EF9D27047D2B201E000F8012B87
:1002C000491EFBD270470022F6E710B513460A46D6
:1002D00004461946FFF7F0FF204610BD064C074DB7
:1002E00006E0E06840F0010394E807009847103406
:1002F000AC42F6D3FFF75EFF2C6000084C600008AC
:1003000070B58C1810F8015B15F0070301D110F8D7
:10031000013B2A1106D110F8012B03E010F8016B04
:1003200001F8016B5B1EF9D12B0705D40023521E87
:100330000DD401F8013BFAE710F8013BCB1A921CEF
:1003400003E013F8015B01F8015B521EF9D5A142ED
:10035000D8D3002070BD10B50A2003F08AF810BD74
:1003600010B5002205210A2003F090F810BD00000E
:1003700010B500F0F1F901221103664803F03CF8D2
:1003800000F0A6FA01220821634803F035F8C820DE
:1003900000F04BFB00222021604803F02DF8C8201C
:1003A00000F043FB012220215C4803F025F80221E4
:1003B000002000F0B1F90021032000F0ADF940F277
:1003C000CF71042000F0A8F94FF47A61092000F001
:1003D000A3F941F26F710A2000F09EF9502101202B
:1003E00000F09AF940F2CE71022000F095F94FF436
:1003F0007F61072000F090F941F26E71082000F053
:100400008BF94FF40261052000F086F940F69E71E9
:10041000062000F081F94FF4BE510B2000F07CF96A
:1004200041F63E710C2000F077F940F2D6710D20B4
:1004300000F072F940F69F710E2000F06DF94FF454
:10044000FA61152000F068F940F2D571162000F02D
:1004500063F940F6A6710F2000F05EF941F26F716A
:10046000102000F059F94FF47A61172000F054F988
:1004700040F6A571182000F04FF941F27671112075
:1004800000F04AF941F63F71122000F045F941F2BF
:100490007071192000F040F941F275711A2000F0D6
:1004A0003BF941F64671132000F036F942F20F7124
:1004B000142000F031F94FF4FA511B2000F02CF910
:1004C00041F645711C2000F027F949F63F411D20F7
:1004D00000F022F94FF481711E2000F01DF9002177
:1004E000202000F019F9F221212000F015F90C4923
:1004F000222000F011F90B49232000F00DF9012111
:10050000002000F009F91D2000F010F806490860ED
:1005100010BD00000004024000200240000C024018
:10052000FFFF0100000902006400002070B50546CD
:1005300000224FF480510D4802F05EFF284603F080
:10054000B5FDFF2003F0B2FD04462402FF2003F0B6
:10055000ADFD04442402FF2003F0A8FD0444012261
:100560001103024802F048FF204670BD000402401B
:1005700070B5054600224FF40041194802F03CFFD7
:1005800000224FF48051174802F036FF284603F04E
:100590008DFDFF2003F08AFD04462402FF2003F0B6
:1005A00085FD04442402FF2003F080FD0444012261
:1005B00011030C4802F020FF04F4800010B1A4F1F4
:1005C000807401E0C4F3140442F210716018C11782
:1005D00000EB91718C10002C00DA0024204670BDD5
:1005E000001802400004024010B50121002000F074
:1005F00093F82B20FFF7BCFF4049086008460068CD
:10060000C0F3150008600846006800F4001028B127
:1006100008460068C0F31400086005E03748006829
:1006200000F5800035490860354801680068401CC5
:10063000334A106021F07F40304908602A20FFF7DC
:1006400097FF3049086008460068C0F3150008604D
:100650000846006800F4001028B108460068C0F39E
:100660001400086005E02748006800F5800025496F
:100670000860254801680068401C234A106021F08A
:100680007F40204908602C20FFF772FF1F49086057
:1006900008460068C0F3150008600846006800F4CA
:1006A000001028B108460068C0F31400086005E097
:1006B0001648006800F58000144908601448016875
:1006C0000068401C124A106021F07F400F4908600A
:1006D0000021084600F020F80A48006840F08070C9
:1006E0000C4908600948006840F0407048600348C1
:1006F000006840F000708860084610BD5C00002073
:1007000078000020540000207400002050000020D9
:1007100070000020E874002070B505460C460022E9
:100720004FF480510B4802F067FE284603F0BEFCF0
:10073000C4F3074003F0BAFCC4F3072003F0B6FC8F
:10074000E0B203F0B3FC01221103024802F054FEB0
:1007500070BD00000004024000B585B05548006837
:1007600040F480405349086052481038006840F017
:1007700002005049103908604FF4005000900220E8
:100780000190012002900220039005200490694608
:10079000494802F02DFD47481038006840F0040039
:1007A000444910390860082000900220019001207F
:1007B0000290022003900520049069463F4802F011
:1007C00017FD3C481038006840F0040039491039E2
:1007D0000860042000900220019001200290022075
:1007E0000390052004906946344802F001FD314829
:1007F0001038006840F002002E4910390860881453
:1008000000900120019002900220039069462A483E
:1008100002F0EEFC27481038006840F00800254937
:1008200010390860202000900120019002900220E1
:1008300003906946224802F0DBFC1E48103800682D
:1008400040F480701B491039086008200090012096
:10085000019002900220039069461A4802F0C8FCF9
:1008600014481038006840F0080012491039086038
:100870001020009014480190012002900220039063
:1008800069460F4802F0B4FC0A481038006840F08E
:1008900040000849103908604FF4004000900120E2
:1008A00001900290022003906946084802F0A0FCE3
:1008B00005B000BD4038024000040240000802407C
:1008C000000C0240002002400000111000180240FD
:1008D00000B595B01448006840F4804012490860A3
:1008E0001248009010210791002102910591049176
:1008F0000A9107210B91002103910891411506915E
:10090000002109914FF482700190684603F0E2F9EA
:1009100008B100F0B9F80098006840F04000009974
:10092000086015B000BD00004038024000380040AB
:1009300010B586B0044634B91748006840F004008A
:100940001549086017E0012C06D11348006840F0F3
:100950000400114908600EE0022C06D10E48006820
:1009600040F001000C49086005E00B48006840F0C9
:10097000200009490860094830F81400019001205E
:100980000290039002200490054951F8240001A927
:1009900002F02EFC06B010BD30380240145F000893
:1009A0008003002010B50446044A32F81410044AAB
:1009B00052F82400002202F01FFD10BD145F000851
:1009C0008003002010B50446044A32F81410044A8B
:1009D00052F82400012202F00FFD10BD145F000840
:1009E0008003002000BFFEE710B50249486B00F00D
:1009F0004FF810BDB875002010B50249086B00F023
:100A000047F810BDB875002010B5046863608468AD
:100A1000402C04D10468A2600468E16003E004682B
:100A2000A1600468E26010BD70474FF47A7300FB68
:100A300003F200210BE000BF00BF00BF00BF00BFFA
:100A400000BF00BF00BF00BF00BF00BF491C9142F4
:100A5000F1D3704710B5102002F0BCFB002008490C
:100A6000086000230A4619460648006804F0B8FFEB
:100A700003480068012801D104F03EFD10BD0000CC
:100A8000E8030020AC03002000BFFEE700BFFEE744
:100A900010B50446F949206888425DD9F7485438B2
:100AA0000068F74A2168914201D1082152E0F34AD7
:100AB000483A2168914201D108214BE0F04A603266
:100AC0002168914201D1082144E0EC4A18322168A2
:100AD000914201D108213DE0E94A18322168914252
:100AE00001D1491536E0E54A303A2168914201D1F9
:100AF00049152FE0E24A78322168914201D1491527
:100B000028E0DE4A30322168914201D1491521E0C6
:100B1000DB4A30322168914202D14FF4002119E0C2
:100B2000D64A183A2168914202D14FF4002111E0CF
:100B3000D34A90322168914202D14FF4002109E05A
:100B4000CE4A48322168914202D14FF4002101E09F
:100B50004FF00071084022E1C949A831206888425D
:100B60005DD9C64858380068C54A2168914201D10C
:100B7000082152E0C14A483A2168914201D1082136
:100B80004BE0BF4A60322168914201D1082144E024
:100B9000BA4A18322168914201D108213DE0B84A91
:100BA00018322168914201D1491536E0B34A303AF2
:100BB0002168914201D149152FE0B14A783221686C
:100BC000914201D1491528E0AC4A30322168914266
:100BD00001D1491521E0AA4A30322168914202D15F
:100BE0004FF4002119E0A54A183A2168914202D138
:100BF0004FF4002111E0A24A90322168914202D1C3
:100C00004FF4002109E09D4A48322168914202D107
:100C10004FF4002101E04FF000710840BFE0984917
:100C20004831206888425DD9954810384068944A18
:100C30002168914201D1082152E0904A483A216846
:100C4000914201D108214BE08D4A603221689142E6
:100C500001D1082144E0894A18322168914201D12A
:100C600008213DE0864A18322168914201D1491598
:100C700036E0824A303A2168914201D149152FE08D
:100C80007F4A78322168914201D1491528E07B4A98
:100C900030322168914201D1491521E0784A303241
:100CA0002168914202D14FF4002119E0734A183AA9
:100CB0002168914202D14FF4002111E0704A903234
:100CC0002168914202D14FF4002109E06B4A483279
:100CD0002168914202D14FF4002101E04FF00071F0
:100CE00008405CE0664810380068654A2168914217
:100CF00001D1082152E0614A483A2168914201D16C
:100D000008214BE05E4A60322168914201D10821FE
:100D100044E05A4A18322168914201D108213DE04D
:100D2000574A18322168914201D1491536E0534A99
:100D3000303A2168914201D149152FE0504A78326A
:100D40002168914201D1491528E04C4A303221688E
:100D5000914201D1491521E0494A3032216891423E
:100D600002D14FF4002119E0444A183A2168914217
:100D700002D14FF4002111E0414A903221689142A2
:100D800002D14FF4002109E03C4A483221689142E7
:100D900002D14FF4002101E04FF00071084000281B
:100DA00070D02068006800F004000028F8D02068A7
:100DB000006820F0040021680860304920688842FB
:100DC00061D92F492068884201D1082052E02B497F
:100DD00048392068884201D108204BE02849603119
:100DE0002068884201D1082044E024491831206855
:100DF000884201D108203DE021491831206888420D
:100E000001D1401536E01D4930392068884201D1B2
:100E100040152FE01A4978312068884201D14015E9
:100E200028E0164930312068884201D1401521E080
:100E3000134930312068884202D14FF4002019E074
:100E40000E4918392068884202D14FF4002011E081
:100E50000B4990312068884202D14FF4002009E00C
:100E6000064948312068884202D14FF4002001E051
:100E70004FF0007001494C39086023E1586402408A
:100E8000106002402FE1F849206888425CD9F64999
:100E9000A8392068884201D1082051E0F349206830
:100EA000884201D108204BE0EF4948392068884248
:100EB00001D1082044E0ED4960312068884201D129
:100EC00008203DE0E84990392068884201D140156A
:100ED00036E0E64918312068884201D140152FE0FC
:100EE000E14930392068884201D1401528E0DF49C6
:100EF00078312068884201D1401521E0DA497839FB
:100F00002068884202D14FF4002019E0D7493031DF
:100F10002068884202D14FF4002011E0D2491839EC
:100F20002068884202D14FF4002009E0CF49903177
:100F30002068884202D14FF4002001E04FF0007099
:100F4000CA4908390860BDE0C7496039206888424D
:100F50005CD9C549A8392068884201D1082051E0F0
:100F6000C2492068884201D108204BE0BE49483977
:100F70002068884201D1082044E0BC4960312068E3
:100F8000884201D108203DE0B74990392068884265
:100F900001D1401536E0B54918312068884201D1A9
:100FA00040152FE0B04930392068884201D1401502
:100FB00028E0AE4978312068884201D1401521E00F
:100FC000A94978392068884202D14FF4002019E0FD
:100FD000A64930312068884202D14FF4002011E048
:100FE000A14918392068884202D14FF4002009E055
:100FF0009E4990312068884202D14FF4002001E0E0
:101000004FF000709849B839C8605BE09649A8393C
:101010002068884201D1082051E094492068884224
:1010200001D108204BE0904948392068884201D11D
:10103000082044E08D4960312068884201D10820B1
:101040003DE0894990392068884201D1401536E059
:10105000864918312068884201D140152FE0824925
:1010600030392068884201D1401528E07F49783125
:101070002068884201D1401521E07B4978392068F9
:10108000884202D14FF4002019E0784930312068BD
:10109000884202D14FF4002011E0734918392068CA
:1010A000884202D14FF4002009E070499031206855
:1010B000884202D14FF4002001E04FF000706A49ED
:1010C000B8398860E06C40F00100E064042084F8E6
:1010D000350000BF002084F8340000BFA06C10B1C0
:1010E0002046A16C884761494831206888425DD913
:1010F0005E480C3800685C4AA83A2168914201D1E8
:101100005B4951E0594A2168914201D158494BE06D
:10111000554A483A2168914201D1554944E0534A21
:1011200060322168914201D151493DE04E4A903AE6
:101130002168914201D1402136E04C4A18322168A1
:10114000914201D140212FE0474A303A2168914233
:1011500001D1402128E0454A78322168914201D1ED
:10116000402121E0404A783A2168914202D14FF46F
:10117000803119E03D4A30322168914202D14FF46A
:10118000803111E0384A183A2168914202D14FF477
:10119000803109E0354A90322168914202D14FF402
:1011A000803101E04FF48001084026E12E4920689B
:1011B000884263D92D48103800682B4AA83A216824
:1011C000914201D12A4957E0284A2168914201D130
:1011D000274951E0244A483A2168914201D12449E3
:1011E0004AE0224A60322168914201D1204943E01D
:1011F0001D4A903A2168914201D140213CE01B4AAE
:1012000018322168914201D1402135E0164A303A26
:101210002168914201D140212EE0144A78322168A0
:10122000914201D1402127E00F4A783A216891424A
:1012300002D14FF480311FE00C4A303221689142D4
:1012400002D14FF4803117E0074A183A21689142E1
:1012500002D14FF480310FE0044A9032216891426C
:1012600008D14FF4803107E0B860024010640240BA
:10127000010080004FF480010840BEE0F949206879
:1012800088425DD9F74858384068F64A483A21689C
:10129000914201D1F44951E0F44A2168914201D1CF
:1012A000F1494BE0EF4A18322168914201D1EE49F1
:1012B00044E0EE4A60322168914201D1EA493DE0C2
:1012C000E84A303A2168914201D1402136E0E74AAC
:1012D00018322168914201D140212FE0E14A303299
:1012E0002168914201D1402128E0E04A783221680A
:1012F000914201D1402121E0DA4A183A2168914215
:1013000002D14FF4803119E0D84A3032216891423D
:1013100002D14FF4803111E0D24A48322168914223
:1013200002D14FF4803109E0D04A903221689142D5
:1013300002D14FF4803101E04FF4800108405CE0BD
:10134000C84858380068C74A483A2168914201D1D4
:10135000C54951E0C54A2168914201D1C2494BE0DB
:10136000C04A18322168914201D1BF4944E0BF4AC6
:1013700060322168914201D1BB493DE0B94A303A1F
:101380002168914201D1402136E0B84A18322168E3
:10139000914201D140212FE0B24A3032216891427E
:1013A00001D1402128E0B14A78322168914201D12F
:1013B000402121E0AB4A183A2168914202D14FF412
:1013C000803119E0A94A30322168914202D14FF4AC
:1013D000803111E0A34A48322168914202D14FF492
:1013E000803109E0A14A90322168914202D14FF444
:1013F000803101E04FF480010840002879D0206856
:10140000406900F08000002873D02068406920F017
:1014100080002168486195494831206888425CD93C
:10142000904948392068884201D18F4851E08F495E
:101430002068884201D18C484BE08A4918312068E5
:10144000884201D1884844E0884960312068884258
:1014500001D185483DE0834930392068884201D177
:10146000402036E0814918312068884201D140206F
:101470002FE07C4930312068884201D1402028E0AB
:101480007A4978312068884201D1402021E07549AD
:1014900018392068884202D14FF4803019E073492E
:1014A00030312068884202D14FF4803011E06D491C
:1014B00048312068884202D14FF4803009E06B49FE
:1014C00090312068884202D14FF4803001E04FF41F
:1014D00080006649091F086025E162496031206883
:1014E00088425DD95F4948392068884202D15E4808
:1014F00052E029E15D492068884201D15A484BE019
:10150000584918312068884201D1574844E057496A
:1015100060312068884201D153483DE0514930395B
:101520002068884201D1402036E0504918312068B7
:10153000884201D140202FE04A493031206888425A
:1015400001D1402028E0494978312068884201D102
:10155000402021E0434918392068884202D14FF4E5
:10156000803019E0414930312068884202D14FF47F
:10157000803011E03B4948312068884202D14FF465
:10158000803009E0394990312068884202D14FF417
:10159000803001E04FF48000344908390860C2E02F
:1015A00030492068884263D92E49483920688842EA
:1015B00001D12D4851E02D492068884201D12A48A7
:1015C0004BE0284918312068884201D1264844E080
:1015D000264960312068884201D123483DE02149F5
:1015E00030392068884201D1402036E01F49183147
:1015F0002068884201D140202FE01A49303120680C
:10160000884201D1402028E018497831206888427A
:1016100001D1402021E0134918392068884202D1C5
:101620004FF4803019E0114930312068884202D1EE
:101630004FF4803011E00B4948312068884202D1D4
:101640004FF4803009E0094990312068884202D186
:101650004FF4803001E04FF4800002495839C860EF
:1016600061E005E058600240010080001064024023
:10167000F9492068884201D1F84851E0F8492068CA
:10168000884201D1F5484BE0F34960312068884237
:1016900001D1F24844E0F24960312068884201D12A
:1016A000EE483DE0EC4918312068884201D14020E5
:1016B00036E0EB4918312068884201D140202FE004
:1016C000E54978312068884201D1402028E0E4498A
:1016D00078312068884201D1402021E0DE49303154
:1016E0002068884202D14FF4803019E0DC49303163
:1016F0002068884202D14FF4803011E0D649903101
:101700002068884202D14FF4803009E0D4499031FA
:101710002068884202D14FF4803001E04FF480000D
:10172000CD4910398860E06C40F00200E06404208C
:1017300084F8350000BF002084F8340000BFA06C9E
:1017400010B12046A16C8847C549483120688842BD
:1017500060D9C3480C380068BF4A2168914202D161
:10176000BE49C91C54E0BE4A2168914202D1BB491E
:10177000C91C4DE0B84A60322168914202D1B74994
:10178000C91C45E0B64A60322168914202D1B34992
:10179000C91C3DE0B04A18322168914201D1891537
:1017A00036E0AF4A18322168914201D189152FE005
:1017B000A94A78322168914201D1891528E0A84AC6
:1017C00078322168914201D1891521E0A24A303254
:1017D0002168914202D14FF4802119E0A04A3032B1
:1017E0002168914202D14FF4802111E09A4A90324F
:1017F0002168914202D14FF4802109E0984A903249
:101800002168914202D14FF4802101E04FF08071B4
:10181000084031E19049A8312068884260D9904859
:10182000103800688C4A2168914202D18B49C91C4A
:1018300054E08B4A2168914202D18849C91C4DE08D
:10184000854A60322168914202D18449C91C45E031
:10185000834A60322168914202D18049C91C3DE02F
:101860007D4A18322168914201D1891536E07C4ABF
:1018700018322168914201D189152FE0764A7832D9
:101880002168914201D1891528E0754A7832216892
:10189000914201D1891521E06F4A3032216891428D
:1018A00002D14FF4802119E06D4A30322168914213
:1018B00002D14FF4802111E0674A903221689142B1
:1018C00002D14FF4802109E0654A903221689142AB
:1018D00002D14FF4802101E04FF080710840CBE04D
:1018E0005D4948312068884260D95B4810384068BB
:1018F000594A2168914202D15849C91C54E0584ABA
:101900002168914202D15549C91C4DE0524A6032CA
:101910002168914202D15149C91C45E0504A6032C8
:101920002168914202D14D49C91C3DE04A4A183212
:101930002168914201D1891536E0494A183221685F
:10194000914201D189152FE0434A783221689142B2
:1019500001D1891528E0424A78322168914201D1AB
:10196000891521E03C4A30322168914202D14FF47E
:10197000802119E03A4A30322168914202D14FF475
:10198000802111E0344A90322168914202D14FF413
:10199000802109E0324A90322168914202D14FF40D
:1019A000802101E04FF08071084065E02A4810383E
:1019B0000068294A2168914202D12849C91C5AE08D
:1019C000274A2168914202D12449C91C53E0224A86
:1019D00060322168914202D12049C91C4BE0204A63
:1019E00060322168914202D11C49C91C43E01A4A65
:1019F00018322168914201D189153CE0184A183209
:101A00002168914201D1891535E0134A7832216865
:101A1000914201D189152EE0114A78322168914214
:101A200001D1891527E00C4A30322168914202D158
:101A30004FF480211FE00A4A30322168914202D1DE
:101A40004FF4802117E0044A90322168914209D175
:101A50004FF480210FE00000106002400100800080
:101A600010640240FA4A2168914202D14FF4802169
:101A700001E04FF08071084088B32068006800F0F2
:101A8000020060B32068006820F00200216808604E
:101A9000EF494839206888425CD9EE49206888427D
:101AA00001D1ED4852E0EA4990392068884201D1DD
:101AB000E9484BE0E74960312068884201D1E648B7
:101AC00044E0E34930392068884201D1E2483DE0F2
:101AD000E04918312068884202D1801536E067E17C
:101AE000DB4978392068884201D180152EE0D94938
:101AF00078312068884201D1801527E0D44918390F
:101B00002068884201D1801520E0D2493031206818
:101B1000884202D14FF4802018E0CD496039206816
:101B2000884202D14FF4802010E0CA4990312068E9
:101B3000884202D14FF4802008E0C54920688842DD
:101B400002D14FF4802001E04FF08070C0499439F9
:101B500008601CE1BF49A831206888425BD9BD49B3
:101B60002068884201D1BC4851E0B94990392068C9
:101B7000884201D1B8484AE0B649603120688842BD
:101B800001D1B54843E0B24930392068884201D1DB
:101B9000B1483CE0AF4918312068884201D1801536
:101BA00035E0AB4978392068884201D180152EE0B4
:101BB000A84978312068884201D1801527E0A449DE
:101BC00018392068884201D1801520E0A1493031C0
:101BD0002068884202D14FF4802018E09C49603987
:101BE0002068884202D14FF4802010E0994990315A
:101BF0002068884202D14FF4802008E09449206890
:101C0000884202D14FF4802001E04FF0807090496B
:101C100098390860BBE08F494831206888425BD919
:101C20008C492068884201D18B4851E0884990391D
:101C30002068884201D188484AE08649603120689E
:101C4000884201D1844843E0814930392068884284
:101C500001D181483CE07F4918312068884201D198
:101C6000801535E07A4978392068884201D180159D
:101C70002EE0784978312068884201D1801527E02C
:101C8000734918392068884201D1801520E07149D4
:101C900030312068884202D14FF4802018E06C492E
:101CA00060392068884202D14FF4802010E06949F1
:101CB00090312068884202D14FF4802008E06449C6
:101CC0002068884202D14FF4802001E04FF08070FC
:101CD00060491039C8605AE05E492068884201D1E5
:101CE0005D4851E05A4990392068884201D15A48EC
:101CF0004AE0584960312068884201D1564843E0A3
:101D0000534930392068884201D153483CE0514959
:101D100018312068884201D1801535E04C49783966
:101D20002068884201D180152EE04A497831206828
:101D3000884201D1801527E045491839206888423A
:101D400001D1801520E0434930312068884202D11A
:101D50004FF4802018E03E4960392068884202D163
:101D60004FF4802010E03B4990312068884202D136
:101D70004FF4802008E036492068884202D14FF4B1
:101D8000802001E04FF08070324910398860E06CAB
:101D900040F00400E064042084F8350000BF002017
:101DA00084F8340000BFA06C10B12046A16C8847B5
:101DB000274948392068884262D925489C380068FC
:101DC000244A2168914201D1102157E0204A903ADB
:101DD0002168914201D1102150E01E4A60322168F1
:101DE000914201D1102149E0194A303A21689142CB
:101DF00001D1102142E0174A18322168914201D1E5
:101E000009153BE0124A783A2168914201D109153F
:101E100034E0104A78322168914201D109152DE051
:101E20000B4A183A2168914201D1091526E0094A66
:101E300030322168914202D14FF480111EE0044AF1
:101E4000603A2168914209D14FF4801116E00000F8
:101E5000A06402401060024004008000F74A21683C
:101E6000914202D14FF4801108E0F54A2168914275
:101E700002D14FF4801101E04FF0806108401FE172
:101E8000EE491831206888425CD9ED48A0380068D6
:101E9000EA4A903A2168914201D1102150E0E84A83
:101EA000903A2168914201D1102149E0E34A303A49
:101EB0002168914201D1102142E0E14A303A216883
:101EC000914201D110213BE0DC4A783A21689142ED
:101ED00001D1091534E0DA4A783A2168914201D1FA
:101EE00009152DE0D54A183A2168914201D109150A
:101EF00026E0D34A183A2168914201D109151FE022
:101F0000CE4A603A2168914202D14FF4801117E025
:101F1000CB4A603A2168914202D14FF480110FE020
:101F2000C64A2168914202D14FF4801108E0C44AA8
:101F30002168914202D14FF4801101E04FF080619D
:101F40000840BDE0BD494839206888425CD9BB489B
:101F5000A0384068B94A903A2168914201D11021D5
:101F600050E0B74A903A2168914201D1102149E0EE
:101F7000B24A303A2168914201D1102142E0B04A80
:101F8000303A2168914201D110213BE0AB4A783AC6
:101F90002168914201D1091534E0A94A783A2168B3
:101FA000914201D109152DE0A44A183A21689142C5
:101FB00001D1091526E0A24A183A2168914201D1BF
:101FC00009151FE09D4A603A2168914202D14FF401
:101FD000801117E09A4A603A2168914202D14FF489
:101FE00080110FE0954A2168914202D14FF480118F
:101FF00008E0934A2168914202D14FF4801101E038
:102000004FF0806108405BE08C48A03800688B4A44
:10201000903A2168914201D1102150E0884A903ACB
:102020002168914201D1102149E0844A303A216867
:10203000914201D1102142E0814A303A2168914217
:1020400001D110213BE07D4A783A2168914201D1CB
:10205000091534E07A4A783A2168914201D109158C
:102060002DE0764A183A2168914201D1091526E0FF
:10207000734A183A2168914201D109151FE06F4A4D
:10208000603A2168914202D14FF4801117E06C4A06
:10209000603A2168914202D14FF480110FE0674A03
:1020A0002168914202D14FF4801108E0644A21680E
:1020B000914202D14FF4801101E04FF0806108405D
:1020C000002878D02068006800F00800002872D04E
:1020D0002068006800F48020A8B359494839206876
:1020E00088425CD9554990392068884201D1102036
:1020F00051E0534990392068884201D110204AE0CC
:102100004E4930392068884201D1102043E04C49C3
:1021100030392068884201D110203CE047497839A5
:102120002068884201D1001535E04549783920689A
:10213000884201D100152EE04049183920688842B4
:1021400002D1001527E05FE13D4918392068884237
:1021500001D100151FE0394960392068884202D159
:102160004FF4801017E0364960392068884202D168
:102170004FF480100FE031492068884202D14FF4BB
:10218000801008E02E492068884202D14FF4801068
:1021900001E04FF080602A499439086022E1274924
:1021A00018312068884261D92449903920688842D2
:1021B00002D1102056E0BEE22149903920688842C1
:1021C00001D110204EE01D4930392068884201D1EC
:1021D000102047E01A4930392068884201D1102088
:1021E00040E0164978392068884201D1001539E06D
:1021F000134978392068884201D1001532E00F492F
:1022000018392068884201D100152BE00C49183993
:102210002068884201D1001524E00849603920680F
:10222000884202D14FF480101CE0054960392068D3
:10223000884207D14FF4801014E00000A0600240F3
:10224000A0640240FA492068884202D14FF480100D
:1022500008E0F8492068884202D14FF4801001E07C
:102260004FF08060F34998390860BBE0F049483985
:10227000206888425BD9EE4990392068884201D1B4
:10228000102050E0EB4990392068884201D110209D
:1022900049E0E74930392068884201D1102042E006
:1022A000E44930392068884201D110203BE0E04900
:1022B00078392068884201D1001534E0DD49783949
:1022C0002068884201D100152DE0D94918392068CD
:1022D000884201D1001526E0D64918392068884285
:1022E00001D100151FE0D24960392068884202D12F
:1022F0004FF4801017E0CF4960392068884202D13E
:102300004FF480100FE0CA492068884202D14FF490
:10231000801008E0C7492068884202D14FF480103D
:1023200001E04FF08060C249A039C8605AE0C0495E
:1023300090392068884201D1102050E0BD49903981
:102340002068884201D1102049E0B949303920681D
:10235000884201D1102042E0B649303920688842D5
:1023600001D110203BE0B24978392068884201D180
:10237000001534E0AF4978392068884201D1001552
:102380002DE0AB4918392068884201D1001526E0BC
:10239000A84918392068884201D100151FE0A449D6
:1023A00060392068884202D14FF4801017E0A149BB
:1023B00060392068884202D14FF480100FE09C49B8
:1023C0002068884202D14FF4801008E099492068C3
:1023D000884202D14FF4801001E04FF080609449B0
:1023E000A03988602068006800F4002018B9312006
:1023F00084F835009AE12068006800F4002078B382
:10240000412084F8350091E12068006800F4807074
:1024100028B92068006820F0080021680860854914
:102420004839206888425CD98149903920688842BF
:1024300001D1102051E07F4990392068884201D1B4
:1024400010204AE07A4930392068884201D11020B2
:1024500043E0784930392068884202D110203CE0BE
:1024600064E1734978392068884201D1001534E06D
:10247000704978392068884201D100152DE06C49F7
:1024800018392068884201D1001526E069491839B9
:102490002068884201D100151FE065496039206835
:1024A000884202D14FF4801017E0624960392068F9
:1024B000884202D14FF480100FE05D4920688842C5
:1024C00002D14FF4801008E05A492068884202D1B6
:1024D0004FF4801001E04FF0806056499439086055
:1024E00021E153491831206888425BD9504990391D
:1024F0002068884201D1102050E04E499039206870
:10250000884201D1102049E0494930392068884289
:1025100001D1102042E0474930392068884201D17A
:1025200010203BE0424978392068884201D10015EB
:1025300034E0404978392068884201D100152DE007
:102540003B4918392068884201D1001526E03949F5
:1025500018392068884201D100151FE034496039DC
:102560002068884202D14FF4801017E03149603969
:102570002068884202D14FF480100FE02C49206877
:10258000884202D14FF4801008E02A49206888422E
:1025900002D14FF4801001E04FF080602549983956
:1025A0000860C0E0224948392068884260D9204943
:1025B00090392068884201D1102055E01D4990399A
:1025C0002068884201D110204EE019493039206836
:1025D000884201D1102047E01649303920688842EE
:1025E00001D1102040E0124978392068884201D199
:1025F000001539E00F4978392068884201D100156B
:1026000032E00B4918392068884201D100152BE0CF
:10261000084918392068884201D1001524E004498E
:1026200060392068884207D14FF480101CE0000018
:10263000A0600240A0640240F7492068884202D1AD
:102640004FF4801010E0F5492068884202D14FF421
:10265000801009E0F04960312068884202D14FF4CF
:10266000801001E04FF08060EC49A039C8605AE06A
:10267000EA4990392068884201D1102050E0E649AB
:1026800030392068884201D1102049E0E3493039CF
:102690002068884201D1102042E0DF4930312068B3
:1026A000884201D110203BE0DC497839206888421B
:1026B00001D1001534E0D84918392068884201D189
:1026C00000152DE0D54918392068884201D1001540
:1026D00026E0D14948312068884201D100151FE029
:1026E000CE4960392068884202D14FF4801017E04B
:1026F000C9492068884202D14FF4801010E0C749D0
:102700002068884202D14FF4801009E0C24960314C
:102710002068884202D14FF4801001E04FF08060C1
:10272000BE49A0398860312084F83500206C10B192
:102730002046216C8847B8491831206888425CD906
:10274000B5483C380068B54A903A2168914201D1B9
:10275000202150E0B04A303A2168914201D1202135
:1027600049E0AE4A303A2168914201D1202142E04D
:10277000A94A30322168914201D120213BE0A74A89
:10278000783A2168914201D1C91434E0A24A183A3A
:102790002168914201D1C9142DE0A04A183A21685C
:1027A000914201D1C91426E09B4A483221689142E6
:1027B00001D1C9141FE0994A603A2168914202D1BF
:1027C0004FF4001117E0944A2168914202D14FF46E
:1027D000001110E0914A2168914202D14FF400119A
:1027E00009E08D4A60322168914202D14FF4001114
:1027F00001E04FF00061084023E18849183120686A
:1028000088425CD9844840380068844A903A2168FC
:10281000914201D1202150E07F4A303A2168914213
:1028200001D1202149E07D4A303A2168914201D10D
:10283000202142E0784A30322168914201D12021A2
:102840003BE0764A783A2168914201D1C91434E0DC
:10285000714A183A2168914201D1C9142DE06F4A9A
:10286000183A2168914201D1C91426E06A4A4832D7
:102870002168914201D1C9141FE0684A603A216879
:10288000914202D14FF4001117E0634A216891424E
:1028900002D14FF4001110E0604A2168914202D148
:1028A0004FF4001109E05C4A60322168914202D184
:1028B0004FF4001101E04FF000610840C1E05749BA
:1028C0004839206888425CD95448A0384068534A47
:1028D000903A2168914201D1202150E04E4A303A8D
:1028E0002168914201D1202149E04C4A303A2168C7
:1028F000914201D1202142E0474A30322168914281
:1029000001D120213BE0454A783A2168914201D12A
:10291000C91434E0404A183A2168914201D1C914DF
:102920002DE03E4A183A2168914201D1C91426E0AF
:10293000394A48322168914201D1C9141FE0374A0F
:10294000603A2168914202D14FF4001117E0324AF7
:102950002168914202D14FF4001110E02F4A216802
:10296000914202D14FF4001109E02B4A60322168F4
:10297000914202D14FF4001101E04FF00061084094
:102980005FE02648A0380068244A903A21689142C6
:1029900001D1202154E0204A303A2168914201D1EE
:1029A00020214DE01D4A303A2168914201D1202179
:1029B00046E0194A30322168914201D120213FE09E
:1029C000164A783A2168914201D1C91438E0124A76
:1029D000183A2168914201D1C91431E00F4A183ADE
:1029E0002168914201D1C9142AE00B4A483221687A
:1029F000914201D1C91423E0084A603A216891420A
:102A000002D14FF400111BE0034A2168914207D123
:102A10004FF4001114E0000040640240A060024046
:102A2000F94A2168914202D14FF4001108E0F74AB7
:102A30002168914202D14FF4001101E04FF0006192
:102A4000084088B32068006800F0100060B3206878
:102A5000006800F4802040B3EC494839206888427F
:102A60005DD9E94990392068884201D1202052E09F
:102A7000E64990392068884201D120204BE0E249A4
:102A800030392068884201D1202044E0DF493039C4
:102A90002068884201D120203DE0DB497839206858
:102AA000884203D1C01436E091E16BE1D74978390F
:102AB0002068884201D1C0142DE0D349183920681C
:102AC000884201D1C01426E0D049183920688842D4
:102AD00001D1C0141FE0CC4960392068884202D17E
:102AE0004FF4001017E0C94960392068884202D1CC
:102AF0004FF400100FE0C4492068884202D14FF41F
:102B0000001008E0C1492068884202D14FF400104B
:102B100001E04FF00060BD49943908601CE1BA49FA
:102B20001831206888425BD9B749903920688842BB
:102B300001D1202050E0B54990392068884201D168
:102B4000202049E0B04930392068884201D1202056
:102B500042E0AE4930392068884201D120203BE074
:102B6000A94978392068884201D1C01434E0A749C6
:102B700078392068884201D1C0142DE0A249183963
:102B80002068884201D1C01426E0A0491839206885
:102B9000884201D1C0141FE09B49603920688842F7
:102BA00002D14FF4001017E098496039206888423C
:102BB00002D14FF400100FE093492068884202D1FF
:102BC0004FF4001008E091492068884202D14FF488
:102BD000001001E04FF000608C4998390860BBE0BC
:102BE00089494839206888425BD9874990392068EB
:102BF000884201D1202050E08449903920688842E1
:102C000001D1202049E0804930392068884201D133
:102C1000202042E07D4930392068884201D12020BF
:102C20003BE0794978392068884201D1C01434E00A
:102C3000764978392068884201D1C0142DE0724964
:102C400018392068884201D1C01426E06F4918392C
:102C50002068884201D1C0141FE06B4960392068A8
:102C6000884202D14FF4001017E0684960392068AB
:102C7000884202D14FF400100FE063492068884277
:102C800002D14FF4001008E060492068884202D168
:102C90004FF4001001E04FF000605B49A039C860BC
:102CA0005AE0594990392068884201D1202050E0EB
:102CB000564990392068884201D1202049E0524984
:102CC00030392068884201D1202042E04F49303914
:102CD0002068884201D120203BE04B4978392068A8
:102CE000884201D1C01434E04849783920688842CC
:102CF00001D1C0142DE0444918392068884201D11F
:102D0000C01426E0414918392068884201D1C01416
:102D10001FE03D4960392068884202D14FF400101D
:102D200017E03A4960392068884202D14FF4001018
:102D30000FE035492068884202D14FF4001008E0C6
:102D400032492068884202D14FF4001001E04FF070
:102D500000602D49A03988602068006800F40020D8
:102D600028B9606C98B32046616C8847A7E1206859
:102D7000006800F4002050B3E06B40B32046E16BE4
:102D800088479CE12068006800F4807028B92068BA
:102D9000006820F01000216808601C49483920684C
:102DA000884260D9184990392068884201D1202092
:102DB00055E0164990392068884201D120204EE024
:102DC000114930392068884202D1202047E076E15D
:102DD0000E4930392068884201D120203FE00A495D
:102DE00078392068884201D1C01438E00749783921
:102DF0002068884201D1C01431E0034918392068A5
:102E0000884205D1C0142AE0A0600240A0640240BC
:102E1000AB492068884201D1C01420E0A94920684C
:102E2000884202D14FF4001019E0A54948392068C2
:102E3000884202D14FF4001011E0A24960312068AD
:102E4000884202D14FF4001009E09D4918312068F2
:102E5000884202D14FF4001001E04FF00060984921
:102E60007C3908601CE197497831206888425BD939
:102E7000944930392068884201D1202050E090499F
:102E800078392068884201D1202049E08D493031CD
:102E90002068884201D1202042E089491839206801
:102EA000884201D120203BE08649183920688842B9
:102EB00001D1C01434E0824960392068884201D1D0
:102EC000C0142DE07F4948312068884201D1C014E8
:102ED00026E07B492068884201D1C01420E079496E
:102EE0002068884202D14FF4001019E07449483933
:102EF0002068884202D14FF4001011E0714960311E
:102F00002068884202D14FF4001009E06C49183162
:102F10002068884202D14FF4001001E04FF00060B9
:102F2000674980390860BBE06649183120688842EB
:102F30005BD9644930392068884201D1202050E0B3
:102F40005F4978392068884201D1202049E05D49F5
:102F500030312068884201D1202042E05849183998
:102F60002068884201D120203BE05649183920686A
:102F7000884201D1C01434E0514960392068884248
:102F800001D1C0142DE04F4948312068884201D159
:102F9000C01426E04A492068884201D1C01420E0CC
:102FA00048492068884202D14FF4001019E0444992
:102FB00048392068884202D14FF4001011E041499D
:102FC00060312068884202D14FF4001009E03C498A
:102FD00018312068884202D14FF4001001E04FF010
:102FE000006038494039C8605AE0364930392068B5
:102FF000884201D1202050E0314978392068884248
:1030000001D1202049E02F4930312068884201D188
:10301000202042E02A4918392068884201D1202026
:103020003BE0284918392068884201D1C01434E0B7
:10303000234960392068884201D1C0142DE021491C
:1030400048312068884201D1C01426E01C4920681C
:10305000884201D1C01420E01A492068884202D178
:103060004FF4001019E0164948392068884202D10F
:103070004FF4001011E0134960312068884202D1FA
:103080004FF4001009E00E4918312068884202D13F
:103090004FF4001001E04FF000600A4940398860A9
:1030A000E06CE064112084F8350000BF002084F853
:1030B000340000BFE06B10B12046E16B884710BDC3
:1030C00088640240406002400146002209B90120A4
:1030D0007047486A00B100BF022081F835000868D7
:1030E000026817480240D1E901031843CB6818432E
:1030F0000B6918434B6918438B691843CB69184314
:103100000B6A18430243486A042803D1D1E90B0330
:1031100018430243086802600868426922F0070207
:10312000486A0243486A042801D1886A0243086851
:1031300042610020C864012081F835000020C7E703
:103140003F8014F02DE9F04104460D4616461F4617
:1031500000BF94F83400012802D10220BDE8F081BC
:10316000012084F8340000BF022084F83500206874
:10317000006820F00100216808603B46324629467D
:103180002046FDF741FC2068006840F010002168EF
:1031900008602068006840F0080021680860206826
:1031A000006840F00400216808602068406940F031
:1031B0008000216848612068006840F002002168B2
:1031C00008602068006840F0010021680860002065
:1031D000C4E7704710B5044604480068204020B199
:1031E000024804602046FFF7F4FF10BD143C014084
:1031F000F0B502460B460025002400200021DCE04B
:10320000012606FA01F51E6806EA0504AC426ED1F5
:103210005E68022E02D05E68122E13D1CF0802F132
:10322000200656F827004E07F70E0F26BE40B04383
:103230004F07FF0E1E69BE403043CF0802F1200643
:1032400046F8270010684F000326BE40B0431E79A1
:1032500006F003064F00BE40304310605E68012E4A
:1032600008D05E68022E05D05E68112E02D05E681E
:10327000122E13D190684F000326BE40B0434F007A
:10328000DE68BE4030439060506801268E40B043F7
:103290001E79C6F300168E4030435060D0684F0050
:1032A0000326BE40B0434F009E68BE403043D0600E
:1032B0005E6806F08056B6F1805F7DD1414E36687B
:1032C00046F480463F4F3E603F4E8F0856F8270039
:1032D0008E07370F0F26BE40B0433C4EB24201D19D
:1032E00000262EE03A4EB24202D1012629E063E0E8
:1032F000384EB24201D1022623E0374EB24201D10C
:1033000003261EE0354EB24201D1042619E0344EA8
:10331000B24201D1052614E0324EB24201D1062656
:103320000FE0314EB24201D107260AE02F4EB242E1
:1033300001D1082605E02E4EB24201D1092600E057
:103340000A268F073F0FBE4030431F4E8F0846F8B6
:103350002700284E3068A0435E6806F48036B6F534
:10336000803F00D12043234E3060361D3068A0439B
:103370005E6806F40036B6F5003F00D120431D4ECE
:10338000361D3060361D3068A0435E6806F4801636
:10339000B6F5801F00D12043164E08363060361D2A
:1033A0003068A0435E6806F40016B6F5001F00D131
:1033B0002043104E0C363060491C1029FFF420AF1A
:1033C000F0BD0000443802400838014000000240CF
:1033D0000004024000080240000C024000100240BD
:1033E0000014024000180240001C0240002002406D
:1033F00000240240003C01400AB1018300E0418307
:10340000704700000148006870470000A4030020D6
:1034100010B50D48006840F400700B49086008467C
:10342000006840F4806008600846006840F48070DE
:103430000860032000F068F80F2000F007F800F0A3
:1034400017F8002010BD0000003C024070B5044693
:1034500000F098F94FF47A71B0FBF1F5284600F0CE
:103460007CFC00222146501E00F010F8002070BDA8
:10347000704700BF00F01F020121914042099200F5
:1034800002F1E022C2F8001100BF70472DE9F05FA1
:1034900080460D461646002700F0CEFD0746394609
:1034A0002A46334601F00700C0F1070ABAF1040FBB
:1034B00002D94FF0040A01E0C0F1070AD14600F139
:1034C000040ABAF1070F02D24FF0000A01E0A0F19E
:1034D000030AD4464FF0010A0AFA09FAAAF1010ACE
:1034E0000AEA020A0AFA0CFA4FF0010B0BFA0CFB7B
:1034F000ABF1010B0BEA030B4AEA0B0421464046F1
:1035000000F0ACFDBDE8F09F00BF00F00702064BE5
:1035100019684FF6FF031940044B0B4343EA02219D
:10352000014B196000BF70470CED00E00000FA0588
:1035300070B504460D4600269048006800F00F0064
:10354000A8427ED28D490D700846006800F00F0039
:10355000A84201D0012070BD207800F002000228AE
:1035600007D18748006820F0F000A168084384492B
:103570000860207800F0010000283BD06068012836
:1035800007D17F4808380068C0F34040A0B9012047
:10359000E1E76068022807D1794808380068C0F37D
:1035A000406048B90120D6E7754808380068C0F384
:1035B000400008B90120CEE77148006820F0030000
:1035C000616808436E490860FFF71CFF06466068A3
:1035D000012810D108E0FFF715FF801B41F2883168
:1035E000884201D90320B6E76548006800F00C0066
:1035F0000428F0D1A2E06068022810D108E0FFF7AB
:1036000001FF801B41F28831884201D90320A2E7E3
:103610005B48006800F00C000828F0D18EE009E05B
:10362000FFF7F0FE801B41F28831884202D9032067
:1036300091E706E05248006800F00C000028EFD146
:103640007CE0207800F00200022807D14C48006896
:1036500020F0F000A168084349490860207800F094
:103660000100002860D06068012807D1444808386C
:103670000068C0F34040A0B901206CE760680228F0
:1036800007D13F4808380068C0F3406048B90120BE
:1036900061E73B4808380068C0F3400008B90120E2
:1036A00059E73748006820F003006168084334494F
:1036B0000860FFF7A7FE06466068012810D108E001
:1036C000FFF7A0FE801B41F28831884201D9032018
:1036D00041E72B48006800F00C000428F0D123E0FB
:1036E0006068022810D108E0FFF78CFE801B41F2D1
:1036F0008831884201D903202DE72148006800F075
:103700000C000828F0D10FE008E0FFF77BFE801BDB
:1037100041F28831884201D903201CE7184800682B
:1037200000F00C000028F0D114490D700846006824
:1037300000F00F00A84201D001200CE7207800F033
:103740000400042807D10E48006820F4E050E16826
:1037500008430B490860207800F00800082808D1C9
:103760000748006820F46040216940EAC10004492C
:1037700008600F20FFF76AFE0020ECE6003C0240E4
:103780000838024000B500F045F80949096801F021
:10379000F001F02292FAA2F2B2FA82F2D140054A86
:1037A000515CC840044908600846006800BD00003C
:1037B000083802401C5F00089003002000B5FFF7A6
:1037C000E1FF0749096801F4E0514FF4E05292FA31
:1037D000A2F2B2FA82F2D140024A515CC84000BD66
:1037E000083802401C5F000800B5FFF7CBFF07490F
:1037F000096801F460414FF4604292FAA2F2B2FA11
:1038000082F2D140024A515CC84000BD08380240F3
:103810001C5F000870B500210022002300202B4C03
:10382000246804F00C0424B1042C04D0082C48D1E2
:1038300003E0274847E0274845E0244C241F24683C
:1038400004F03F01214C241F246804F480044FF449
:10385000800595FAA5F5B5FA85F5EC4084B11D4CC7
:10386000B4FBF1F5194C241F246847F6C0763440A8
:1038700096FAA6F6B6FA86F6F44005FB04F20FE0D7
:10388000134CB4FBF1F5114C241F246847F6C076A5
:10389000344096FAA6F6B6FA86F6F44005FB04F232
:1038A0000A4C241F246804F440344FF4403595FA40
:1038B000A5F5B5FA85F5EC40641C6300B2FBF3F0A6
:1038C00001E0034800BF00BF70BD0000083802409F
:1038D0000024F40000127A0070B504460025207818
:1038E00000F00100002867D0F648006800F00C00E6
:1038F00004280DD0F348006800F00C00082813D10C
:10390000F048001F006800F48000B0F5800F0BD174
:10391000EC4808380068C0F3404000284CD060688C
:10392000012849D0012070BD0020E649891F087098
:10393000FFF768FD054608E0FFF764FD401B41F214
:103940008831884201D90320EDE7DE480838006855
:10395000C0F340400028EFD12079DA49891F087070
:103960006068012814D1FFF74DFD054608E0FFF718
:1039700049FD401B41F28831884201D90320D2E73A
:10398000D04808380068C0F340400028EFD013E06A
:10399000FFF738FD054608E0FFF734FD401B41F214
:1039A0008831884201D90320BDE7C648083800683D
:1039B000C0F340400028EFD1207800F00200022838
:1039C00069D1C048006800F00C0058B1BD480068DB
:1039D00000F00C00082821D1BA48001F006800F44C
:1039E0008000D8B9B74808380068C0F3400020B15B
:1039F000E068012801D0012095E7B2480838006846
:103A000020F0F800F82292FAA2F2B2FA82F22169CA
:103A100091400843AB49083908603CE0E06828B3AE
:103A20000120A9490860FFF7EDFC054606E0FFF715
:103A3000E9FC401B642801D9032074E7A148083839
:103A40000068C0F340000028F1D09E4808380068A4
:103A500020F0F800F82292FAA2F2B2FA82F221697A
:103A60009140084397490839086014E000209649BE
:103A70000860FFF7C7FC054606E0FFF7C3FC401BE4
:103A8000642801D903204EE78E4808380068C0F347
:103A900040000028F1D1207800F0080008282CD13F
:103AA0006069A8B1012089490860FFF7ABFC0546B1
:103AB00006E0FFF7A7FC401B642801D9032032E78A
:103AC00080486C300068C0F340000028F1D014E05A
:103AD00000207E490860FFF795FC054606E0FFF7E9
:103AE00091FC401B642801D903201CE775486C3009
:103AF0000068C0F340000028F1D1207800F00400F5
:103B0000042866D16F483830006840F080506D4915
:103B1000383108606E48006840F480706C49086075
:103B2000FFF770FC054606E0FFF76CFC401B6428BD
:103B300001D90320F7E66648006800F48070002889
:103B4000F2D000205F4968310870FFF75BFC054642
:103B500008E0FFF757FC401B41F28831884201D949
:103B60000320E0E6574868300068C0F340000028B2
:103B7000EFD1207A534968310870A068012814D128
:103B8000FFF740FC054608E0FFF73CFC401B41F214
:103B90008831884201D90320C5E64A486830006868
:103BA000C0F340000028EFD013E0FFF72BFC0546E0
:103BB00008E0FFF727FC401B41F28831884201D919
:103BC0000320B0E63F4868300068C0F3400000289A
:103BD000EFD1A069F0B33B48006800F00C00082862
:103BE0006BD0A069022852D1002037490866FFF740
:103BF00009FC054606E0FFF705FC401B642801D9D7
:103C0000032090E62F4808380068C0F34060002881
:103C1000F1D1206A40F0005047F6C07292FAA2F249
:103C2000B2FA82F2616A914008430122A16AC2EBB2
:103C300051014FF4403292FAA2F2B2FA82F291406C
:103C40000843E16908434FF0706292FAA2F2B2FAB7
:103C500082F200E033E0E16A914008431949091F0C
:103C60000860012018490866FFF7CCFB054606E00E
:103C7000FFF7C8FB401B642801D9032053E6114815
:103C800008380068C0F340600028F1D017E0002039
:103C90000D490866FFF7B6FB054606E0FFF7B2FBE5
:103CA000401B642801D903203DE606480838006817
:103CB000C0F340600028F1D101E0012033E600208C
:103CC00031E600000838024000004742800E4742BB
:103CD0000070004010B504460CB9012010BD94F8E6
:103CE000510010B9204600F037F8022084F8510046
:103CF0002068006820F0400021680860D4E90101D4
:103D00000843E16808432169084361690843218B3E
:103D100001F400710843E1690843216A0843A16A7C
:103D20000843216808600421A06901EA1040616A23
:103D30000843216848602168E06A08612068C0691A
:103D400020F400602168C861002084F8520001203E
:103D500084F851000020C1E7704770B5044625463D
:103D6000681EB0F1807F01D301200FE0681E4FF084
:103D7000E02148610F214FF0FF3000F06FF9002083
:103D80004FF0E021886107200861002070BD704776
:103D900010B504460CB9012010BDA06900B100E0C7
:103DA00000BF94F8390010B9204600F027F802202F
:103DB00084F839002068C06820F400502168C86089
:103DC000204600F059FA2068006920F490402168EC
:103DD00008612068406920F02A0021684861206855
:103DE000C06840F400502168C860002084F83A00A0
:103DF000012084F839000020CEE7000010B586B01D
:103E000004464448006840F0010042490860084602
:103E1000006840F0010008603E481430006840F03F
:103E200010003C49143108603A48006840F48000B2
:103E30003849086048150190022002900120039043
:103E4000022004900720059001A93348FFF7D0F91C
:103E50004FF4806001900720059001A92E48FFF7DC
:103E6000C7F92E482E4908604FF000604860402195
:103E70002B4881600021C1604FF480610161002105
:103E800041618161C16101624162032181624FF43C
:103E90000001C16289100163FFF716F900BF2048D5
:103EA0002063846300BF1D4878381E4908604FF0C6
:103EB0000060486000211B488160C1604FF4806150
:103EC0000161002141618161C1614FF400310162F2
:103ED00000214162032181624FF40001C162891017
:103EE0000163FFF7F1F800BF0E486063846300BF11
:103EF000012200214620FFF7C9FA4620FFF7B9FA50
:103F0000002211463A20FFF7C1FA3A20FFF7B1FA32
:103F100006B010BD3038024000000240B8640240D4
:103F20002077002070770020F7B50446154600275B
:103F300094F83970012F01D0222F3ED1019800B1A1
:103F40000DB90120FEBD00BF94F83800012801D151
:103F50000220F7E7012084F8380000BF01982062B2
:103F6000A584E584002084F83A0094F839002228DA
:103F700003D1322084F8390002E0122084F839009D
:103F80000F48216BC8630F48216B08640E48216BF2
:103F9000886401AE23681A1D31682B46206BFFF739
:103FA000D1F82068406940F080002168486100BF76
:103FB000002084F8380000BFC4E70220C2E70000F8
:103FC0000542000869420008E14100080121014A58
:103FD00011707047D0020020704700BFFEE700005C
:103FE0000348006840F00100014908607047000084
:103FF0003038024010B500200B4981F839000B48D9
:1040000008604FF461304860002107488160C1605A
:1040100001610C21416100218161C161FFF7B8FE9E
:1040200008B1FCF731FD10BDB8750020001001404B
:1040300000BFFEE77047000002480068C0F302209E
:10404000704700000CED00E002490143024A116094
:10405000704700000000FA050CED00E010B50028E4
:1040600007DA0A07140E054A00F00F031B1FD45489
:1040700003E00A07130E024A135410BD18ED00E0C6
:1040800000E400E010B54FF4807000F0DDFB05495E
:1040900008604FF4807208460168034800F0A0FAF7
:1040A00010BD0000EC03002060780020014600BF36
:1040B0000A48006800F002000028F9D00748001DF7
:1040C000016000BF0548006800F001000028F9D039
:1040D0000248001D0068C0B2704700000838004068
:1040E00000BF0020FCF76EFC4FF4967000F0E2FB7E
:1040F0000020FCF757FC4FF4967000F0DBFBF0E774
:1041000000B591B01B48006840F080501949086024
:104110001948006840F440401749086001200090A9
:1041200001900220069041050791082108914FF463
:10413000A871099102210A9107210B916846FFF7A6
:10414000CBFB08B1FCF7A2FC0F200C9002200D90D5
:1041500000200E904FF4A0500F904FF4805010901C
:1041600005210CA8FFF7E4F908B1FCF78FFC11B0AA
:1041700000BD000040380240007000401448006854
:1041800040F47000124908601248006840F00100D5
:104190001049086000200F49083108600D48006888
:1041A0000D4908400B4908600C48091D0860081FAC
:1041B000006820F48020091F0860002005490C31A8
:1041C00008604FF0006002498039086070470000C5
:1041D00088ED00E000380240FFFFF6FE10300024BA
:1041E00070B50546AC6B002026342081208001206C
:1041F000E074207D40F010002075263C2046FFF73B
:10420000C6FD70BD70B50546AC6B2868006800F44B
:10421000807028BB0020E0842068406920F0800086
:104220002168486145F2F05300224021204600F009
:1042300037F930B1032084F839002046FFF7A7FD95
:1042400011E094F83900322803D1222084F8390093
:1042500002E0012084F839002046FFF7B7FE02E0B3
:104260002046FFF7B3FE70BD70B50446A56B284627
:10427000FFF7B2FE70BD00002DE9F04104460025B5
:10428000A06900B100BF2068056925F44055E068C9
:104290000543206805612068C56849F20C608543C4
:1042A0002169A068084361690843E169084305433F
:1042B0002068C5602068456925F44075A0690543FC
:1042C00020684561E069B0F5004F72D172492068FD
:1042D000884203D071492068884234D1FFF784FABC
:1042E00000EBC00101EB001061684900B0FBF1F088
:1042F0006421B0FBF1F6FFF777FA00EBC00101EBA8
:10430000001061684900B0FBF1F7FFF76DFA00EBB0
:10431000C00101EB001061684900B0FBF1F06421BD
:10432000B0FBF1F000EBC00101EB0010A7EB800047
:10433000322101EB00106421B0FBF1F066F31F1095
:1043400021688860A6E0FFF739FA00EBC00101EBB5
:10435000001061684900B0FBF1F06421B0FBF1F698
:10436000FFF72CFA00EBC00101EB00106168490077
:10437000B0FBF1F7FFF722FA00EBC00101EB0010F0
:1043800061684900B0FBF1F06421B0FBF1F000EB93
:10439000C00101EB0010A7EB8000322101EB0010FF
:1043A0006421B0FBF1F066F31F102168886071E0B2
:1043B000FFE739492068884203D03849206888429D
:1043C00034D1FFF711FA00EBC00101EB0010616876
:1043D0008900B0FBF1F06421B0FBF1F6FFF704FABD
:1043E00000EBC00101EB001061688900B0FBF1F740
:1043F000FFF7FAF900EBC00101EB001061688900DA
:10440000B0FBF1F06421B0FBF1F000EBC00101EB77
:104410000010A7EB8000322101EB00106421B0FBFB
:10442000F1F066F31F102168886033E0FFF7C6F9EA
:1044300000EBC00101EB001061688900B0FBF1F0F6
:104440006421B0FBF1F6FFF7B9F900EBC00101EB15
:10445000001061688900B0FBF1F7FFF7AFF900EBDE
:10446000C00101EB001061688900B0FBF1F064212C
:10447000B0FBF1F000EBC00101EB0010A7EB8000F6
:10448000322101EB00106421B0FBF1F066F31F1044
:1044900021688860BDE8F0810010014000140140EF
:1044A0002DE9F04104460E4617461D464FF0000820
:1044B000FEF7A8FF80469FBB2BE0681C48B32DB1D8
:1044C000FEF7A0FFA0EB0800A84222D92068C06830
:1044D00020F080002168C8602068C06820F02000BB
:1044E0002168C8602068C06820F480702168C860B6
:1044F0002068406920F0010021684861012084F8AB
:10450000390000BF002084F8380000BF0320BDE858
:10451000F081206800683040B04202D1012001E003
:1045200003E000200028C8D035E02AE0681C40B332
:104530002DB1FEF767FFA0EB0800A84221D9206843
:10454000C06820F080002168C8602068C06820F042
:1045500020002168C8602068C06820F4807021684D
:10456000C8602068406920F001002168486101208E
:1045700084F8390000BF002084F8380000BF032011
:10458000C5E7206800683040B04201D1012000E05A
:1045900000200028CAD10020B9E700BFFEE702E0F2
:1045A00008C8121F08C1002AFAD1704770470020BE
:1045B00001E001C1121F002AFBD170470246D068FA
:1045C0009368C01A0AD09068938818401368185CE2
:1045D00008709068401C9060002070470520FCE740
:1045E000034609B90E20704712B1501E104008B1A1
:1045F0000920F8E71960501E988000209860D86064
:1046000000BFF0E70146C8688A68801A80B2704728
:104610000246D0689368C01A9388984209D8D06837
:104620009388184013681954D068401CD06000204B
:1046300070470420FCE700BFEFF3058008B10120BC
:1046400070470020FCE7000001202B490870112072
:104650004870222088703320C8704420087155208B
:104660004871662088717720C87188200872F4200C
:104670004872012088720220C8720020087302204C
:104680001E49087011204870222088703320C8709D
:104690004420087155204871662088717720C871C0
:1046A0008820087232204872002088722820C87240
:1046B000002008730320124908701120487022203E
:1046C00088703320C87044200871552048716620D6
:1046D00088717720C87188200872322048720020C3
:1046E00088722820C87200200873064806490860AE
:1046F0000648486070470000F676002003770020E7
:104700001077002044332211E0030020887766559B
:10471000A0B0434903C9CDE91E01032200210120B5
:1047200000F0C7FF3F4908600846006830B1002329
:104730001A4619463B48006801F0C5F83A4800F0AF
:1047400007F93A49086000F049FBFEF761FEFFF700
:10475000D7FC0320FCF7ECF80020FCF7E9F8012077
:10476000FCF7E6F80220FCF7E3F8FFF739FCFFF767
:1047700041FCFBF7FDFDFBF7F3FDFFF765FF2C495F
:104780001EA800F0AFF82B490860FFF77BFCFBF791
:10479000E2FD24480068002840D014222049083156
:1047A00019A8FBF777FD002119A800F00AF91422D7
:1047B0001B491C3114A8FBF76DFD002114A800F063
:1047C00000F91422164930310FA8FBF763FD0021D0
:1047D0000FA800F0F6F81422114944310AA8FBF79B
:1047E00059FD00210AA800F0ECF814220C495831B8
:1047F00005A8FBF74FFD002105A800F0E2F8142200
:1048000007496C316846FBF745FD0021684600F01A
:10481000D8F80021084600F059F800BF00BFFEE7B5
:10482000305F0008AC0300202C5F0008B0030020BC
:104830007D500008B403002001460020842901D0E7
:10484000CA1C104470470000F0B50B30154D20F025
:1048500007010024144A0FE003688B420BD38B42FC
:1048600005D95E1A43184768C3E9006700E043684A
:10487000136002C004E0021D10680028ECD120463D
:10488000002802D1286808B10020F0BD064A074878
:104890001060074A121A22F00702C0E90024012022
:1048A0002860D7E74C0400204804002064B50020AD
:1048B00060B7002070B5044625460DB1294600E0DA
:1048C0000121084600F01EFD002070BD70B50446B1
:1048D0000D461CB12946204600F073F800F0DAFDC1
:1048E000002070BD70B504460D46002204212068EA
:1048F00000F0DFFE70BD000077B581B006461446BB
:1049000000200090254605B90125FFF794FE88B1E7
:1049100000236A4602A9304601F062F8012802D05D
:10492000FF2004B070BD009870B14FF0805007496F
:10493000086009E000232A4602A9304600F0C3FFC0
:10494000012801D0FF20ECE70020EAE704ED00E0B9
:1049500010B50446012000F081FE10BD70B504467C
:104960000025FFF768FE08B1822070BD00231A46BB
:104970001946204600F0A7FF012800D0FF25284651
:10498000F3E770B506460C460EB9802070BD0025D1
:10499000601C08B96D1E03E014B1254605B9012558
:1049A000FFF749FE08B18220F0E700232A461946A6
:1049B000304600F0ACFE012801D0FF20E6E70020E1
:1049C000E4E770B586B004460D46B4F90800FFF779
:1049D00033FF0646002005AACDE90120009603908A
:1049E000238A9AB22B46D4E9001001F089F8059881
:1049F00006B070BD30B5024600231DE023240C70C4
:104A0000002011E0145C302505EB1414012505EBA2
:104A100040054C55145C04F00F043034022505EBBE
:104A200040054C55441CE0B20528EBDB2A24CC722F
:104A3000521D0C315C1CE3B20A2BDFDB30BD0000E1
:104A400010B504460E48006844600E480068844271
:104A500007D20B480168091D0B48006800F044FBB1
:104A60000CE007480168091D0848006800F03CFB9D
:104A700007480068844201D20548046010BD000068
:104A8000F003002004040020F8030020F4030020B9
:104A90002404002070B505460E46502000F0F8F9B9
:104AA000044694B11EB9A80000F0F2F900E03046C7
:104AB0002063206B20B9204600F05CFB002404E05A
:104AC000A900A522206BFBF7F7FB204670BD000074
:104AD00070B523E000F008FD1348006808B9012014
:104AE00000E00020054601F0A1F9BDB900F022FB6D
:104AF0000D48C068C468201D00F0ACFA0B4800687F
:104B0000401E0A4908600A480068401E08490860BB
:104B100000F020FB204600F05DF800BF044800686C
:104B20000028D7D170BD0000387900200004002093
:104B3000FC03002070B504460D46206870B1216C5E
:104B4000E0680844E0606168E068884201D320685A
:104B5000E0602846226CE168FBF79CFB70BD70B5F5
:104B600004460E461546206C38B9206870BB606854
:104B700000F014FC0020606028E07DB93146226C12
:104B8000A068FBF787FB216CA0680844A060D4E90B
:104B9000011088421AD32068A06017E03146226CC9
:104BA000E068FBF777FB216CE068401AE060216861
:104BB000E068884203D2216C6068401AE060022DF0
:104BC00004D1A06B10B1A06B401EA063A06B401C71
:104BD000A06370BD10B50446206B00F0CBFA2046F0
:104BE00000F0C8FA10BD000070B5194820F00704A5
:104BF0001848046000201749486043F6F83026182A
:104C0000083E15480660007800F0070008B901204A
:104C100000E0002018B9FBF71DFB00BFFEE70020F5
:104C20000D49096848600C4909680860254643F643
:104C3000F030686008480068286008480068083854
:104C4000064908604FF000400549086070BD00004B
:104C500068790020340400203C0400204004002037
:104C60004404002000BFFFF733FF03480068012819
:104C7000F9D900F0F9FAF6E7707800202DE9F0474D
:104C800004460F4615469946DDF82080002607E0C9
:104C9000B95D04F134008155B85D00B902E0761CBD
:104CA000102EF5D300BF002143200155072D00D35E
:104CB0000625E562E564201D00F013FA04F11800F2
:104CC00000F00FFA2461C5F10700A0616462BDE83D
:104CD000F087000010B5002407E004EB84010F4AC0
:104CE00002EB810000F0F0F9641C072CF5D30C48AE
:104CF00000F0EAF90B4800F0E7F90B4800F0E4F99E
:104D00000A4800F0E1F90A4800F0DEF904480949D0
:104D1000086004480849086010BD00007078002051
:104D2000FC780020107900202479002038790020B8
:104D30004C790020F4030020F803002010B5014650
:104D4000164800E0006803688B42FBD302464368C4
:104D500013448B4204D143684C68234443600146AA
:104D60000A464B6813440468A34211D10C4C0368F3
:104D70002468A34208D04B680468646823444B60ED
:104D800003681B680B6005E0054B1B680B6001E0C6
:104D900003680B60884200D0016010BD340400201D
:104DA0003C04002070B5054600F0C4F9A86B08B9B2
:104DB000012400E0002400F0CDF9204670BD70B55C
:104DC000054600F0B7F9A86BE96B884201D10124D0
:104DD00000E0002400F0BEF9204670BD10B5FFF7DA
:104DE000CDF94FF44070FFF72FF910BD0748006868
:104DF000401C08B9012000E0002018B9FBF72AFA8E
:104E000000BFFEE7FBF726FA00BFFEE728040020FC
:104E100010B5044600F08EF911E0606A08B901206F
:104E200000E0002038B904F1240000F0BBFF18B105
:104E300000F084FA00E005E0A06C401EA064A06CC5
:104E40000028EADC00BF4FF0FF30A06400F082F9D8
:104E500000F070F911E0206908B9012000E000209D
:104E600050B904F1100000F09DFF08B100F066FA9F
:104E7000606C401E606400E002E0606C0028EADCC8
:104E800000BF4FF0FF30606400F064F910BD000017
:104E90002DE9F04105464FF0000800F025FB2648BB
:104EA000006808B9FFF7A0FE2448006828400028E1
:104EB0003CD145B1083505F0070020B105F00700E9
:104EC000C0F1080005448DB31D48006885422DD807
:104ED0001C4E3046046801E0264624686068A842FB
:104EE00002D220680028F7D11348006884421DD000
:104EF000306800F10808206830606068401B1028A6
:104F000007D967196068401B786065603846FFF70D
:104F100015FF0B4960680968081A094908600749C4
:104F200060680968084360600020206000F07EFF30
:104F30004046BDE8F08100003C040020440400200D
:104F40004004002034040020001F4FF080730360F1
:104F5000001F0160001F054B036014380260001F32
:104F60006FF002030360203870470000ED4D000829
:104F7000AEB0002500BF342121A8FBF7A4F97C21A5
:104F800002A8FBF7A0F91A48FFF73CFBC5B2322D87
:104F90002ADB002117480068FFF7F3FC002409E032
:104FA00001A91348FFF70AFB9DF8040021A9085541
:104FB000601CC4B2322CF3DB0E480068FFF7CEFC55
:104FC00002A921A8FFF716FD2A208DF8800079227A
:104FD00002A90948FEF7A8FF08B1FBF755FD00BF7D
:104FE000064800780128FBD13220FFF763FCC2E7B6
:104FF00060780020B0030020B8750020D0020020A7
:1050000000BF00BF002110480068FFF7BAFC0F483E
:10501000FFF7F8FA0446F62C0EDA00250AE00C48F1
:1050200001780078401C0A4B18700848FFF7F0FA26
:10503000681CC5B20A2DF2DB03480068FFF78EFC3E
:105040000A20FFF737FCDDE7B0030020607800207E
:10505000D50200200146D1E901309860D1E9010371
:1050600058600A695068884201D188685060002001
:1050700008611068401E10601068704700BF002370
:105080005A1E19460D48006800F041FBFBF7ACFAC8
:105090000B4908604FF0FF32084601680948006874
:1050A000FFF72AFC00231A4619460448006800F05E
:1050B0000AFC0A20FFF7FEFBE1E70000AC0300203A
:1050C000A8030020B403002000F1080141604FF064
:1050D000FF31816000F10801C160016100210160C0
:1050E000704700210161704710B502460B685C1CD7
:1050F0000CB9106907E002F1080000E0406844685C
:1051000024689C42FAD944684C604C68A16088606D
:1051100041600A611468641C146010BD42684A60F2
:1051200093688B60936859609160086103685B1CA9
:105130000360704710B5FBF78DF805480068401C08
:1051400003490860BFF34F8FBFF36F8F10BD00009E
:105150002804002010B506480068401E0449086075
:105160000846006810B90020FBF77BF810BD00006E
:105170002804002070B506463546002E31D0083D83
:105180002C46184960680968084008B1012000E011
:10519000002018B9FBF75EF800BFFEE7206808B9E9
:1051A000012000E0002018B9FBF754F800BFFEE72B
:1051B0000C4960680968084098B1206888B90949B5
:1051C000606809688843606000F08EF9064960688D
:1051D00009680844044908602046FFF7AFFD00F065
:1051E00025FE70BD440400204004002006480068ED
:1051F0004FF47A71B0FBF1F0401E4FF0E0214861AE
:1052000007200861704700009003002070B5FBF78D
:105210002BF80546102D0FD305F1E02090F8F04350
:105220000E480078844201DB012000E0002018B91C
:10523000FBF710F800BFFEE70948006800F4E060E3
:1052400008490968884201D8012000E0002018B907
:10525000FBF700F800BFFEE770BD00002C04002043
:105260000CED00E0300400204FF08050034908604E
:10527000BFF34F8FBFF36F8F7047000004ED00E066
:1052800000BF04480078401C024908706420FFF702
:1052900011FBF6E7DB03002008B500BF0220FBF797
:1052A00091FB0020009002E00098401C009009490A
:1052B00000988842F8D30220FBF774FB002000908E
:1052C00002E00098401C0090024900988842E5D214
:1052D000F7E70000404B4C0000BF09480078A028C9
:1052E00003DB37200649087004E005480078401CBD
:1052F000034908704FF4FA60FFF7DCFAEDE70000AD
:10530000DA03002070B5044600267CB100F0ECF80A
:1053100008480068051908480068001DFFF79AFE54
:105320002846FFF78DFB00F081FD06460EB9FFF71A
:105330009BFF70BD04040020F00300200120014900
:10534000086070471804002070B505460C461DB96A
:10535000FAF780FF00BFFEE70D48016818312846C4
:10536000FFF7C2FE0A480068001DFFF773FE601CCD
:1053700030B907480168091D0648FFF7CFFE05E070
:105380000548006806193046FFF75AFB70BD00005B
:10539000F00300204C7900200404002070B505467D
:1053A0002C46EDB1E16CE06A884219D0201DFFF770
:1053B00051FEE06CE062E06AC0F10700A0610949BB
:1053C000E06A0968884202D90649E06A0860E16A31
:1053D00001EB8101044A02EB8100211DFFF79EFED3
:1053E00070BD0000080400207078002070B50546EC
:1053F0002C4685B31B49E06A0968C96A88422FD2E6
:1054000018480068C06AC0F10700A061E16A01EBBA
:105410008101154A02EB81016069884201D10120B6
:1054200000E00020C0B1201DFFF714FE0D48006809
:10543000C06AE0620D49E06A0968884202D90B49F6
:10544000E06A0860E16A01EB8101074A02EB810032
:10545000211DFFF763FE03E002480068C06AE062B6
:1054600070BD0000F00300207078002008040020C8
:1054700010B504461CB9FAF7EDFE00BFFEE703487D
:105480000068206002480068606010BD1C040020B5
:10549000040400201FB500200090019002900346F4
:1054A00080220CA103900D4800F02AFB0446012C39
:1054B0000AD1FAF7CFFE0120094908600020094906
:1054C000086000F061F804E01CB9FAF7C3FE00BF01
:1054D000FEE71FBD49444C4500000000654C000834
:1054E0000C0400200404002002480068401C01490C
:1054F000086070471004002010B51E48006818B1FD
:1055000001201D49086033E000201B4908600BE0C2
:105510001A48006818B9FAF79DFE00BFFEE7174861
:105520000068401E154908601448006800EB8000C0
:10553000134951F8200008B9012000E0002000289C
:10554000E6D10E49096801EB81010D4A02EB8100A9
:1055500041684968416000F1080142688A4202D10D
:105560004168496841604168C968064A116000BFE6
:1055700010BD0000100400201804002008040020C2
:1055800070780020F00300201CB5264801460978F9
:105590000191FF21024611700146097800919DF8A2
:1055A000001001F05001204A117007211F4A1160BC
:1055B00009E01E490968491E1C4A11609DF8001047
:1055C0004906090E00919DF8001001F08001802924
:1055D000EFD0164909680902144A1160114609887A
:1055E00001F4E06111600F4A0199117010480068E0
:1055F00040F470000E4908600846006840F07040B2
:105600000860FFF7F3FD00200A490860FAF7F0FD93
:105610000948006840F0404007490860FAF7DEFD9D
:1056200000201CBD00E400E02C0400203004002019
:1056300020ED00E02804002034EF00E010B5FAF778
:1056400009FE00F0FFFA18B14FF0805002490860DF
:105650000020FAF706FE10BD04ED00E070B5054627
:105660005020FFF715FC0446E4B100206060206084
:10567000A060E060A0630120E06300202064401E81
:105680006064A06484F84D5004F11000FFF71CFD25
:1056900004F12400FFF718FD00231A46194620469E
:1056A00000F011F91CB9FAF7D5FD00BFFEE720465E
:1056B00070BD2DE9F04705460E4617464FF000092C
:1056C000DDB15020FFF7E4FB0446B4B105FB06F062
:1056D00000F101084046FFF7DBFB2060206848B17D
:1056E000E56326640121204600F0B1F884F84D708E
:1056F000A14602E02046FFF73DFDB9F1000F03D1BE
:10570000FAF7A8FD00BFFEE74846BDE8F0872DE99F
:10571000FF4383B005460E461F464FF000092C4656
:105720001CB9FAF797FD00BFFEE70EB9206C08B967
:10573000012000E0002018B9FAF78CFD00BFFEE759
:1057400000BFFFF7F7FCA06B90B3D4F80C80314694
:105750002046FFF7EFF9B7B9A06B401EA0632068A1
:1057600010B900F069FA6060206908B9012000E012
:105770000020B8B904F1100000F014FB012811D189
:10578000FFF772FD0EE0C4F80C80606A08B90120D2
:1057900000E0002030B904F1240000F003FB08B160
:1057A000FFF762FDFFF7D6FC012007B0BDE8F083EC
:1057B000FFE7059818B9FFF7CDFC0020F5E7B9F130
:1057C000000F04D101A8FFF753FE4FF00109FFF7C6
:1057D000C1FCFFF789FEFFF7ADFC606C401C08B907
:1057E00000206064A06C401C08B90020A064FFF792
:1057F000B1FC05A901A800F049F908BB2046FFF754
:10580000D1FAB8B1206830B9FFF794FC6068FFF7AF
:10581000EDFDFFF79FFC04F124000599FFF794FDCF
:105820002046FFF7F5FA00F001FB002889D1FFF7C9
:105830001BFD86E72046FFF7EBFA00F0F7FA80E75A
:105840002046FFF7E5FA00F0F1FA0020ADE770B569
:1058500005460E462C461CB9FAF7FCFC00BFFEE7D5
:10586000FFF768FCD4E90F12206801FB02006060BA
:105870000020A0632068A060E06B401E226C2168BD
:1058800000FB0210E0604FF0FF306064A06476B966
:10589000206908B9012000E0002080B904F110005F
:1058A00000F080FA01280AD1FFF7DEFC07E004F1DE
:1058B0001000FFF709FC04F12400FFF705FCFFF7D7
:1058C00049FC012070BD2DE9FF4182B006460F461C
:1058D0001D464FF0000834461CB9FAF7BBFC00BF68
:1058E000FEE70FB9206C08B9012000E0002018B9CC
:1058F000FAF7B0FC00BFFEE7022D02D1E06B0128F1
:1059000001D1012000E0002018B9FAF7A3FC00BF84
:10591000FEE700BFFFF70EFCA06BE16B884201D3EE
:10592000022D18D12A4639462046FFF718F9606A39
:1059300008B9012000E0002038B904F1240000F08B
:1059400031FA012801D1FFF78FFCFFF703FC01209A
:1059500006B0BDE8F081049818B9FFF7FBFB002002
:10596000F6E7B8F1000F04D16846FFF781FD4FF06C
:105970000108FFF7EFFBFFF7B7FDFFF7DBFB606CFC
:10598000401C08B900206064A06C401C08B90020CD
:10599000A064FFF7DFFB04A9684600F077F8C0B900
:1059A0002046FFF70CFA70B104F110000499FFF7DC
:1059B000CBFC2046FFF72CFA00F038FA0028A9D1DA
:1059C000FFF752FCA6E72046FFF722FA00F02EFA76
:1059D000A0E72046FFF71CFA00F028FA0020B7E7FE
:1059E0002DE9F0470646894617461D4634461CB940
:1059F000FAF730FC00BFFEE7B9F1000F01D1206CCF
:105A000008B9012000E0002018B9FAF723FC00BF14
:105A1000FEE7022D02D1E06B012801D1012000E058
:105A2000002018B9FAF716FC00BFFEE7FFF7EEFBFF
:105A3000FAF710FC8246A06BE16B884201D3022D7D
:105A40001CD12A4649462046FFF789F8A06C401C25
:105A500070B9606A08B9012000E0002058B904F16B
:105A6000240000F09FF930B12FB10120386002E02E
:105A7000A06C401CA0644FF0010801E04FF000084A
:105A80005046FAF7EEFB4046BDE8F0872DE9F041BD
:105A900004460D461CB9FAF7DDFB00BFFEE71DB951
:105AA000FAF7D8FB00BFFEE7FFF744FB1248076890
:105AB0002868401C08B9002619E0104920680968C8
:105AC000884204D06068B84201D801260FE06068BF
:105AD000381A2968884209D228686168791A401AF8
