:020000040001F9
:10600000D82B0020F56001000F6101001161010033
:106010000000000000000000000000000000000080
:1060200000000000000000000000000013610100FB
:106030000000000000000000156101001761010070
:1060400019610100196101007D63010019610100FE
:106050001961010000000000C56101001961010023
:106060001961010019610100196101001961010044
:106070001961010019610100196101001961010034
:1060800019610100956201001961010019610100A7
:10609000B562010019610100056301001961010089
:1060A00019610100196101000000000000000000FA
:1060B00000000000000000000000000000000000E0
:1060C0000348854600F06CF8004800476D710100F8
:1060D000D82B0020401E00BF00BF00BF00BF00BF84
:1060E00000BF00BF00BF00BF00BF00BF00BFF1D1B5
:1060F000704700000321094802680A43026008480B
:1061000002680A4302600748804707480047FEE7E5
:10611000FEE7FEE7FEE7FEE7FEE70000240500409D
:106120005405004029630100C160010030B50B46F1
:10613000014600202022012409E00D46D5409D4261
:1061400005D31D469540491B2546954040191546E7
:10615000521E002DF1DC30BD03460B439B0703D0DC
:1061600009E008C9121F08C0042AFAD203E00B781C
:106170000370401C491C521EF9D27047D2B201E094
:106180000270401C491EFBD270470022F6E710B592
:1061900013460A4604461946FFF7F0FF204610BD95
:1061A000064C0125064E05E0E36807CC2B430C3C6A
:1061B00098471034B442F7D3FFF786FF2C7B0100D9
:1061C0004C7B0100F8B51F4805691F490020C863D2
:1061D000074632E014213A464A4341688068541821
:1061E0000121B940014226D0E068C64320686E40D4
:1061F00006403146204601F0C9F91248006968405E
:106200000CD00543E0682168C0436840084001465F
:106210000090204601F0BAF9009806433046A16884
:10622000A84301402A4660683240104002460A43B3
:1062300001D0226990477F1CFFB2044841788F4209
:10624000C8D3F8BD00050050406100404020002048
:106250008307FF22DB0E9A408907090E9940002828
:106260000BDA0007000F0838830808489B0018184D
:10627000C36993430B43C3617047830804489B0081
:106280001B181868904308431860704700ED00E041
:1062900000E400E010B5064900200860486088600E
:1062A000C860034940390860486001F0B1FA10BD88
:1062B00040110140F0B5002087B0C0430290104863
:1062C00046690569684600F0D9FD074600F094FE6E
:1062D0000446002F08D002AA3146009800F0EEFDD7
:1062E000029800F0D3FE06E0029800F0CFFE0028EE
:1062F00001D1002C02D0284600F0F6FC07B0F0BD1A
:106300004C20002010B507484068002807D080477F
:10631000002803D00022114600F03EF910BD00F025
:10632000F9FD10BD7020002010B500F041FE0028DE
:1063300005D00E490C484860C8130D4988610D48C6
:10634000018CC9B201290ED1818C09070BD1018DB5
:106350000906090F042906D1808D0006000F02D11D
:1063600005490120886010BDDFFF07C0000500401F
:10637000006C0040C00F00F00006004010B501F0B6
:1063800095F90D4C0B4A21785054491CCAB2227021
:10639000142A0ED3074908462C3000F049FB082880
:1063A00005D0002803D00022114600F0F5F80020A7
:1063B000207010BD702300200020002030B47446EF
:1063C000641E2578641CAB4200D21D46635D5B00F1
:1063D000E31830BC184702E008C8121F08C1002AA1
:1063E000FAD170477047002001E001C1121F002A56
:1063F000FBD17047F7B582B00026054616700078CD
:106400001446002805D02846039900F087FF0600AF
:106410002DD1A87800281BD02078039F001D1F28AD
:1064200024D8684679DF002821D121780322481C2E
:1064300020707A5421781922481C20707A542078D0
:10644000C1196846008801F083FA2178401820704D
:10645000A988002923D001208446AA680398002A2D
:1064600007D0227853189B1C1F2B04D90C2005B091
:10647000F0BD0720FBE71346521C2270491CC15493
:1064800022786746511C217087542378AA881818EF
:10649000A968FFF761FE2078297940182070E86824
:1064A000002815D00021415622788C46D01C039933
:1064B0001F28DBD8501C022320708B5422780A231B
:1064C000501C20708B5420786246431C23700A5461
:1064D000288A002809D0284600940622022110307C
:1064E000039B01F0A9FA0600C1D1288B002809D02E
:1064F00028460094072203211830039B01F09CFAE0
:106500000600B4D1288C2F462037002808D00094EC
:10651000152214213846039B01F08EFA0600A6D1FD
:10652000A86A002805D02246039900F02FFC060037
:106530009DD1E86A002805D02246039900F0BCFEF0
:10654000060094D1387D002806D0224628460399BB
:1065500001F03EF806008AD1304688E700B585B0E4
:1065600014216846FFF711FE00206946087001906B
:10657000087240200882B4204882684673DF0028F1
:1065800004D1022000F0C4FA002803D000221146F2
:1065900000F002F805B000BD0C2000F0B9FABFF31E
:1065A0004F8F04490248C860BFF34F8FFEE70000D9
:1065B0000400FA0500ED00E010B5002903D08A07B9
:1065C0000024002A01D0072010BD0F4A0B4651605D
:1065D000107014215470414318469460FFF7D5FDA4
:1065E00000200A49C0438860094840210160094AE7
:1065F0001068FF231B0498430B04184310600648DF
:106600000160002010BD0000402000200063004019
:1066100080E200E004E400E000E100E070B5114C2D
:10662000A568002D06D0002A06D0002804D000233B
:10663000247809E0082070BD072070BD24265E4341
:10664000AE5D002E04D05B1CA342F7DB042070BDBE
:10665000242401265C432E5564196170A2610360F5
:10666000002070BD4C200020FFB59807002481B0A9
:106670001E4615460F4600280BD1002E09D000F00B
:10668000FDFE22490A9888610F70324600208E6014
:1066900008E0072005B0F0BD24234343D4549B18E1
:1066A0001C75401CB842F7DB24204743BB1903206C
:1066B00048700F461846CB60194618300022182340
:1066C0002E465E43D3005B181C705C709D70586052
:1066D0003018521C032AF5DB0020C0433861BC701F
:1066E000FC7001240A482405046003211420FFF7EC
:1066F000AFFD08480460084C0198A06003211120F8
:10670000FFF7A6FD606878610020C3E74C200020F9
:1067100080E200E000E100E000150140FEB5044623
:106720001D48174682680D46002A0CD001788C421D
:1067300001D2052D01D20720FEBD21462423594355
:10674000535C012B01D00820FEBD88184078012839
:106750001DD0002601F034F9C0000F490190C9682E
:106760004018694601F056F9002812D00121017045
:106770000A49446049680830E2C007490198C9687D
:1067800041180098487000F0D5FF0020FEBD2E464D
:10679000E0E70420FEBD00004C2000200015014071
:1067A000F8B5144D0446A868002809D029788C4211
:1067B00001D30720F8BD24216143405C012801D0AA
:1067C0000820F8BD01F0FCF8C600E86869463018FA
:1067D00001F020F900280AD0022101704460E86825
:1067E00031180098487000F0A5FF0020F8BD042083
:1067F000F8BD00004C2000200A4601460148FFF782
:10680000CBFE0000EFBEADDE70B50D4692B00021AC
:106810006A46117007241171002812D0818800295E
:1068200005D08168002902D00978490702D42046A2
:1068300012B070BD02A9FFF7DDFD0028F8D102AE4D
:1068400000E00026002D0BD0A8880028EFD101AA77
:106850000AA92846FFF7CEFD0028E9D10AAA00E0E0
:106860000022684603790178304672DFE0E70000D5
:1068700070B5054601461C220F48FFF76DFC0F4C12
:10688000002626702968002907D00822A018FFF7E3
:1068900063FC204608307ADF02E0084808307BDFDE
:1068A000002808D1401E608004486670044A002118
:1068B000001DFFF7B3FE70BDB82300202820002084
:1068C0005D790100F8B5224C028800271F4DE6894A
:1068D000102A16D029464968112A21D0122A2DD013
:1068E000502A1CD1C288801DB24218D1028B022AC4
:1068F00015D1C27E837E10021843C007C00F0CD191
:1069000012E0818869800146104808220E3110305B
:10691000FFF722FC6F70002E01D100F07DFAF8BD68
:106920000020C04368806F700846FFF739FF0028D9
:10693000F5D0A1690029F2D08847F8BD811D034830
:1069400008221030FFF708FCE7E7000028200020AD
:10695000B823002010B50446FFF7B4FF21460348D2
:1069600000F03AF8204600F01DFD10BD9C230020E9
:1069700030B5184B0D4604000FCB85B003936B4622
:1069800007C325D0002D23D00020C043A082286853
:10699000A0610020A0752146684663DF002815D15C
:1069A000217868468174092189020182A21C04A908
:1069B0000120A0DF002809D12946204600F080FDF3
:1069C000002803D12946204600F062FF05B030BD03
:1069D0000E20FBE7007B010000281ED000291CD000
:1069E0000A88102A14D0112A14D0502A15D1CA8826
:1069F000038A891D9A4202D10B8B022B0ED0838809
:106A00009A420AD18369002B07D00A8B1A311847A2
:106A1000898801E00021C94381827047CA7E8B7E4C
:106A200011021943C907C90F00D0012181757047B0
:106A300007B584B000280DD0828A114B9A420BD042
:106A4000827D002A08D06A46128B142A06D90720B4
:106A500007B000BD0E20FBE70820F9E700220092F6
:106A600001920292039282896B461A80039106A9D1
:106A7000029101219970808A6946A6DFE8E700004B
:106A8000FFFF000030B4002201290BD10B49C96877
:106A9000002907D00A4B94001C59844204D0521C90
:106AA000022AF8D330BC7047022AFBD20348401CAC
:106AB000805C0028F6D030BC084700000C20002085
:106AC000147B0100F0B500210F4D01270F4A03236D
:106AD0001B048C002E593C468C40044207D0B40065
:106AE000A41826689E43266026681E4305E0B4006D
:106AF000A41826689E43266026682660491C022941
:106B0000E7D30020F0BD0000147B01000007005017
:106B100010B5054A0146127A0020D20702D0084675
:106B200000F004F810BD00000C200020FEB5064661
:106B30006B480021476803690093BB00FB180122E2
:106B4000019392040D46674C3300FFF737FC180D94
:106B50001111313E495B69756C757E898D8D8D8D06
:106B60008DAFB6BCC2C4C4B4A560E2600570A2E03B
:106B7000A560E5606168490309D5A560E260022E61
:106B800002D1E122D2000AE07D22520107E0E56055
:106B9000A260022E01D1C82201E0FF2291320670CC
:106BA00064211046FFF7C2FA78430022014624E030
:106BB000A560E5606168490304D5A560E26019221B
:106BC0005201ECE7E560A260E5E7A560E560616879
:106BD000490302D5A560E260D6E7E560A260DCE784
:106BE000A560E5606168490302D5A560E26001E047
:106BF000E560A2600670790030E00098FFF78EFD36
:106C0000014658E0A560E5606168490302D5A560CA
:106C1000E26001E0E560A260067000223946ECE720
:106C2000A560E5604DE060680121C9040A46824321
:106C3000A2600840E06010E061680120C0040246E4
:106C40008A43A2600140E160E7E761680120C00477
:106C500002468A43A2600140E16001990022CCE72C
:106C6000E560032080041FE007464069FFF798FDB8
:106C700001461120801B01D0002904D0A56001200D
:106C8000C004E06017E001280BD9C8214843642103
:106C9000FFF74CFA7968002241437869FFF73EFD1F
:106CA0000146E5600120C004A06004E0A560032265
:106CB0009204E26006700846FEBDA5600123DB0475
:106CC000E360E5600AE0A560E260E5600122D204CD
:106CD00004E0A560E560E56003229204A260E9E7B4
:106CE0000C20002000050050F8B5224801694A1C1C
:106CF0003DD024225143826889184E681E494C6851
:106D000047690079E11B0D022D0AED1C002814D102
:106D100001201A4A00045060184A403A506018494D
:106D200040000860174908601749012008602F20BB
:106D3000FFF7D0F90F4901200871B54200D235465E
:106D4000E81900020C49000A403108600A49496804
:106D5000001B091B0902090A0002000AC91C814222
:106D600004D901200649400480390860F8BD00F0CC
:106D700085FBF8BD4C200020001501404013014068
:106D800080E200E000E100E000100140F8B50D46AF
:106D900011780646881D14461F2801D90C20F8BD1D
:106DA00033880720062BFAD31927FF01BB4202D9EB
:106DB000164A9342F3D17288062AF0D3BA4202D916
:106DC000124FBA42EBD1114FBB4203D0BA4201D0AD
:106DD0009342E4D8481C052220706A54207812227D
:106DE000411C21702A5420784119308800F0B0FDF0
:106DF00021784018C0B220704119708800F0A8FDB9
:106E00002178401820700020F8BD0000FFFF00002E
:106E100000221146FFF7C0FBF8B5164800F0BAF89B
:106E2000144D0026103D144C002807D0616900293C
:106E30001BD001206A461070684615E028780028AB
:106E400005D06169002910D0684606700CE06878AA
:106E500000280CD0A16800226868FFF75FFC0028BA
:106E600003D0A169002900D088472E70F8BD616861
:106E7000F1E7000038200020B823002010B50E49AB
:106E800000238A78CC78A24212D0521CD2B28A70E7
:106E9000022A00D18B708A78074B92001C339A58D3
:106EA0000260486910180002000A4861012010BD04
:106EB0000360002010BD00004C200020F7B5144CEA
:106EC0000025A76823691EE024215943C9194E688B
:106ED000864202D9301A486017E0801B75190026D7
:106EE0004E600E750E699C460B6AB646002E0AD09F
:106EF000019E76193602360A8E607646CE60166896
:106F00000E6261461160591CDED12361FEBD000096
:106F10004C200020F8B51E4C2078002837D020697E
:106F2000002807D00026E068002805D00025002EA4
:106F300004D013E00126F6E70125F8E7684651DFA3
:106F4000052806D0002806D000221146FFF724FBB2
:106F500004E0012602E0216900988847002D12D143
:106F6000608869460880A06861DF052806D000288F
:106F700006D000221146FFF70FFB04E0012502E0D6
:106F8000E168A0688847002ED8D0002DCFD0F8BD8A
:106F900070200020418805480288914204D340882F
:106FA000814201D801207047002070473020002026
:106FB0001048018CC9B2012917D1818C090714D15D
:106FC000018D09060A0F03D1828D1206120F0ED011
:106FD000090F012903D1828D1206120F07D0032950
:106FE00003D1808D0006000F01D0002070470120E2
:106FF00070470000C00F00F0F8B523480169009108
:10700000457833E02048E900C0680E1834782AE05B
:10701000182060437168641C0818B178E4B2A1427A
:1070200000D100240178022902D003291BD113E0EA
:10703000154A40682421926841438F18397D002900
:1070400011D000F0B1FB002038750CE02427784304
:10705000C0180275006A03E00B4900228B680869BA
:10706000471CF3D108617078A042D1D128466D1E2B
:10707000EDB20028C6D1044801690098814201D0D0
:107080000120F8BD0020F8BD4C200020F8B50446D2
:10709000344801690091467856E03248F100C268F0
:1070A0008D184BE0601C07D02E4A24219268614362
:1070B000204689180C6A20E02878182141436A6824
:1070C000401CC0B252182870A978884201D1002013
:1070D0002870244B506824219B684143C9181378B9
:1070E000012B2DD10B7D002B2AD193688B60D368A7
:1070F000CB6013690B615269CA611A4A8F68536980
:10710000BC46FA1A1202184F120ABA4202D2CB68CF
:10711000D21809E062469A1A1202CB68120A934208
:1071200001D99A1A00E000224A6000228A60CA60EF
:1071300001220A75921E0A6200F004FB601CB1D1A4
:10714000287869788842ADD13046761EF6B200289C
:10715000A3D1044801690098814201D00120F8BD03
:107160000020F8BD4C200020FFFF7F0000249EB0CF
:10717000474B0522042120460094FFF775FA0028AA
:107180007ED144490120FFF717FA00287CD14149FC
:10719000002350226839082000F0B4FA002873D187
:1071A00068460094047060DF00286DD13A4800F012
:1071B0009FFA002868D100F0ADFB112069460872E3
:1071C0000B2236A102A87CDF00285DD1009410219B
:1071D0006846019401803C214180FF2184809131E7
:1071E000C1807ADF00284FD12F4800902948694696
:1071F0001430FFF7BDFB002846D126480125143086
:107200000570052118A801752848382100681C90D0
:1072100018A885746846FEF7B8FF02216846017019
:10722000847085801DA8029038210EA8FEF7ADFF5E
:1072300010A805821CA815900EA96846FFF7E4FA6D
:10724000002821D11C216846FEF79FFF0520C003BE
:1072500001900F20000402900094032168460173FE
:10726000C481047412480590124806906846FFF7DE
:10727000FFFA002808D100F075F9FFF76FF900E078
:1072800002E040DF0028FAD000221146FFF784F91F
:107290008420002088230020556901004E6F72640D
:1072A00069635F554152540087730100107B0100F0
:1072B00059740100116E010070B5054600790E4643
:1072C000801C1446C0B21178821C8A181F2A01D96A
:1072D0000C2070BD0A46491C2170401CB054207817
:1072E000FF22411C2170325420788119288800F037
:1072F0002FFB21784018C0B22070AA88002A09D03C
:10730000A968002908D08019FEF726FF207829797E
:1073100040182070002070BD072070BDF8B51478AB
:107320000746A01C15460E461F2803D87878801CF7
:107330001F2801D90C20F8BD1D20001B80B2694612
:10734000864608803019801C7DDF0028F3D138780C
:10735000022805D168460088704501D8092107E058
:1073600078780821002801D0704501D96846008846
:10737000421C3255641CE2B2B1542978801C0818B2
:1073800028700020F8BD70B515460E46002403E0B5
:10739000305D00F099F9641CAC42F9DB0A2000F082
:1073A00093F970BD70B52A4D044601886888142988
:1073B0002ED009DC102913D0112919D013290ED190
:1073C0002A1D00217FDF08E017291BD019292CD0A6
:1073D000522904D100221146A9DF002831D170BD05
:1073E0000720FFF795FB00282BD1A088688070BD8F
:1073F0000020FFF78DFB002823D1401E6880FFF797
:10740000ADF870BD3222A11D1248FEF7A5FE70BD79
:107410001049E389CA88891D9A4202D1002281DF7E
:10742000DBE70022114681DFD7E7A0790028EED103
:10743000FFF76EFB002804D10120FFF743FB002873
:1074400003D000221146FFF7A7F834DFC5E700009C
:1074500000200020EC22002010B50078002809D17F
:1074600005483B21408876DF002803D000221146E2
:10747000FFF792F810BD00000020002070B5012435
:107480000B49600408600B49401088600949403985
:107490008860094D6C602F20FEF71CFEAC60074D24
:1074A00000242F206C61FEF715FE2C7170BD0000CA
:1074B00080E100E040130140001001404C2000201A
:1074C00070B500240546601C90B00007000F08A9A5
:1074D000103008940870601C0007000F10304870CE
:1074E0008878F9263040801C88701C2101A8FEF79E
:1074F0004CFE6946087910210843694608710294D8
:1075000008A80494059407940690287808A988711F
:107510001348694688841120009408704870887860
:10752000F7213040801C0840EF21084001263043FD
:107530006946887014210AA8FEF727FE09A80A9058
:1075400068460B9069460E8614204C8688862B462A
:1075500068880C330AAA01A9A2DF10B070BD000030
:107560000124000008491E20088088780122104369
:10757000E1221040DF220C30104088700720C870D4
:10758000102008717047000004200020F0B5002290
:107590000123032636041F469740394212D0C5689E
:1075A0003D4203D1012464043D4301E03446BD4320
:1075B000C560064D97007D192F68B7432F602F686F
:1075C00027432F60521C202AE5D3F0BD000700504E
:1075D000F7B582B002981446006B0F46002833D0EE
:1075E000029800252030009028E00298016B0C20C2
:1075F00068430E18217830794A1C2270C01C7854D8
:1076000020781622411C21703A542078C119308804
:1076100000F09EF921784018C0B22070B288002A8C
:1076200009D0B16800290FD0C019FEF795FD207868
:107630003179401820706D1C0098EDB2007DA84291
:10764000D3D8002005B0F0BD0720FBE7F0B5124D00
:1076500003278C006419276000249E00761934608B
:107660000E4EF1607361059900290AD08100491915
:107670000F60910049190C603261B06007484030DA
:10768000C4620748706204203060064901208860A7
:10769000086005488460F0BD0007005000250040E8
:1076A00000509D00002000400021004004488168F7
:1076B0000129FCD10021816002488069C0B2704775
:1076C00000210040002500400449C8610448C16908
:1076D0000129FCD10021C161704700000025004054
:1076E0000021004010B508461146FFF785F810BD8F
:1076F000002803D00249C860002070470E20704760
:107700007020002070B5002901D08C0701D007201F
:1077100070BD064C0125A16062800549636010DFE1
:107720000028F5D12570162026DF70BD70200020BE
:10773000E57601000120024900050860704700005D
:1077400000E200E0F0B5174F2421BC6841430D1959
:1077500039694A1C09D024224A4316196B68726899
:10776000934204D8D21A726029623861F0BD0A4689
:1077700002E00A46396A9B1B4E1C0BD024264E435E
:1077800037197E689E42F4D324264E433619776813
:10779000FF1A77606B60296224214A43111908623D
:1077A000F0BD00004C20002070B5184E3569B2685D
:1077B00029460C4606E0844207D0254624235C4334
:1077C000A3181C6A631CF6D170BD002BFCD0A54227
:1077D00008D1242041438818006A3061401C01D13F
:1077E000FFF74CFEB168242044436018242342680C
:1077F0005D43006A6B181862431CE5D0242358438C
:10780000401841688918416070BD00004C2000207C
:10781000F8B51D4C2569681C35D01C480026406809
:107820006169401A07023F0A19E024204543A06815
:107830002A185068B84214D8A3693F1A8619156AE5
:10784000002B09D0D16990699847002807D0002201
:107850001146FEF7A1FE02E09169D0698847681CD5
:10786000E3D1A178E078814206D1401CC0B2E0703B
:10787000022801D10020E07003490006800D1C3170
:107880000E50FFF757FFF8BD4C20002000150140B7
:1078900070B58EB005461C216846FEF776FC694639
:1078A00008780C2108436946087000240194039469
:1078B000049405940694287808A9887014486946A9
:1078C0000884601C0007000F10300794087711200F
:1078D0004877887FF9210840F721801C0840EF2174
:1078E00008400126304369468877142109A8FEF72D
:1078F0004CFC08A8099007A80A9069468E851420B8
:10790000CC85088668882B1D09AAA2DF0EB070BD41
:107910000224000008B50120009013230A2214213C
:107920000820FFF793FE07490420486006490A68CB
:10793000FF231B049A4303239B051A430A60034950
:10794000086008BD0023004000E400E000E100E022
:107950000870000A487002207047000038B51549C9
:10796000154A488890420FD04A78144C521CD2B223
:107970004A70237B934208D3083175DF002803D077
:10798000A169002900D0884738BD00254D70217CB1
:10799000002907D03B2176DF002803D0A169002908
:1079A00000D0884761690029EED068460570884795
:1079B00038BD000028200020FFFF0000B823002071
:1079C00012494868C005C00D19D0103840B20028CF
:1079D00007DA0207120F083A920892005118C96993
:1079E00004E081080A4A8900891809688007C00EE6
:1079F000C1400806800F012803D0032803D00220CD
:107A000070470020704701207047000000ED00E043
:107A100000E400E042788378521C934200D10022B7
:107A20000378934201D1002070470A604168407892
:107A30001822504308187047F8B51546069C1E4694
:107A400007460222009400F00AF8002806D13346C7
:107A5000102229463846009400F001F8F8BDFFB521
:107A600083B0074600200C9C8646267805463AE0FF
:107A70007868A90041180A88684682804988C180D0
:107A80000022694601A865DF002810D16846017808
:107A90000598814226D17046002801D0002200E0DE
:107AA00002222078891841181F2902D90C2007B01A
:107AB000F0BD7146002908D1401CC0B2411C069B94
:107AC000049A21701A5401208646217806980A18D3
:107AD000694601A865DF0028E9D169462078097860
:107AE000401820706D1C3888A842C1DC7046002800
:107AF00004D020780699801B401E88550020D6E7C8
:107B00009ECADC240EE5A9E093F3A3B50000406E05
:107B1000002400001000000011000000100003000D
:107B2000856A010011000300856A01004C7B010099
:107B30000020002084000000D6630100D07B0100FB
:107B400084200020540B0000E66301000000FFFFCA
:107B50000000000000000000000000000000000025
:107B60000000000000000000000000000000000015
:107B70000024F400000000000000000000000000ED
:107B800000000000000000000000000000000000F5
:107B900000000000000000000000000000000000E5
:107BA00000000000000000000000000000000000D5
:107BB00000000000000000000000000000000000C5
:107BC00000000000000000000000000000000000B5
:04000005000160C1D5
:00000001FF
