:020000040001F9
:10600000E82B0020F56001000F6101001161010023
:106010000000000000000000000000000000000080
:1060200000000000000000000000000013610100FB
:106030000000000000000000156101001761010070
:106040001961010019610100A563010019610100D6
:106050001961010000000000C56101001961010023
:106060001961010019610100196101001961010044
:106070001961010019610100196101001961010034
:1060800019610100956201001961010019610100A7
:10609000B562010019610100056301001961010089
:1060A00019610100196101000000000000000000FA
:1060B00000000000000000000000000000000000E0
:1060C0000348854600F06CF80048004775710100F0
:1060D000E82B0020401E00BF00BF00BF00BF00BF74
:1060E00000BF00BF00BF00BF00BF00BF00BFF1D1B5
:1060F000704700000321094802680A43026008480B
:1061000002680A4302600748804707480047FEE7E5
:10611000FEE7FEE7FEE7FEE7FEE70000240500409D
:106120005405004029630100C160010030B50B46F1
:10613000014600202022012409E00D46D5409D4261
:1061400005D31D469540491B2546954040191546E7
:10615000521E002DF1DC30BD03460B439B0703D0DC
:1061600009E008C9121F08C0042AFAD203E00B781C
:106170000370401C491C521EF9D27047D2B201E094
:106180000270401C491EFBD270470022F6E710B592
:1061900013460A4604461946FFF7F0FF204610BD95
:1061A000064C0125064E05E0E36807CC2B430C3C6A
:1061B00098471034B442F7D3FFF786FF547C0100B0
:1061C000747C0100F8B51F4805691F490020C863A9
:1061D000074632E014213A464A4341688068541821
:1061E0000121B940014226D0E068C64320686E40D4
:1061F00006403146204601F011FA12480069684015
:106200000CD00543E0682168C0436840084001465F
:106210000090204601F002FA009806433046A1683B
:10622000A84301402A4660683240104002460A43B3
:1062300001D0226990477F1CFFB2044841788F4209
:10624000C8D3F8BD00050050406100404820002040
:106250008307FF22DB0E9A408907090E9940002828
:106260000BDA0007000F0838830808489B0018184D
:10627000C36993430B43C3617047830804489B0081
:106280001B181868904308431860704700ED00E041
:1062900000E400E010B5064900200860486088600E
:1062A000C860034940390860486001F045FB10BDF3
:1062B00040110140F0B5002087B0C0430290104863
:1062C00046690569684600F0DDFD074600F098FE66
:1062D0000446002F08D002AA3146009800F0F2FDD3
:1062E000029800F0D7FE06E0029800F0D3FE0028E6
:1062F00001D1002C02D0284600F0FAFC07B0F0BD16
:106300005420002010B507484068002807D0804777
:10631000002803D00022114600F052F910BD00F011
:10632000FDFD10BD7820002010B500F045FE0028CE
:1063300005D00E490C484860C8130D4988610D48C6
:10634000018CC9B201290ED1818C09070BD1018DB5
:106350000906090F042906D1808D0006000F02D11D
:1063600005490120886010BDDFFF07C0000500401F
:10637000006C0040C00F00F00006004010B5064A57
:106380000121064800F05EF904480022083804495B
:10639000806800F0D7F910BDC57701000820002003
:1063A000CD0C000010B501F0C9F90D4C0B4A217855
:1063B0005054491CCAB22270142A0ED30749084609
:1063C0002C3000F039FB082805D0002803D000222B
:1063D000114600F0F5F80020207010BD7823002051
:1063E0000020002030B47446641E2578641CAB4243
:1063F00000D21D46635D5B00E31830BC184702E025
:1064000008C8121F08C1002AFAD17047704700203F
:1064100001E001C1121F002AFBD17047F7B582B01D
:1064200000260546167000781446002805D0284638
:10643000039900F081FF06002DD1A87800281BD019
:106440002078039F001D1F2824D8684679DF002884
:1064500021D121780322481C20707A5421781922F6
:10646000481C20707A542078C1196846008801F0D1
:1064700003FB217840182070A988002923D001202F
:106480008446AA680398002A07D0227853189B1CD8
:106490001F2B04D90C2005B0F0BD0720FBE71346E5
:1064A000521C2270491CC15422786746511C21702D
:1064B00087542378AA881818A968FFF74DFE20781A
:1064C000297940182070E868002815D0002141562D
:1064D00022788C46D01C03991F28DBD8501C02233D
:1064E00020708B5422780A23501C20708B54207803
:1064F0006246431C23700A54288A002809D0284683
:106500000094062202211030039B01F029FB0600B3
:10651000C1D1288B002809D02846009407220321E6
:106520001830039B01F01CFB0600B4D1288C2F46C9
:106530002037002808D00094152214213846039BE8
:1065400001F00EFB0600A6D1A86A002805D022465D
:10655000039900F01FFC06009DD1E86A002805D0D1
:106560002246039900F0B6FE060094D1387D00283B
:1065700006D022462846039901F072F806008AD117
:10658000304688E700B585B014216846FFF7FDFD69
:106590000020694608700190087240200882B420EB
:1065A0004882684673DF002804D1022000F0B4FA64
:1065B000002803D00022114600F002F805B000BD0B
:1065C0000C2000F0A9FABFF34F8F04490248C860BD
:1065D000BFF34F8FFEE700000400FA0500ED00E076
:1065E00010B5002903D08A070024002A01D0072013
:1065F00010BD0F4A0B465160107014215470414376
:1066000018469460FFF7C1FD00200A49C043886026
:10661000094840210160094A1068FF231B04984380
:106620000B041843106006480160002010BD0000F4
:10663000482000200063004080E200E004E400E025
:1066400000E100E070B5114CA568002D06D0002ACD
:1066500006D0002804D00023247809E0082070BD6B
:10666000072070BD24265E43AE5D002E04D05B1C67
:10667000A342F7DB042070BD242401265C432E5581
:1066800064196170A2610360002070BD5420002075
:10669000FFB59807002481B01E4615460F46002816
:1066A0000BD1002E09D000F031FF22490A988861F1
:1066B0000F70324600208E6008E0072005B0F0BD64
:1066C00024234343D4549B181C75401CB842F7DB69
:1066D00024204743BB19032048700F461846CB605F
:1066E00019461830002218232E465E43D3005B184B
:1066F0001C705C709D7058603018521C032AF5DBCA
:106700000020C0433861BC70FC7001240A48240595
:10671000046003211420FFF79BFD08480460084C27
:106720000198A06003211120FFF792FD6068786155
:106730000020C3E75420002080E200E000E100E0F8
:1067400000150140FEB504461D48174682680D46F7
:10675000002A0CD001788C4201D2052D01D20720ED
:10676000FEBD214624235943535C012B01D0082050
:10677000FEBD8818407801281DD0002601F0B4F92C
:10678000C0000F490190C9684018694601F0D6F968
:10679000002812D0012101700A494460496808307C
:1067A000E2C007490198C96841180098487001F093
:1067B00055F80020FEBD2E46E0E70420FEBD000097
:1067C0005420002000150140F8B5144D0446A86877
:1067D000002809D029788C4201D30720F8BD242154
:1067E0006143405C012801D00820F8BD01F07CF92C
:1067F000C600E8686946301801F0A0F900280AD000
:10680000022101704460E86831180098487001F076
:1068100025F80020F8BD0420F8BD00005420002019
:106820000A4601460148FFF7CBFE0000EFBEADDE91
:1068300070B50D4692B000216A461170072411719F
:10684000002812D08188002905D08168002902D053
:106850000978490702D4204612B070BD02A9FFF79B
:10686000DDFD0028F8D102AE00E00026002D0BD09F
:10687000A8880028EFD101AA0AA92846FFF7CEFD73
:106880000028E9D10AAA00E00022684603790178CD
:10689000304672DFE0E7000070B5054601461C2275
:1068A0000F48FFF759FC0F4C002626702968002975
:1068B00007D00822A018FFF74FFC204608307ADFE7
:1068C00002E0084808307BDF002808D1401E6080C5
:1068D00004486670044A0021001DFFF7B3FE70BD36
:1068E000C823002030200020857A0100F8B5224C12
:1068F000028800271F4DE689102A16D029464968CC
:10690000112A21D0122A2DD0502A1CD1C288801DD4
:10691000B24218D1028B022A15D1C27E837E1002A8
:106920001843C007C00F0CD112E08188698001466E
:10693000104808220E311030FFF70EFC6F70002E49
:1069400001D100F06DFAF8BD0020C04368806F707F
:106950000846FFF739FF0028F5D0A1690029F2D0D9
:106960008847F8BD811D034808221030FFF7F4FB6B
:10697000E7E7000030200020C823002010B50446BF
:10698000FFF7B4FF2146034800F040F8204600F02E
:106990002BFD10BDA423002030B504001A480D467D
:1069A0000FC885B003936B4607C32BD0002D29D0A9
:1069B0000020C043A083286820620020A0772146E1
:1069C000684663DF00281BD121786846817409215D
:1069D00089020182A21C04A90120A0DF00280FD196
:1069E0002946204600F0B4FD002809D1294620465A
:1069F00000F0E2FF002803D12946204600F0EAFE1D
:106A000005B030BD0E20FBE7287C010010B5002842
:106A10000AD0002908D00A88102A06D0112A06D0E8
:106A2000502A01D100F04CFD10BD898801E0002101
:106A3000C943818310BD000007B584B000280DD084
:106A4000828B114B9A420BD0827F002A08D06A4673
:106A5000128B142A06D9072007B000BD0E20FBE7D1
:106A60000820F9E7002200920192029203928289A3
:106A70006B461A80039106A9029101219970808BBF
:106A80006946A6DFE8E70000FFFF000030B40022FF
:106A900001290BD10B49C968002907D00A4B940082
:106AA0001C59844204D0521C022AF8D330BC7047CF
:106AB000022AFBD20348401C805C0028F6D030BC80
:106AC00008470000142000203C7C0100F0B50021A4
:106AD0000F4D01270F4A03231B048C002E593C46FF
:106AE0008C40044207D0B400A41826689E43266058
:106AF00026681E4305E0B400A41826689E4326605D
:106B000026682660491C0229E7D30020F0BD00005A
:106B10003C7C01000007005010B5054A0146127A7E
:106B20000020D20702D0084600F004F810BD000093
:106B300014200020FEB506466B4800214768036913
:106B40000093BB00FB180122019392040D46674C91
:106B50003300FFF747FC180D1111313E495B697591
:106B60006C757E898D8D8D8D8DAFB6BCC2C4C4B45D
:106B7000A560E2600570A2E0A560E5606168490378
:106B800009D5A560E260022E02D1E122D2000AE01E
:106B90007D22520107E0E560A260022E01D1C822E9
:106BA00001E0FF229132067064211046FFF7BEFA21
:106BB00078430022014624E0A560E560616849034E
:106BC00004D5A560E26019225201ECE7E560A260FD
:106BD000E5E7A560E5606168490302D5A560E2606C
:106BE000D6E7E560A260DCE7A560E560616849037F
:106BF00002D5A560E26001E0E560A2600670790060
:106C000030E00098FFF79EFD014658E0A560E56082
:106C10006168490302D5A560E26001E0E560A26019
:106C2000067000223946ECE7A560E5604DE060683B
:106C30000121C9040A468243A2600840E06010E0D6
:106C400061680120C00402468A43A2600140E160FD
:106C5000E7E761680120C00402468A43A260014060
:106C6000E16001990022CCE7E560032080041FE089
:106C700007464069FFF7A8FD01461120801B01D09F
:106C8000002904D0A5600120C004E06017E00128BD
:106C90000BD9C82148436421FFF748FA79680022DC
:106CA00041437869FFF74EFD0146E5600120C004CD
:106CB000A06004E0A56003229204E260067008462A
:106CC000FEBDA5600123DB04E360E5600AE0A5608A
:106CD000E260E5600122D20404E0A560E560E560C1
:106CE00003229204A260E9E714200020000500506E
:106CF000F8B5224801694A1C3DD0242251438268DC
:106D000089184E681E494C6847690079E11B0D02DD
:106D10002D0AED1C002814D101201A4A00045060ED
:106D2000184A403A50601849400008601749086006
:106D30001749012008602F20FFF7CCF90F490120E7
:106D40000871B54200D23546E81900020C49000A24
:106D5000403108600A494968001B091B0902090AF9
:106D60000002000AC91C814204D9012006494004DE
:106D700080390860F8BD00F0C9FBF8BD5420002040
:106D8000001501404013014080E200E000E100E016
:106D900000100140F8B50D4611780646881D1446CE
:106DA0001F2801D90C20F8BD33880720062BFAD301
:106DB0001927FF01BB4202D9164A9342F3D17288C8
:106DC000062AF0D3BA4202D9124FBA42EBD1114F80
:106DD000BB4203D0BA4201D09342E4D8481C0522FA
:106DE00020706A5420781222411C21702A54207885
:106DF0004119308800F040FE21784018C0B2207060
:106E00004119708800F038FE217840182070002069
:106E1000F8BD0000FFFF000000221146FFF7D0FB85
:106E2000F8B5164800F0BAF8144D0026103D144C81
:106E3000002807D0616900291BD001206A46107024
:106E4000684615E02878002805D06169002910D02F
:106E5000684606700CE0687800280CD0A168002213
:106E60006868FFF76FFC002803D0A169002900D0F3
:106E700088472E70F8BD6168F1E7000040200020CF
:106E8000C823002010B50E4900238A78CC78A2428E
:106E900012D0521CD2B28A70022A00D18B708A782A
:106EA000074B92001C339A58026048691018000280
:106EB000000A4861012010BD0360002010BD0000E1
:106EC00054200020F7B5144C0025A76823691EE064
:106ED00024215943C9194E68864202D9301A4860A4
:106EE00017E0801B751900264E600E750E699C46D2
:106EF0000B6AB646002E0AD0019E76193602360A73
:106F00008E607646CE6016680E6261461160591C2E
:106F1000DED12361FEBD000054200020F8B51E4CD8
:106F20002078002837D02069002807D00026E068A4
:106F3000002805D00025002E04D013E00126F6E736
:106F40000125F8E7684651DF052806D0002806D05D
:106F500000221146FFF734FB04E0012602E021691C
:106F600000988847002D12D1608869460880A06883
:106F700061DF052806D0002806D000221146FFF761
:106F80001FFB04E0012502E0E168A0688847002EAD
:106F9000D8D0002DCFD0F8BD7820002041880548FA
:106FA0000288914204D34088814201D80120704771
:106FB00000207047382000201048018CC9B20129F8
:106FC00017D1818C090714D1018D09060A0F03D14D
:106FD000828D1206120F0ED0090F012903D1828D66
:106FE0001206120F07D0032903D1808D0006000F6F
:106FF00001D000207047012070470000C00F00F052
:10700000F8B5234801690091457833E02048E9004C
:10701000C0680E1834782AE0182060437168641C38
:107020000818B178E4B2A14200D100240178022905
:1070300002D003291BD113E0154A4068242192682D
:1070400041438F18397D002911D000F041FC002008
:1070500038750CE024277843C0180275006A03E0F5
:107060000B4900228B680869471CF3D108617078CE
:10707000A042D1D128466D1EEDB20028C6D10448E9
:1070800001690098814201D00120F8BD0020F8BDBF
:1070900054200020F8B50446344801690091467830
:1070A00056E03248F100C2688D184BE0601C07D0F2
:1070B0002E4A242192686143204689180C6A20E0F8
:1070C0002878182141436A68401CC0B252182870C1
:1070D000A978884201D100202870244B50682421CF
:1070E0009B684143C9181378012B2DD10B7D002BD0
:1070F0002AD193688B60D368CB6013690B615269A6
:10710000CA611A4A8F685369BC46FA1A1202184FAC
:10711000120ABA4202D2CB68D21809E062469A1A21
:107120001202CB68120A934201D99A1A00E0002297
:107130004A6000228A60CA6001220A75921E0A62B1
:1071400000F094FB601CB1D1287869788842ADD1F9
:107150003046761EF6B20028A3D104480169009893
:10716000814201D00120F8BD0020F8BD542000204C
:10717000FFFF7F0000249EB04B4B052204212046D8
:107180000094FFF785FA00287ED148490120FFF7D7
:1071900027FA0028F8D145490023502268390820F1
:1071A00000F0F8FA00287BD168460094047060DF94
:1071B000002875D13E4800F0E3FA002870D100F0B5
:1071C0003DFC1120694608720B223AA102A87CDF1F
:1071D000002865D1009410216846019401803C216B
:1071E0004180FF2184809131C1807ADF002857D10E
:1071F000334800902D4869461430FFF7CDFB002836
:107200004ED12A48012514300570052118A80175B2
:107210002C48382100681C9018A885746846FEF731
:10722000B4FF022168460170847085801DA8029019
:1072300038210EA8FEF7A9FF10A805821CA81590FA
:107240000EA96846FFF7F4FA002829D11C216846E8
:10725000FEF79BFF0520C00301900F200004029061
:107260000094032168460173C48104741648059094
:10727000164806906846FFF70FFB002810D100F073
:10728000B9F9FFF77FF900E00AE0FFF777F8104C53
:1072900064256068642800D1656040DF0028F8D06C
:1072A00000221146FFF78CF98C200020902300204B
:1072B0007D6901004E6F726469635F5541525400ED
:1072C000A3730100387C01009D740100196E010058
:1072D0000020002070B5054600790E46801C14463B
:1072E000C0B21178821C8A181F2A01D90C2070BDE7
:1072F0000A46491C2170401CB0542078FF22411CD2
:107300002170325420788119288800F0B5FB21784B
:107310004018C0B22070AA88002A09D0A9680029A4
:1073200008D08019FEF718FF2078297940182070BE
:10733000002070BD072070BDF8B514780746A01C6A
:1073400015460E461F2803D87878801C1F2801D9BF
:107350000C20F8BD1D20001B80B2694686460880BF
:107360003019801C7DDF0028F3D13878022805D140
:1073700068460088704501D8092107E0787808211F
:10738000002801D0704501D968460088421C32555A
:10739000641CE2B2B1542978801C081828700020BF
:1073A000F8BD70B50E468188154699420BD1002470
:1073B00003E0305D00F0D0F9641CAC42F9DB0A2038
:1073C00000F0CAF970BD808A9842FBD16C2000F0B1
:1073D000C3F96F2000F0C0F9762000F0BDF96520F8
:1073E00000F0BAF9EBE7000070B52A4D04460188B9
:1073F000688814292FD00ADC102914D011291AD03A
:1074000013290FD12A460C3200217FDF08E017290B
:107410001BD019292CD0522904D100221146A9DFF2
:10742000002831D170BD0720FFF776FB00282BD153
:10743000A088688070BD0020FFF76EFB002823D174
:10744000401E6880FFF79EF870BD3222A11D1248D1
:10745000FEF782FE70BD1049E389CA88891D9A42F1
:1074600002D1002281DFDBE70022114681DFD7E76E
:10747000A0790028EED1FFF74FFB002804D10120AE
:10748000FFF724FB002803D000221146FFF798F8ED
:1074900034DFC5E700200020F422002010B500787A
:1074A000002809D105483B21408876DF002803D019
:1074B00000221146FFF784F810BD000000200020D4
:1074C00030B4CB88028A8C1D934202D1228B022ACF
:1074D00007D08288203193420ED1056A002D11D148
:1074E0000AE0E17EA27E09021143C907C90F00D05C
:1074F0000121817730BC7047828A9342FAD1056AB4
:10750000002DF7D0228BAC4630BC604770B501240B
:107510000B49600408600B494010886009494039F4
:107520008860094D6C602F20FEF7D4FDAC60074DDC
:1075300000242F206C61FEF7CDFD2C7170BD000082
:1075400080E100E040130140001001405420002081
:1075500070B500240546601C90B00007000F08A914
:10756000103008940870601C0007000F103048703D
:107570008878F9263040801C88701C2101A8FEF70D
:1075800004FE69460879102108436946087102948F
:1075900008A80494059407940690287808A988718F
:1075A00013486946888411200094087048708878D0
:1075B000F7213040801C0840EF210840012630436D
:1075C0006946887014210AA8FEF7DFFD09A80A9011
:1075D00068460B9069460E8614204C8688862B469A
:1075E00068880C330AAA01A9A2DF10B070BD0000A0
:1075F0000124000008491E200880887801221043D9
:10760000E1221040DF220C30104088700720C87043
:1076100010200871704700000C200020F0B50022F7
:107620000123032636041F469740394212D0C5680D
:107630003D4203D1012464043D4301E03446BD438F
:10764000C560064D97007D192F68B7432F602F68DE
:1076500027432F60521C202AE5D3F0BD00070050BD
:10766000F7B582B002981446006B0F46002833D05D
:10767000029800252030009028E00298016B0C2031
:1076800068430E18217830794A1C2270C01C785447
:1076900020781622411C21703A542078C119308874
:1076A00000F0EAF921784018C0B22070B288002AB0
:1076B00009D0B16800290FD0C019FEF74DFD207820
:1076C0003179401820706D1C0098EDB2007DA84201
:1076D000D3D8002005B0F0BD0720FBE7F0B5124D70
:1076E00003278C006419276000249E0076193460FB
:1076F0000E4EF1607361059900290AD08100491985
:107700000F60910049190C603261B0600748403049
:10771000C462074870620420306006490120886016
:10772000086005488460F0BD000700500025004057
:1077300000509D0000200040002100400448816866
:107740000129FCD10021816002488069C0B27047E4
:1077500000210040002500400449C8610448C16977
:107760000129FCD10021C1617047000000250040C3
:107770000021004010B508461146FFF751F810BD32
:10778000002803D00249C860002070470E207047CF
:107790007820002070B5002901D08C0701D0072087
:1077A00070BD064C0125A16062800549636010DF51
:1077B0000028F5D12570162026DF70BD7820002026
:1077C0007577010002484168491C4160704700001C
:1077D0000020002070B58EB005461C216846FEF7DB
:1077E000D4FC694608780C210843694608700024D7
:1077F00001940394049405940694287808A9887049
:10780000154869460884601C0007000F1030079473
:10781000087711204877887FF9210840F721801CDC
:107820000840EF210840012630436946887714213B
:1078300009A8FEF7AAFC08A8099007A80A906946BB
:107840008E851420CC8508862B466888143309AAB7
:10785000A2DF0EB070BD0000032400000120024929
:10786000000508607047000000E200E0F0B5174F27
:107870002421BC6841430D1939694A1C09D02422CE
:107880004A4316196B687268934204D8D21A726020
:1078900029623861F0BD0A4602E00A46396A9B1B3C
:1078A0004E1C0BD024264E4337197E689E42F4D3DB
:1078B00024264E4336197768FF1A77606B60296279
:1078C00024214A4311190862F0BD00005420002011
:1078D00070B5184E3569B26829460C4606E08442F8
:1078E00007D0254624235C43A3181C6A631CF6D1E9
:1078F00070BD002BFCD0A54208D12420414388183C
:10790000006A3061401C01D1FFF700FEB1682420FD
:1079100044436018242342685D43006A6B18186270
:10792000431CE5D02423584340184168891841601E
:1079300070BD000054200020F8B51D4C2569681C5E
:1079400035D01C48002640686169401A07023F0A8A
:1079500019E024204543A0682A185068B84214D87A
:10796000A3693F1A8619156A002B09D0D16990695D
:107970009847002807D000221146FEF721FE02E0BA
:107980009169D0698847681CE3D1A178E078814289
:1079900006D1401CC0B2E070022801D10020E07086
:1079A00003490006800D1C310E50FFF757FFF8BD4C
:1079B000542000200015014070B58EB005461C21F2
:1079C0006846FEF7E2FB694608780C2108436946E1
:1079D0000870002401940394049405940694287874
:1079E00008A98870144869460884601C0007000FC5
:1079F00010300794087711204877887FF9210840D4
:107A0000F721801C0840EF210840012630436946D9
:107A10008877142109A8FEF7B8FB08A8099007A8E1
:107A20000A9069468E851420CC85088668882B1DAF
:107A300009AAA2DF0EB070BD0224000008B5012023
:107A4000009013230A2214210820FFF747FE07495C
:107A50000420486006490A68FF231B049A43032355
:107A60009B051A430A600349086008BD00230040D3
:107A700000E400E000E100E00870000A4870022025
:107A80007047000038B51549154A488890420FD014
:107A90004A78144C521CD2B24A70237B934208D3CA
:107AA000083175DF002803D0A169002900D088477C
:107AB00038BD00254D70217C002907D03B2176DFA1
:107AC000002803D0A169002900D0884761690029F6
:107AD000EED068460570884738BD00003020002091
:107AE000FFFF0000C823002012494868C005C00DF0
:107AF00019D0103840B2002807DA0207120F083AEE
:107B0000920892005118C96904E081080A4A890064
:107B1000891809688007C00EC1400806800F012837
:107B200003D0032803D002207047002070470120B3
:107B30007047000000ED00E000E400E04278837848
:107B4000521C934200D100220378934201D10020BD
:107B500070470A60416840781822504308187047FF
:107B6000F8B51546069C1E4607460222009400F012
:107B70000AF8002806D133461022294638460094D8
:107B800000F001F8F8BDFFB583B0074600200C9C5B
:107B90008646267805463AE07868A90041180A88A2
:107BA000684682804988C1800022694601A865DF55
:107BB000002810D1684601780598814226D1704688
:107BC000002801D0002200E0022220788918411804
:107BD0001F2902D90C2007B0F0BD7146002908D139
:107BE000401CC0B2411C069B049A21701A5401200B
:107BF0008646217806980A18694601A865DF00289C
:107C0000E9D1694620780978401820706D1C3888C1
:107C1000A842C1DC7046002804D020780699801B59
:107C2000401E88550020D6E79ECADC240EE5A9E058
:107C300093F3A3B50000406E002400001000000084
:107C400011000000100003008D6A01001100030004
:107C50008D6A0100747C0100002000208C0000006F
:107C6000FE630100007D01008C2000205C0B000001
:107C70000E6401000000FFFF000000000000000093
:107C800000000000000000000000000000000000F4
:107C900000000000000000000000000000000000E4
:107CA0000024F400000000000000000000000000BC
:107CB00000000000000000000000000000000000C4
:107CC00000000000000000000000000000000000B4
:107CD00000000000000000000000000000000000A4
:107CE0000000000000000000000000000000000094
:107CF0000000000000000000000000000000000084
:04000005000160C1D5
:00000001FF
