:020000040001F9
:1060000018340020F56001000F61010011610100EA
:106010000000000000000000000000000000000080
:1060200000000000000000000000000013610100FB
:106030000000000000000000156101001761010070
:106040001961010019610100A563010019610100D6
:106050001961010000000000C56101001961010023
:106060001961010019610100196101001961010044
:106070001961010019610100196101001961010034
:1060800019610100956201001961010019610100A7
:10609000B562010019610100056301001961010089
:1060A00019610100196101000000000000000000FA
:1060B00000000000000000000000000000000000E0
:1060C0000348854600F06CF800480047A5720100BF
:1060D00018340020401E00BF00BF00BF00BF00BF3B
:1060E00000BF00BF00BF00BF00BF00BF00BFF1D1B5
:1060F000704700000321094802680A43026008480B
:1061000002680A4302600748804707480047FEE7E5
:10611000FEE7FEE7FEE7FEE7FEE70000240500409D
:106120005405004029630100C160010030B50B46F1
:10613000014600202022012409E00D46D5409D4261
:1061400005D31D469540491B2546954040191546E7
:10615000521E002DF1DC30BD03460B439B0703D0DC
:1061600009E008C9121F08C0042AFAD203E00B781C
:106170000370401C491C521EF9D27047D2B201E094
:106180000270401C491EFBD270470022F6E710B592
:1061900013460A4604461946FFF7F0FF204610BD95
:1061A000064C0125064E05E0E36807CC2B430C3C6A
:1061B00098471034B442F7D3FFF786FFA47E01005E
:1061C000C47E0100F8B51F4805691F490020C86357
:1061D000074632E014213A464A4341688068541821
:1061E0000121B940014226D0E068C64320686E40D4
:1061F00006403146204601F00FFB12480069684016
:106200000CD00543E0682168C0436840084001465F
:106210000090204601F000FB009806433046A1683C
:10622000A84301402A4660683240104002460A43B3
:1062300001D0226990477F1CFFB2044841788F4209
:10624000C8D3F8BD00050050406100406420002024
:106250008307FF22DB0E9A408907090E9940002828
:106260000BDA0007000F0838830808489B0018184D
:10627000C36993430B43C3617047830804489B0081
:106280001B181868904308431860704700ED00E041
:1062900000E400E010B5064900200860486088600E
:1062A000C860034940390860486001F05DFC10BDDA
:1062B00040110140F0B5002087B0C0430290104863
:1062C00046690569684600F075FE074600F030FF34
:1062D0000446002F08D002AA3146009800F08AFE3A
:1062E000029800F06FFF06E0029800F06BFF0028B4
:1062F00001D1002C02D0284600F092FD07B0F0BD7D
:106300007020002010B507484068002807D080475B
:10631000002803D00022114600F04EF910BD00F015
:1063200095FE10BD9420002010B500F0DDFE002881
:1063300005D00E490C484860C8130D4988610D48C6
:10634000018CC9B201290ED1818C09070BD1018DB5
:106350000906090F042906D1808D0006000F02D11D
:1063600005490120886010BDDFFF07C0000500401F
:10637000006C0040C00F00F00006004010B5074A56
:106380000121074800F08EF90548FF210C38002252
:106390004931C06800F006FA10BD0000E57901003F
:1063A0000C20002010B50B4CA078012810D101F072
:1063B000C3FA0146084800F032F9002803D0002251
:1063C000114600F0F9F8E078401CE07000202070E1
:1063D00010BD000000200020E823002030B47446E7
:1063E000641E2578641CAB4200D21D46635D5B00D1
:1063F000E31830BC184702E008C8121F08C1002A81
:10640000FAD170477047002001E001C1121F002A35
:10641000FBD17047F7B582B00026054616700078AC
:106420001446002805D02846039901F059F80600C3
:106430002DD1A87800281BD02078039F001D1F288D
:1064400024D8684679DF002821D121780322481C0E
:1064500020707A5421781922481C20707A542078B0
:10646000C1196846008801F02FFC2178401820707F
:10647000A988002923D001208446AA680398002A0D
:1064800007D0227853189B1C1F2B04D90C2005B071
:10649000F0BD0720FBE71346521C2270491CC15473
:1064A00022786746511C217087542378AA881818CF
:1064B000A968FFF751FE2078297940182070E86814
:1064C000002815D00021415622788C46D01C039913
:1064D0001F28DBD8501C022320708B5422780A23FB
:1064E000501C20708B5420786246431C23700A5441
:1064F000288A002809D0284600940622022110305C
:10650000039B01F055FC0600C1D1288B002809D05F
:1065100028460094072203211830039B01F048FC11
:106520000600B4D1288C2F462037002808D00094CC
:10653000152214213846039B01F03AFC0600A6D12F
:10654000A86A002805D02246039900F0BBFC06008B
:106550009DD1E86A002805D02246039900F08EFFFD
:10656000060094D1387D002806D02246284603999B
:1065700001F074F906008AD1304688E700B585B08D
:1065800014216846FFF701FE00206946087001905B
:10659000087240200882B4204882684673DF0028D1
:1065A00004D1022000F050FB002803D00022114645
:1065B00000F002F805B000BD0C2000F045FBBFF371
:1065C0004F8F04490248C860BFF34F8FFEE70000B9
:1065D0000400FA0500ED00E0C26883689A420AD020
:1065E000826883881A4003689A5C0A708168491C33
:1065F00081600020704705207047002906D0002ADE
:1066000002D0531E134203D0092070470E2070475A
:106610000160838000218160C16008467047C268C4
:106620008368D31A8288934208D8C36813400268EB
:10663000D154C168491CC1600020704704207047D4
:1066400010B5002903D08A070024002A01D00720B2
:1066500010BD0F4A0B465160107014215470414315
:1066600018469460FFF791FD00200A49C0438860F6
:10667000094840210160094A1068FF231B04984320
:106680000B041843106006480160002010BD000094
:10669000642000200063004080E200E004E400E0A9
:1066A00000E100E070B5114CA568002D06D0002A6D
:1066B00006D0002804D00023247809E0082070BD0B
:1066C000072070BD24265E43AE5D002E04D05B1C07
:1066D000A342F7DB042070BD242401265C432E5521
:1066E00064196170A2610360002070BD70200020F9
:1066F000FFB59807002481B01E4615460F460028B6
:106700000BD1002E09D000F0FFFF22490A988861C2
:106710000F70324600208E6008E0072005B0F0BD03
:1067200024234343D4549B181C75401CB842F7DB08
:1067300024204743BB19032048700F461846CB60FE
:1067400019461830002218232E465E43D3005B18EA
:106750001C705C709D7058603018521C032AF5DB69
:106760000020C0433861BC70FC7001240A48240535
:10677000046003211420FFF76BFD08480460084CF7
:106780000198A06003211120FFF762FD6068786125
:106790000020C3E77020002080E200E000E100E07C
:1067A00000150140FEB504461D48174682680D4697
:1067B000002A0CD001788C4201D2052D01D207208D
:1067C000FEBD214624235943535C012B01D00820F0
:1067D000FEBD8818407801281DD0002601F0ACFAD3
:1067E000C0000F490190C9684018694601F0CEFA0F
:1067F000002812D0012101700A494460496808301C
:10680000E2C007490198C96841180098487001F032
:106810003DF90020FEBD2E46E0E70420FEBD00004D
:106820007020002000150140F8B5144D0446A868FA
:10683000002809D029788C4201D30720F8BD2421F3
:106840006143405C012801D00820F8BD01F074FAD2
:10685000C600E8686946301801F098FA00280AD0A6
:10686000022101704460E86831180098487001F016
:106870000DF90020F8BD0420F8BD000070200020B4
:106880000A4601460148FFF797FE0000EFBEADDE65
:10689000F8B514212848FFF778FC284C0127E07848
:1068A000254E401E132820D2207814281DD9677049
:1068B00000250DE0204871194C30FFF78DFE0028AF
:1068C00006D1E078002806D0401E6D1CE070EDB2C5
:1068D000E0780028EED118492A460846283000F012
:1068E00043F9082801D000280DD1E078142821D3DD
:1068F00067700025104871194C30FFF76DFE0028B5
:1069000005D0082808D000221146FFF755FEE07890
:10691000002801D0401EE0706D1CEDB2142DE9D3AB
:10692000054914220846283000F01EF9082801D035
:106930000028E8D1F8BD00009C23002000200020A2
:1069400070B50D4692B000216A461170072411718E
:10695000002812D08188002905D08168002902D042
:106960000978490702D4204612B070BD02A9FFF78A
:1069700051FD0028F8D102AE00E00026002D0BD01A
:10698000A8880028EFD101AA0AA92846FFF742FDEE
:106990000028E9D10AAA00E00022684603790178BC
:1069A000304672DFE0E7000070B5054601461C2264
:1069B0000F48FFF7D1FB0F4C0026267029680029ED
:1069C00007D00822A018FFF7C7FB204608307ADF5F
:1069D00002E0084808307BDF002808D1401E6080B4
:1069E00004486670044A0021001DFFF75BFE70BD7D
:1069F000F82300204C200020D57C0100F8B5224C63
:106A0000028800271F4DE689102A16D029464968BA
:106A1000112A21D0122A2DD0502A1CD1C288801DC3
:106A2000B24218D1028B022A15D1C27E837E100297
:106A30001843C007C00F0CD112E08188698001465D
:106A4000104808220E311030FFF786FB6F70002EC1
:106A500001D100F07DFAF8BD0020C04368806F705E
:106A60000846FFF7E1FE0028F5D0A1690029F2D021
:106A70008847F8BD811D034808221030FFF76CFBE2
:106A8000E7E700004C200020F823002010B5044662
:106A9000FFF7B4FF2146034800F040F8204600F01D
:106AA0007DFD10BDC423002030B504001A480D46FA
:106AB0000FC885B003936B4607C32BD0002D29D098
:106AC0000020C043A083286820620020A0772146D0
:106AD000684663DF00281BD121786846817409214C
:106AE00089020182A21C04A90120A0DF00280FD185
:106AF0002946204600F02AFE002809D129462046D2
:106B000001F072F8002803D12946204600F07AFFF0
:106B100005B030BD0E20FBE7787E010010B50028DF
:106B20000AD0002908D00A88102A06D0112A07D0D6
:106B3000502A01D100F0A8FD10BD8988818310BDC5
:106B40000021C9438183552000F004FF552000F047
:106B500001FF03490020087002490420086010BDAD
:106B60000220002080E100E007B584B000280DD0AD
:106B7000828B114B9A420BD0827F002A08D06A4642
:106B8000128B142A06D9072007B000BD0E20FBE7A0
:106B90000820F9E700220092019202920392828972
:106BA0006B461A80039106A9029101219970808B8E
:106BB0006946A6DFE8E70000FFFF000030B40022CE
:106BC00001290BD10B49C968002907D00A4B940051
:106BD0001C59844204D0521C022AF8D330BC70479E
:106BE000022AFBD20348401C805C0028F6D030BC4F
:106BF00008470000302000208C7E0100F0B5002105
:106C00000F4D01270F4A03231B048C002E593C46CD
:106C10008C40044207D0B400A41826689E43266026
:106C200026681E4305E0B400A41826689E4326602B
:106C300026682660491C0229E7D30020F0BD000029
:106C40008C7E01000007005010B5054A0146127AFB
:106C50000020D20702D0084600F004F810BD000062
:106C600030200020FEB506466B48002147680369C6
:106C70000093BB00FB180122019392040D46674C60
:106C80003300FFF7ABFB180D1111313E495B6975FD
:106C90006C757E898D8D8D8D8DAFB6BCC2C4C4B42C
:106CA000A560E2600570A2E0A560E5606168490347
:106CB00009D5A560E260022E02D1E122D2000AE0ED
:106CC0007D22520107E0E560A260022E01D1C822B8
:106CD00001E0FF229132067064211046FFF726FA88
:106CE00078430022014624E0A560E560616849031D
:106CF00004D5A560E26019225201ECE7E560A260CC
:106D0000E5E7A560E5606168490302D5A560E2603A
:106D1000D6E7E560A260DCE7A560E560616849034D
:106D200002D5A560E26001E0E560A260067079002E
:106D300030E00098FFF736FD014658E0A560E560B9
:106D40006168490302D5A560E26001E0E560A260E8
:106D5000067000223946ECE7A560E5604DE060680A
:106D60000121C9040A468243A2600840E06010E0A5
:106D700061680120C00402468A43A2600140E160CC
:106D8000E7E761680120C00402468A43A26001402F
:106D9000E16001990022CCE7E560032080041FE058
:106DA00007464069FFF740FD01461120801B01D0D6
:106DB000002904D0A5600120C004E06017E001288C
:106DC0000BD9C82148436421FFF7B0F97968002244
:106DD00041437869FFF7E6FC0146E5600120C00405
:106DE000A06004E0A56003229204E26006700846F9
:106DF000FEBDA5600123DB04E360E5600AE0A56059
:106E0000E260E5600122D20404E0A560E560E5608F
:106E100003229204A260E9E7302000200005005020
:106E2000F8B5224801694A1C3DD0242251438268AA
:106E300089184E681E494C6847690079E11B0D02AC
:106E40002D0AED1C002814D101201A4A00045060BC
:106E5000184A403A506018494000086017490860D5
:106E60001749012008602F20FFF734F90F4901204E
:106E70000871B54200D23546E81900020C49000AF3
:106E8000403108600A494968001B091B0902090AC8
:106E90000002000AC91C814204D9012006494004AD
:106EA00080390860F8BD00F02FFCF8BD702000208C
:106EB000001501404013014080E200E000E100E0E5
:106EC00000100140F8B50D4611780646881D14469D
:106ED0001F2801D90C20F8BD33880720062BFAD3D0
:106EE0001927FF01BB4202D9164A9342F3D1728897
:106EF000062AF0D3BA4202D9124FBA42EBD1114F4F
:106F0000BB4203D0BA4201D09342E4D8481C0522C8
:106F100020706A5420781222411C21702A54207853
:106F20004119308800F0D0FE21784018C0B220709E
:106F30004119708800F0C8FE2178401820700020A8
:106F4000F8BD0000FFFF000000221146FFF734FBF0
:106F5000F8B5164800F0BAF8144D0026103D144C50
:106F6000002807D0616900291BD001206A461070F3
:106F7000684615E02878002805D06169002910D0FE
:106F8000684606700CE0687800280CD0A1680022E2
:106F90006868FFF707FC002803D0A169002900D02A
:106FA00088472E70F8BD6168F1E700005C20002082
:106FB000F823002010B50E4900238A78CC78A2422D
:106FC00012D0521CD2B28A70022A00D18B708A78F9
:106FD000074B92001C339A5802604869101800024F
:106FE000000A4861012010BD0360002010BD0000B0
:106FF00070200020F7B5144C0025A76823691EE017
:1070000024215943C9194E68864202D9301A486072
:1070100017E0801B751900264E600E750E699C46A0
:107020000B6AB646002E0AD0019E76193602360A41
:107030008E607646CE6016680E6261461160591CFD
:10704000DED12361FEBD000070200020F8B51E4C8B
:107050002078002837D02069002807D00026E06873
:10706000002805D00025002E04D013E00126F6E705
:107070000125F8E7684651DF052806D0002806D02C
:1070800000221146FFF798FA04E0012602E0216988
:1070900000988847002D12D1608869460880A06852
:1070A00061DF052806D0002806D000221146FFF730
:1070B00083FA04E0012502E0E168A0688847002E19
:1070C000D8D0002DCFD0F8BD9420002041880548AD
:1070D0000288914204D34088814201D80120704740
:1070E00000207047542000201048018CC9B20129AB
:1070F00017D1818C090714D1018D09060A0F03D11C
:10710000828D1206120F0ED0090F012903D1828D34
:107110001206120F07D0032903D1808D0006000F3D
:1071200001D000207047012070470000C00F00F020
:10713000F8B5234801690091457833E02048E9001B
:10714000C0680E1834782AE0182060437168641C07
:107150000818B178E4B2A14200D1002401780229D4
:1071600002D003291BD113E0154A406824219268FC
:1071700041438F18397D002911D000F0C1FC002057
:1071800038750CE024277843C0180275006A03E0C4
:107190000B4900228B680869471CF3D1086170789D
:1071A000A042D1D128466D1EEDB20028C6D10448B8
:1071B00001690098814201D00120F8BD0020F8BD8E
:1071C00070200020F8B504463448016900914678E3
:1071D00056E03248F100C2688D184BE0601C07D0C1
:1071E0002E4A242192686143204689180C6A20E0C7
:1071F0002878182141436A68401CC0B25218287090
:10720000A978884201D100202870244B506824219D
:107210009B684143C9181378012B2DD10B7D002B9E
:107220002AD193688B60D368CB6013690B61526974
:10723000CA611A4A8F685369BC46FA1A1202184F7B
:10724000120ABA4202D2CB68D21809E062469A1AF0
:107250001202CB68120A934201D99A1A00E0002266
:107260004A6000228A60CA6001220A75921E0A6280
:1072700000F014FC601CB1D1287869788842ADD147
:107280003046761EF6B20028A3D104480169009862
:10729000814201D00120F8BD0020F8BD70200020FF
:1072A000FFFF7F0000249EB04E4B052204212046A4
:1072B0000094FFF71DFA00287ED14B490120FFF70B
:1072C000BFF90028F8D1484900235022643908202A
:1072D00000F070FB00286FD168460094047060DFF6
:1072E00000287BD1414800F05BFB002876D100F0FC
:1072F000BDFC1120694608720B223DA102A87CDF6B
:1073000000286BD1009410216846019401803C2133
:107310004180FF2184809131C1807ADF00285DD1D6
:1073200036480090304869461430FFF7BDFB00280E
:1073300054D12D48012514300570052118A8017578
:107340002F48382100681C9018A885746846FEF7FD
:107350001CFF022168460170847085801DA8029080
:1073600038210EA8FEF711FF10A805821CA8159061
:107370000EA96846FFF7E4FA00282FD11C216846C1
:10738000FEF703FF0520C00301900F2000040290C8
:107390000094032168460173C48104741948059060
:1073A000194806906846FFF7FFFA002816D100F04A
:1073B0001FFAFFF7E3F800E010E0FEF7DFFF7D259E
:1073C000124CED00A068A84200D1A06060780028AF
:1073D00001D1FFF75DFA40DF0028F3D0002211460B
:1073E000FFF7EAF8B0200020B02300208D6A0100EA
:1073F0004E6F726469635F55415254004D750100D0
:10740000887E010065760100496F010000200020A0
:10741000F0B50B30C108C900144F0026144A0FE024
:1074200003688B420BD38B4205D95C1A431845681D
:1074300030C3083B00E04368136002C004E0021D53
:1074400010680028ECD13046002803D138680028A5
:1074500001D00020F0BD064A06481060064A121A04
:10746000D208D20044C001203860D7E7AC20002009
:10747000A82000201C240020182C002070B50546F0
:1074800000790E46801C1446C0B21178821C8A18FE
:107490001F2A01D90C2070BD0A46491C2170401CCE
:1074A000B0542078FF22411C217032542078811979
:1074B000288800F009FC21784018C0B22070AA8802
:1074C000002A09D0A968002908D08019FEF744FED7
:1074D0002078297940182070002070BD072070BDE9
:1074E000F8B514780746A01C15460E461F2803D889
:1074F0007878801C1F2801D90C20F8BD1D20001BA6
:1075000080B26946864608803019801C7DDF0028DD
:10751000F3D13878022805D168460088704501D833
:10752000092107E078780821002801D0704501D9A9
:1075300068460088421C3255641CE2B2B154297876
:10754000801C081828700020F8BD000070B50E4699
:107550008188144699421DD0808A98421AD10B2105
:107560000D4800F005FAE0B200F0F4F9250A2846CB
:1075700000F0F0F92D19641CA1B2304600F0F8F9C2
:107580002818C4B204480B210A3000F0F1F9204653
:1075900000F0E0F970BD00001A20002070B504462C
:1075A0002E4D0088AB88142833D00DDC012851D033
:1075B000102816D011281CD0132811D12A461432B5
:1075C000002118467FDF09E017281CD019282FD08A
:1075D000522805D1002211461846A9DF002833D1D0
:1075E00070BD0720FFF730FB00282DD1A088A880B0
:1075F00070BD0020FFF728FB002825D1401EA88081
:10760000FEF7BCFF70BD3222A11D1548FEF7A4FD98
:1076100070BD1349E289C888891D904203D10022B8
:10762000184681DFDAE700221146184681DFD5E7E8
:10763000A0790028ECD1FFF707FB002804D1012036
:10764000FFF7DCFA002803D000221146FEF7B4FF52
:1076500034DFC3E70020687070BD00000020002008
:107660001823002010B50078002809D105483B21D7
:10767000808876DF002803D000221146FEF79CFFA9
:1076800010BD00000020002070B5CB88028A8C1D40
:10769000934202D1228B022A07D082882031934262
:1076A00025D1056A002D28D121E0E17EA27E0902C4
:1076B0001143C907C90F0124114D0426002909D01F
:1076C0008477FF2000F046F9FF2000F043F92C708A
:1076D0000C480AE000248477552000F03BF955203F
:1076E00000F038F907482C708030066070BD828A3F
:1076F0009342FBD1056A002DF8D0228BA84770BDBC
:107700000220002000E100E070B501240B49600474
:1077100008600B4940108860094940398860094D6C
:107720006C602F20FEF7D6FCAC60074D00242F20A4
:107730006C61FEF7CFFC2C7170BD000080E100E0B1
:1077400040130140001001407020002070B500245B
:107750000546601C90B00007000F08A9103008947F
:107760000870601C0007000F103048708878F926F8
:107770003040801C88701C2101A8FEF706FD694678
:1077800008791021084369460871029408A80494F6
:10779000059407940690287808A9887113486946CB
:1077A000888411200094087048708878F721304050
:1077B000801C0840EF21084001263043694688704C
:1077C00014210AA8FEF7E1FC09A80A9068460B906C
:1077D00069460E8614204C8688862B4668880C33B2
:1077E0000AAA01A9A2DF10B070BD000001240000A8
:1077F00008491E200880887801221043E1221040A9
:10780000DF220C30104088700720C87010200871EB
:107810007047000014200020F0B500220123032649
:1078200036041F469740394212D0C5683D4203D105
:10783000012464043D4301E03446BD43C560064D68
:1078400097007D192F68B7432F602F6827432F605B
:10785000521C202AE5D3F0BD00070050F7B582B0D6
:1078600002981446006B0F46002833D0029800257A
:107870002030009028E00298016B0C2068430E181D
:10788000217830794A1C2270C01C78542078162246
:10789000411C21703A542078C119308800F014FA44
:1078A00021784018C0B22070B288002A09D0B1688F
:1078B00000290FD0C019FEF74FFC2078317940180D
:1078C00020706D1C0098EDB2007DA842D3D8002036
:1078D00005B0F0BD0720FBE7F0B5124D03278C0083
:1078E0006419276000249E00761934600E4EF16002
:1078F0007361059900290AD0810049190F60910030
:1079000049190C603261B06007484030C4620748D2
:1079100070620420306006490120886008600548D4
:107920008460F0BD000700500025004000509D001D
:107930000020004000210040044881680129FCD15A
:107940000021816002488069C0B270470021004078
:10795000002500400449C8610448C1690129FCD1DF
:107960000021C16170470000002500400021004057
:1079700070B50E4605460378012206E01846FFF76B
:10798000E9FFE018AB5CC4B2521CB242F6D3204609
:1079900070BD10B508461146FEF772FF10BD00001D
:1079A000002803D00249C860002070470E207047AD
:1079B0009420002070B5002901D08C0701D0072049
:1079C00070BD064C0125A16062800549636010DF2F
:1079D0000028F5D12570162026DF70BD94200020E8
:1079E0009379010006488268521C82600178FF2961
:1079F00001D2491C0170642A01D3002181607047C3
:107A00000020002070B58EB005461C216846FEF7A8
:107A1000BCFB694608780C210843694608700024BD
:107A200001940394049405940694287808A9887016
:107A3000154869460884601C0007000F1030079441
:107A4000087711204877887FF9210840F721801CAA
:107A50000840EF2108400126304369468877142109
:107A600009A8FEF792FB08A8099007A80A906946A2
:107A70008E851420CC8508862B466888143309AA85
:107A8000A2DF0EB070BD00000324000001200249F7
:107A9000000508607047000000E200E0F0B5174FF5
:107AA0002421BC6841430D1939694A1C09D024229C
:107AB0004A4316196B687268934204D8D21A7260EE
:107AC00029623861F0BD0A4602E00A46396A9B1B0A
:107AD0004E1C0BD024264E4337197E689E42F4D3A9
:107AE00024264E4336197768FF1A77606B60296247
:107AF00024214A4311190862F0BD000070200020C3
:107B000070B5184E3569B26829460C4606E08442C5
:107B100007D0254624235C43A3181C6A631CF6D1B6
:107B200070BD002BFCD0A54208D124204143881809
:107B3000006A3061401C01D1FFF7E6FDB1682420E6
:107B400044436018242342685D43006A6B1818623E
:107B5000431CE5D0242358434018416889184160EC
:107B600070BD000070200020F8B51D4C2569681C10
:107B700035D01C48002640686169401A07023F0A58
:107B800019E024204543A0682A185068B84214D848
:107B9000A3693F1A8619156A002B09D0D16990692B
:107BA0009847002807D000221146FEF705FD02E0A5
:107BB0009169D0698847681CE3D1A178E078814257
:107BC00006D1401CC0B2E070022801D10020E07054
:107BD00003490006800D1C310E50FFF757FFF8BD1A
:107BE000702000200015014070B58EB005461C21A4
:107BF0006846FEF7CAFA694608780C2108436946C8
:107C00000870002401940394049405940694287841
:107C100008A98870144869460884601C0007000F92
:107C200010300794087711204877887FF9210840A1
:107C3000F721801C0840EF210840012630436946A7
:107C40008877142109A8FEF7A0FA08A8099007A8C8
:107C50000A9069468E851420CC85088668882B1D7D
:107C600009AAA2DF0EB070BD0224000038B50120C1
:107C7000009013230A2214210820FFF72DFE0D483F
:107C8000042242600C490868FF231B049843032325
:107C90009B05184308600948026094012046FFF7DD
:107CA000B7FB07490861010003D022460548FEF7EB
:107CB000A4FC38BD0023004000E400E000E100E047
:107CC00000200020E82300200870000A48700220ED
:107CD0007047000038B51549154A488890420FD0C2
:107CE0004A78144C521CD2B24A70237B934208D378
:107CF000083175DF002803D0A169002900D088472A
:107D000038BD00254D70217C002907D03B2176DF4E
:107D1000002803D0A169002900D0884761690029A3
:107D2000EED068460570884738BD00004C20002022
:107D3000FFFF0000F823002012494868C005C00D6D
:107D400019D0103840B2002807DA0207120F083A9B
:107D5000920892005118C96904E081080A4A890012
:107D6000891809688007C00EC1400806800F0128E5
:107D700003D0032803D00220704700207047012061
:107D80007047000000ED00E000E400E042788378F6
:107D9000521C934200D100220378934201D100206B
:107DA00070470A60416840781822504308187047AD
:107DB000F8B51546069C1E4607460222009400F0C0
:107DC0000AF8002806D13346102229463846009486
:107DD00000F001F8F8BDFFB583B0074600200C9C09
:107DE0008646267805463AE07868A90041180A8850
:107DF000684682804988C1800022694601A865DF03
:107E0000002810D1684601780598814226D1704635
:107E1000002801D0002200E00222207889184118B1
:107E20001F2902D90C2007B0F0BD7146002908D1E6
:107E3000401CC0B2411C069B049A21701A540120B8
:107E40008646217806980A18694601A865DF002849
:107E5000E9D1694620780978401820706D1C38886F
:107E6000A842C1DC7046002804D020780699801B07
:107E7000401E88550020D6E79ECADC240EE5A9E006
:107E800093F3A3B50000406E002400001000000032
:107E90001100000010000300BD6B01001100030081
:107EA000BD6B0100C47E010000200020B000000076
:107EB000F6630100747F0100B02000206813000009
:107EC0000664010000000000FFFF00000000000049
:107ED000000000000000000000000000000001237E
:107EE000456789ABCDEFAABBBBAAFEDCBA98765436
:107EF0003210000000000000000000000000000040
:107F00000000000000000000000000000024F40059
:107F10000000000000000000000000000000000061
:107F20000000000000000000000000000000000051
:107F30000000000000000000000000000000000041
:107F40000000000000000000000000000000000031
:107F50000000000000000000000000000000000021
:107F60000000000000000000000000000000000011
:047F7000000000000D
:04000005000160C1D5
:00000001FF
